:020000040800F2
:1000000000000220211600082D13000835130008F7
:100010003D130008451300084D13000800000000C0
:100020000000000000000000000000005513000860
:100030006313000800000000711300087F1300081C
:100040007116000871160008711600087116000874
:100050007116000871160008711600087116000864
:100060007116000871160008711600087116000854
:100070007116000871160008711600087116000844
:1000800071160008711600088D130008711600081B
:100090007116000871160008711600087116000824
:1000A0007116000871160008711600087116000814
:1000B0007116000871160008711600087116000804
:1000C00071160008711600087116000871160008F4
:1000D0007116000871160008A113000871160008B7
:1000E00071160008711600087116000871160008D4
:1000F00071160008711600087116000871160008C4
:1001000071160008711600087116000871160008B3
:1001100071160008711600087116000871160008A3
:10012000B513000871160008711600087116000852
:100130007116000871160008711600087116000883
:100140007116000871160008711600087116000873
:100150007116000871160008711600087116000863
:100160007116000871160008711600087116000853
:1001700071160008711600087116000800000000D2
:08018000711600087116000859
:1001900010B5054C237833B9044B13B10448AFF3C1
:1001A00000800123237010BD6C00002000000000BF
:1001B000147D000808B5034B1BB103490348AFF396
:1001C000008008BD0000000070000020147D0008C1
:1001D00001F0FF01102A2BDB10F0070F08D010F8F8
:1001E000013B013A8B422DD010F0070F42B3F6D1FC
:1001F000F0B441EA012141EA014122F007047FF015
:1002000000070023F0E80256083C85EA010586EA6B
:10021000010685FA47F5A3FA87F586FA47F6A5FAA7
:1002200087F68EB9EED1F0BC01F0FF0102F00702B3
:1002300032B110F8013B013A83EA010313B1F8D15E
:100240000020704701387047002D06BF354603383F
:10025000073815F0010F07D1013015F4807F02BF78
:10026000013015F4C03F0130F0BC0138704700BFC9
:1002700053B94AB9002908BF00281CBF4FF0FF310D
:100280004FF0FF3000F088B9ADF1080C6DE904CEF5
:1002900000F006F8DDF804E0DDE9022304B0704761
:1002A0002DE9F047089D8E4604468846002B4AD12A
:1002B0008A42174662D9B2FA82F64EB1C6F12003DD
:1002C00001FA06F820FA03F3B74043EA0808B440FD
:1002D0004FEA174E1FFA87FCB8FBFEF1230C0EFB0A
:1002E000118843EA084301FB0CF29A4209D9FB1832
:1002F00001F1FF3080F0EA809A4240F2E780023953
:100300003B449A1AA3B2B2FBFEF00EFB102243EA62
:10031000024300FB0CFC9C4509D9FB1800F1FF329D
:1003200080F0D6809C4540F2D3803B44023840EABE
:100330000140A3EB0C0300211DB1F3400022C5E9ED
:100340000032BDE8F0878B4205D90DB1C5E9000147
:1003500000210846F5E7B3FA83F1002946D1734539
:1003600002D3824200F20581841A6EEB030201205F
:100370009046002DE5D0C5E90048E2E7002A00F0EC
:100380009080B2FA82F6002E40F0A4808A1A030C04
:100390004FEA174E80B2BCB20121B2FBFEFC0EFB4D
:1003A0001C2243EA024304FB0CF29A4207D9FB18D1
:1003B0000CF1FF3802D29A4200F2E080C4469B1A48
:1003C000B3FBFEF20EFB123340EA034302FB04F4DC
:1003D0009C4207D9FB1802F1FF3002D29C4200F286
:1003E000CA8002461B1B42EA0C40A5E7C1F1200669
:1003F0008B4022FA06F71F430EFA01F420FA06F3A7
:100400002EFA06FE4FEA1749234300FA01F81FFAB5
:1004100087FCBEFBF9F01C0C09FB10EE44EA0E440D
:1004200000FB0CFEA64502FA01F209D93C1900F1C5
:10043000FF3A80F09C80A64540F2998002383C4407
:10044000A4EB0E041FFA83FEB4FBF9F309FB13447B
:100450004EEA044403FB0CFCA44508D93C1903F103
:10046000FF3E80F08280A4457FD9023B3C4443EAB2
:100470000040A4EB0C04A0FB02EC64457346E1468B
:1004800062D35FD05DB1B8EB030264EB090404FAF8
:1004900006F622FA01F31E43CC40C5E900640021B0
:1004A0004FE7B1FBF2FC010C41EA0E4180B240EA99
:1004B00001423B4638463C46B846BE462026B1FB84
:1004C000F7F1A2EB080241EA0C4166E7014618E7A2
:1004D00010462CE7C6F120022EFA02F3B740B140D5
:1004E00020FA02F24FEA174E0A43B3FBFEF8BCB201
:1004F0000EFB1833110C41EA034108FB04F9B0402C
:1005000089454FEA104380B23ED9791808F1FF3C83
:1005100001D289451FD8A1EB0901B1FBFEF909FB06
:1005200004F80EFB191192B242EA0142424529D267
:10053000BA1809F1FF31C4D24245C2D2A9F1020171
:100540003A44BEE7F0459DD2BEEB02036CEB070CCC
:100550000138E14696E7A7EB09094944A8F1020CE6
:10056000B1FBFEF909FB04F8DBE773467FE7504671
:1005700066E70846FDE63B44023A33E7ACF1020C7D
:100580003B441CE749469CE7A1EB0901C446B1FB8B
:10059000FEF909FB04F8C4E7704700BF80B58AB0D4
:1005A00004AF78600B467B807B885B0099B25A4B26
:1005B0001B680A22786803F05DFB0346002B04D019
:1005C000564806F045FD0123A1E0554806F040FDE0
:1005D000642001F0C1F84FF40043FB82FB8A1B0A40
:1005E0009BB2DBB23B74FB8ADBB27B747B885B0023
:1005F00099B2642302930223019307F1100300933D
:1006000001230022786803F009F80346002B04D088
:10061000444806F01DFD012379E0052001F09CF817
:10062000414806F015FD45233B7427237B747B88E6
:100630005B0099B2384B1B6802930223019307F1C8
:100640001003009301230022786802F0E7FF0346BD
:10065000002B04D0354806F0FBFC012357E034485A
:1006600006F0F6FC642001F077F840F28E631B0A76
:100670009BB2DBB23B7440F28E63DBB27B747B884F
:100680005B0099B2244B1B6802930223019307F18C
:100690001003009301230522786802F0BFFF034690
:1006A000002B04D0234806F0D3FC01232FE022487E
:1006B00006F0CEFC642001F04FF87B885B0099B215
:1006C000154B1B6802930223019307F10C0300935F
:1006D00001230022786803F09BF80346002B15D114
:1006E0003B7B1BB21B021AB27B7B1BB213431BB2B8
:1006F000BB82BB8A1946114806F042FCBB8A44F211
:100700002752934202D00E4806F0A2FC002318465E
:100710001837BD4680BD00BF000000202C7D0008BA
:100720004C7D0008647D00088C7D0008CC7D0008AD
:10073000EC7D0008147E0008347E0008587E000816
:10074000707E000880B584B000AF7860124806F073
:100750007FFC0023FB8114E0FB895B0099B20A2334
:100760000122786803F086FA03467B737B7B002BBB
:1007700004D1FB891946094806F002FCFB890133C4
:10078000FB81FB897F2BE7D9054806F061FC00BFA0
:100790001037BD4680BD00BFC07F0008DC7F000869
:1007A0000880000880B500AF00F064FF00F06AF830
:1007B00000F040FB00F01EFB00F0CEF800F07CFAE9
:1007C00000F0EEFA00F07CF900F0D6F900F0A6F99E
:1007D000214800F0AFFE02222049214801F034F9FF
:1007E0000021204804F068FC00211F4804F064FC4C
:1007F0001E48FFF7A7FF4FF47A7000F0ADFF1C48CA
:10080000FFF7A0FF40211948FFF7C8FE0346002B61
:1008100002D0184806F01CFC174806F019FC6420AA
:1008200000F09AFF44211148FFF7B8FE0346002B61
:1008300002D0124806F00CFC114806F009FC6420B6
:1008400000F08AFF0A48FFF77DFF4FF4FA7000F0CE
:1008500083FF00BFF6E700BF68020020B00200205F
:100860008800002020020020D80100203001002054
:10087000840100202080000848800008748000085F
:100880009C80000880B594B000AF07F120033022AF
:100890000021184606F0BCFC07F10C0300221A6088
:1008A0005A609A60DA601A610023BB60284B1B6CA7
:1008B000274A43F080531364254B1B6C03F080538D
:1008C000BB60BB6800237B60224B1B68214A43F45A
:1008D000804313601F4B1B6803F480437B607B687D
:1008E00001233B624FF480337B620223BB634FF4EE
:1008F0008003FB6308233B644FF4A8737B640423E9
:10090000BB640723FB6407F12003184603F094FE41
:100910000346002B01D000F0FBFA0F23FB600223FB
:100920003B6100237B614FF48053BB610023FB617B
:1009300007F10C030221184604F0F6F80346002BD9
:1009400001D000F0E5FA00BF5037BD4680BD00BFC2
:10095000003802400070004080B592B000AF07F14F
:10096000300300221A605A609A60DA601A615A6194
:1009700007F1200300221A605A609A60DA603B4651
:1009800020220021184606F043FC484B484A1A60D2
:10099000464B4FF480325A60444B00229A60434BDE
:1009A00001221A61414B01221A76404B002283F842
:1009B00020203E4B0022DA623C4B3E4A9A623B4B7F
:1009C0000022DA60394B0222DA61384B012283F8C7
:1009D0003020364B00225A61344800F0E1FE0346D5
:1009E000002B01D000F094FA334B3B6300237B6370
:1009F0000023BB630123FB63012387F8403007F129
:100A000030031946294801F07DFA0346002B01D036
:100A100000F07EFA01233B6201237B620723BB6265
:100A200007F120031946214801F04AF90346002B3B
:100A300001D000F06DFA02233B6202237B6207F1D2
:100A400020031946194801F03BF90346002B01D059
:100A500000F05EFA02233B6001237B6002233B61CE
:100A60000023BB600023FB61144BBB6100237B753B
:100A700000233B750023FB603B4619460B4801F001
:100A800029FC0346002B01D000F042FA02237B60D0
:100A90003B461946054801F01DFC0346002B01D0DA
:100AA00000F036FA00BF4837BD4680BD8800002000
:100AB000002001400100000F0002800001000F0033
:100AC00080B500AF124B134A1A60114B124A5A609C
:100AD0000F4B00229A600E4B0022DA600C4B4FF451
:100AE00080421A610A4B00225A61094B00229A6126
:100AF000074B0022DA61064B00221A62044802F01A
:100B000049FC0346002B01D000F002FA00BF80BD73
:100B10003001002000540040A086010080B500AFE5
:100B2000124B134A1A60114B124A5A600F4B0022A3
:100B30009A600E4B0022DA600C4B4FF480421A612F
:100B40000A4B00225A61094B00229A61074B00228E
:100B5000DA61064B00221A62044802F01BFC0346CD
:100B6000002B01D000F0D4F900BF80BD840100202B
:100B700000580040A086010080B596B000AF07F194
:100B8000480300221A605A609A60DA6007F1400355
:100B900000221A605A6007F1240300221A605A608A
:100BA0009A60DA601A615A619A613B1D2022002125
:100BB000184606F02DFB3E4B3E4A1A603C4B452240
:100BC0005A603B4B00229A60394BC722DA60384B9F
:100BD00000221A61364B00225A61354B00229A617D
:100BE000334804F0C1F90346002B01D000F090F91E
:100BF0004FF48053BB6407F1480319462C4804F0B6
:100C0000E5FB0346002B01D000F082F9284804F0F0
:100C1000FAF90346002B01D000F07AF900233B6477
:100C200000237B6407F140031946214804F0ACFF20
:100C30000346002B01D000F06BF960237B62002398
:100C4000BB620023FB6200233B6300237B63002322
:100C5000BB630023FB6307F12403002219461448F9
:100C600004F0F2FA0346002B01D000F051F9002302
:100C70007B600023BB600023FB6000233B610023FB
:100C80007B614FF40053BB6100233B623B1D19465F
:100C9000074804F0F5FF0346002B01D000F038F9B7
:100CA000034800F095FA00BF5837BD4680BD00BF2D
:100CB000D80100200000014080B58EB000AF07F1E0
:100CC000280300221A605A609A60DA6007F1200354
:100CD00000221A605A603B1D00221A605A609A6016
:100CE000DA601A615A619A612C4B4FF080421A60A7
:100CF0002A4B45225A60294B00229A60274BC72273
:100D0000DA60264B00221A61244B00229A612348A4
:100D100004F02AF90346002B01D000F0F9F84FF453
:100D20008053BB6207F1280319461C4804F04EFBB0
:100D30000346002B01D000F0EBF8184804F063F9EB
:100D40000346002B01D000F0E3F800233B620023B0
:100D50007B6207F120031946104804F015FF034693
:100D6000002B01D000F0D4F860237B600023BB602F
:100D70000023FB6000237B613B1D002219460748CE
:100D800004F062FA0346002B01D000F0C1F80348DA
:100D900000F01EFA00BF3837BD4680BD200200209B
:100DA00080B500AF114B124A1A60104B4FF4E1327C
:100DB0005A600E4B00229A600C4B0022DA600B4BFB
:100DC00000221A61094B0C225A61084B00229A61D9
:100DD000064B0022DA61054804F0A4FF0346002B0D
:100DE00001D000F095F800BF80BD00BF6802002070
:100DF0000044004080B582B000AF00237B600C4B04
:100E00001B6B0B4A43F480031363094B1B6B03F406
:100E100080037B607B6800220021382001F0CBFC3E
:100E2000382001F0E4FC00BF0837BD4680BD00BF9C
:100E30000038024080B58AB000AF07F114030022E9
:100E40001A605A609A60DA601A6100233B612E4B87
:100E50001B6B2D4A43F0800313632B4B1B6B03F07A
:100E600080033B613B690023FB60274B1B6B264AD9
:100E700043F001031363244B1B6B03F00103FB607E
:100E8000FB680023BB60204B1B6B1F4A43F0100321
:100E900013631D4B1B6B03F01003BB60BB68002387
:100EA0007B60194B1B6B184A43F002031363164B0C
:100EB0001B6B03F002037B607B6800233B60124BDB
:100EC0001B6B114A43F0080313630F4B1B6B03F0BA
:100ED00008033B603B6800224FF478610B4802F046
:100EE0003FFA4FF478637B610123BB610023FB6110
:100EF00000233B6207F114031946044802F094F8FA
:100F000000BF2837BD4680BD0038024000100240B7
:100F100080B400AF72B600BF00BFFDE780B582B0FD
:100F200000AF00237B60104B5B6C0F4A43F480439F
:100F300053640D4B5B6C03F480437B607B68002340
:100F40003B60094B1B6C084A43F080531364064B0B
:100F50001B6C03F080533B603B68072001F020FCD2
:100F600000BF0837BD4680BD0038024080B58AB05A
:100F700000AF786007F1140300221A605A609A608B
:100F8000DA601A617B681B68334A93425FD10023A1
:100F90003B61324B5B6C314A43F4807353642F4B9B
:100FA0005B6C03F480733B613B690023FB602B4B5C
:100FB0001B6B2A4A43F001031363284B1B6B03F09E
:100FC0000103FB60FB6806237B610323BB610023F5
:100FD000FB6107F114031946214802F025F8214B63
:100FE000214A1A601F4B00225A601E4B00229A6051
:100FF0001C4B0022DA601B4B4FF480621A61194BC4
:101000004FF400625A61174B4FF400529A61154B2E
:101010004FF48072DA61134B00221A62114B0022E6
:101020005A62104801F0FEFB0346002B01D0FFF787
:101030006FFF7B680B4A9A630A4A7B6893630022BE
:101040000021122001F0B7FB122001F0D0FB00BFFD
:101050002837BD4680BD00BF002001400038024057
:1010600000000240D00000201064024080B58CB027
:1010700000AF786007F11C0300221A605A609A6082
:10108000DA601A617B681B68324A93422CD10023D4
:10109000BB61314B1B6B304A43F0020313632E4B91
:1010A0001B6B03F00203BB61BB69C023FB6112230E
:1010B0003B6200237B620323BB620423FB6207F1D4
:1010C0001C031946254801F0AFFF00237B61224B2A
:1010D0001B6C214A43F4001313641F4B1B6C03F475
:1010E00000137B617B6931E07B681B681C4A93427B
:1010F0002CD100233B61184B1B6B174A43F00203B2
:101100001363154B1B6B03F002033B613B694FF408
:101110004063FB6112233B6200237B620323BB62BB
:101120000423FB6207F11C0319460C4801F07CFF05
:101130000023FB60084B1B6C074A43F480031364D5
:10114000054B1B6C03F48003FB60FB6800BF30376A
:10115000BD4680BD005400400038024000040240FB
:101160000058004080B485B000AF78607B681B6891
:10117000154A93420ED10023FB60144B5B6C134A5B
:1011800043F001035364114B5B6C03F00103FB60FC
:10119000FB6812E07B681B68B3F1804F0DD1002320
:1011A000BB600A4B1B6C094A43F001031364074BF5
:1011B0001B6C03F00103BB60BB6800BF1437BD4666
:1011C0005DF8047B704700BF00000140003802401A
:1011D00080B58AB000AF786007F1140300221A606E
:1011E0005A609A60DA601A617B681B68244A9342ED
:1011F0001FD100233B61234B1B6B224A43F00103A9
:101200001363204B1B6B03F001033B613B694FF4FD
:1012100080737B610223BB610023FB6100233B627F
:1012200001237B6207F114031946174801F0FCFE05
:1012300022E07B681B68B3F1804F1DD10023FB6067
:10124000104B1B6B0F4A43F0010313630D4B1B6BD9
:1012500003F00103FB60FB6801237B610223BB6198
:101260000023FB6100233B6201237B6207F114032F
:101270001946054801F0D8FE00BF2837BD4680BD9D
:1012800000000140003802400000024080B58AB0F2
:1012900000AF786007F1140300221A605A609A6068
:1012A000DA601A617B681B681D4A934233D10023C0
:1012B0003B611C4B1B6C1B4A43F400331364194BFA
:1012C0001B6C03F400333B613B690023FB60154B4F
:1012D0001B6B144A43F008031363124B1B6B03F0A0
:1012E0000803FB60FB6860237B610223BB61002372
:1012F000FB6103233B6207237B6207F1140319465A
:10130000094801F091FE00220021262001F053FA45
:10131000262001F06CFA00BF2837BD4680BD00BF13
:101320000044004000380240000C024080B400AF8E
:1013300000BFFDE780B400AF00BFFDE780B400AFA1
:1013400000BFFDE780B400AF00BFFDE780B400AF91
:1013500000BFFDE780B400AF00BFBD465DF8047B71
:10136000704780B400AF00BFBD465DF8047B704796
:1013700080B400AF00BFBD465DF8047B704780B508
:1013800000AF00F0C9F900BF80BD000080B500AF1C
:10139000024800F048FA00BF80BD00BF880000206E
:1013A00080B500AF024804F0BDFD00BF80BD00BFA6
:1013B0006802002080B500AF024801F0CBFB00BFFF
:1013C00080BD00BFD000002080B586B000AFF860BF
:1013D000B9607A6000237B610AE0AFF300800146C8
:1013E000BB685A1CBA60CAB21A707B6901337B6150
:1013F0007A697B689A42F0DB7B6818461837BD46ED
:1014000080BD80B586B000AFF860B9607A60002317
:101410007B6109E0BB685A1CBA601B78184600F073
:10142000EBF87B6901337B617A697B689A42F1DB77
:101430007B6818461837BD4680BD80B483B000AFC6
:1014400078604FF0FF3318460C37BD465DF8047BDB
:10145000704780B483B000AF786039603B684FF468
:1014600000525A60002318460C37BD465DF8047BD5
:10147000704780B483B000AF7860012318460C3702
:10148000BD465DF8047B704780B485B000AFF8605E
:10149000B9607A60002318461437BD465DF8047BB6
:1014A0007047000080B586B000AF7860144A154BD5
:1014B000D31A7B617B693B61134B1B68002B02D104
:1014C000114B124A1A60104B1A687B6813443A6930
:1014D0009A4207D205F0EAFE03460C221A604FF04A
:1014E000FF3309E0084B1B68FB60074B1A687B68F9
:1014F0001344054A1360FB6818461837BD4680BD83
:101500000000022000040000B40200205804002063
:1015100080B400AF064BD3F88830054A43F470031B
:10152000C2F8883000BFBD465DF8047B704700BF3D
:1015300000ED00E080B582B000AF7860064A7B68BD
:101540001360054B1B6801220449184604F0C5FCD2
:1015500000BF0837BD4680BDB8020020BC02002095
:1015600080B582B000AF78607B681A681D4B1B683D
:101570001B689A4232D11C4B1B78DBB20A2B04D079
:10158000194B1B78DBB20D2B0FD1184B1B78DBB23C
:10159000002B1CD0154B1B78DBB21A46144B0021D4
:1015A0009954144B01221A7011E0104B1B78DBB2D6
:1015B0003E2B0CD80D4B1B78DBB25A1CD1B20B4A18
:1015C00011701A46084B1B78D9B2094B9954054B38
:1015D0001B6801220449184604F07FFC00BF08374D
:1015E000BD4680BDB8020020BC02002000030020E0
:1015F000C00200200103002080B582B000AF7860F7
:10160000064B1868391D4FF0FF33012204F0DAFB56
:101610007B6818460837BD4680BD00BFB802002071
:10162000DFF834D0FFF774FF0C480D490D4A002352
:1016300002E0D458C4500433C4188C42F9D30A4A87
:101640000A4C002301E013600432A242FBD305F0F0
:1016500033FEFFF7A7F870470000022000000020CB
:101660006C0000202C8100086C0000205404002035
:10167000FEE7000080B500AF0E4B1B680D4A43F437
:10168000007313600B4B1B680A4A43F480631360BA
:10169000084B1B68074A43F480731360032001F072
:1016A0007FF8002000F008F8FFF738FC0023184608
:1016B00080BD00BF003C024080B582B000AF7860C2
:1016C000124B1A68124B1B7819464FF47A73B3FB0E
:1016D000F1F3B2FBF3F3184601F097F80346002B41
:1016E00001D001230EE07B680F2B0AD80022796815
:1016F0004FF0FF3001F05FF8064A7B68136000236B
:1017000000E0012318460837BD4680BD04000020D4
:101710000C0000200800002080B400AF064B1B78AE
:101720001A46064B1B681344044A136000BFBD46AB
:101730005DF8047B704700BF0C000020040300200C
:1017400080B400AF034B1B681846BD465DF8047BB0
:10175000704700BF0403002080B584B000AF7860FC
:10176000FFF7EEFFB8607B68FB60FB68B3F1FF3FFB
:1017700005D00A4B1B781A46FB681344FB6000BF78
:10178000FFF7DEFF0246BB68D31AFA689A42F7D821
:1017900000BF00BF1037BD4680BD00BF0C00002059
:1017A00080B584B000AF78600023FB737B68002BAA
:1017B00001D1012333E07B681B6C002B09D17868D1
:1017C000FFF7D4FB7B6800225A647B68002283F811
:1017D0003C207B681B6C03F01003002B18D17B6846
:1017E0001B6C23F4885323F0020343F002027B684E
:1017F0001A64786800F0E6FB7B6800225A647B6814
:101800001B6C23F0030343F001027B681A6401E0C0
:101810000123FB737B68002283F83C20FB7B184686
:101820001037BD4680BD80B586B000AF786000231C
:101830007B6100233B617B681B681B68FB607B68E6
:101840001B685B68BB60FB6803F002037B61BB68DD
:1018500003F020033B617B69002B49D03B69002BDF
:1018600046D07B681B6C03F01003002B05D17B680E
:101870001B6C43F400727B681A647B681B689B686E
:1018800003F04053002B2BD17B681B7E002B27D10C
:101890007B681B68DB6A03F47003002B06D07B684F
:1018A0001B689B6803F48063002B19D17B681B685D
:1018B0005A687B681B6822F020025A607B681B6CA8
:1018C00023F480727B681A647B681B6C03F480537A
:1018D000002B05D17B681B6C43F001027B681A6406
:1018E000786800F0C5F97B681B686FF012021A6017
:1018F000FB6803F004037B61BB6803F080033B617A
:101900007B69002B57D03B69002B54D07B681B6C44
:1019100003F01003002B05D17B681B6C43F40052CD
:101920007B681A647B681B689B6803F44013002B78
:1019300039D17B681B689B6B03F44013002B06D0E6
:101940007B681B689B6803F48063002B2BD17B684A
:101950001B685B6803F48063002B24D17B681B68E1
:101960009B6803F04053002B1DD17B681B7E002B2E
:1019700019D17B681B685A687B681B6822F080025B
:101980005A607B681B6C23F480527B681A647B6806
:101990001B6C03F48073002B05D17B681B6C43F038
:1019A00001027B681A64786800F08AFC7B681B6817
:1019B0006FF00C021A60FB6803F001037B61BB68E7
:1019C00003F040033B617B69002B17D03B69002B80
:1019D00014D07B681B681B6803F00103012B0DD139
:1019E0007B681B6C43F480327B681A64786800F073
:1019F00053F97B681B686FF001021A60FB6803F003
:101A000020037B61BB6803F080633B617B69002B33
:101A100015D03B69002B12D07B685B6C43F002024F
:101A20007B685A647B681B686FF020021A607868D4
:101A300000F03CF97B681B686FF020021A6000BF61
:101A40001837BD4680BD000080B588B000AFF86093
:101A5000B9607A6000237B610023FB77FB6893F811
:101A60003C30012B01D10223EBE0FB68012283F81B
:101A70003C20FB681B689B6803F00103012B18D016
:101A8000FB681B689A68FB681B6842F001029A6059
:101A90006E4B1B686E4AA2FB03239A0C13465B0035
:101AA00013447B6102E07B69013B7B617B69002B16
:101AB000F9D1FB681B689B6803F48073B3F5807FE2
:101AC00007D1FB681B689A68FB681B6822F4807268
:101AD0009A60FB681B689B6803F00103012B40F0D0
:101AE000A380FB681B6C23F4E06323F0010343F441
:101AF0008072FB681A64FB681B685B6803F4806390
:101B0000002B07D0FB681B6C23F4405343F4805236
:101B1000FB681A64FB681B6C03F48053B3F5805FA9
:101B200006D1FB685B6C23F00602FB685A6402E096
:101B3000FB6800225A64FB68002283F83C20454B76
:101B4000BB61FB689B6B444ADA63FB689B6B434A4F
:101B50001A64FB689B6B424ADA64FB681B686FF08F
:101B600022021A60FB681B685A68FB681B6842F017
:101B700080625A60FB681B689A68FB681B6842F4C5
:101B800080729A60FB68986BFB681B684C3319463F
:101B9000BA687B6800F0F4FE0346FB77BB695B68BC
:101BA00003F01F03002B2AD1FB681B682D4A9342C8
:101BB00015D0FB681B682C4A934205D1254B5B6806
:101BC00003F01F03002B0AD0FB681B68274A9342CF
:101BD00036D1204B5B6803F01003002B30D1FB683B
:101BE0001B689B6803F04053002B29D1FB681B68DE
:101BF0009A68FB681B6842F080429A6020E0FB68AC
:101C00001B68184A93421BD1FB681B689B6803F052
:101C10004053002B14D1FB681B689A68FB681B6853
:101C200042F080429A600BE0FB681B6C43F01002AC
:101C3000FB681A64FB685B6C43F00102FB685A6442
:101C4000FB7F18462037BD4680BD00BF0400002042
:101C500083DE1B4300230140BD21000877220008DA
:101C60009322000800200140002101400022014091
:101C700080B483B000AF786000BF0C37BD465DF81C
:101C8000047B704780B483B000AF786000BF0C372E
:101C9000BD465DF8047B704780B483B000AF7860C8
:101CA00000BF0C37BD465DF8047B704780B483B03D
:101CB00000AF786000BF0C37BD465DF8047B70470D
:101CC00080B485B000AF786039600023BB607B686A
:101CD00093F83C30012B01D1022305E17B680122FE
:101CE00083F83C203B681B68092B25D97B681B685F
:101CF000D9683B681B689BB21A4613465B001344C5
:101D00001E3B072202FA03F3DA437B681B680A4092
:101D1000DA607B681B68D9683B689A683B681B6817
:101D20009BB2184603465B0003441E3B9A407B6807
:101D30001B680A43DA6022E07B681B6819693B680C
:101D40001B689BB21A4613465B001344072202FA33
:101D500003F3DA437B681B680A401A617B681B68DF
:101D600019693B689A683B681B689BB21846034632
:101D70005B0003449A407B681B680A431A613B6816
:101D80005B68062B24D87B681B68596B3B685A68D4
:101D900013469B001344053B1F2202FA03F3DA4368
:101DA0007B681B680A405A637B681B68596B3B68F9
:101DB0001B689BB218463B685A6813469B00134445
:101DC000053B00FA03F27B681B680A435A634CE048
:101DD0003B685B680C2B24D87B681B68196B3B68DD
:101DE0005A6813469B001344233B1F2202FA03F355
:101DF000DA437B681B680A401A637B681B68196BAF
:101E00003B681B689BB218463B685A6813469B00A8
:101E10001344233B00FA03F27B681B680A431A63EE
:101E200023E07B681B68D96A3B685A6813469B00AD
:101E30001344413B1F2202FA03F3DA437B681B6819
:101E40000A40DA627B681B68D96A3B681B689BB2F0
:101E500018463B685A6813469B001344413B00FAFE
:101E600003F27B681B680A43DA62224BFB607B68E3
:101E70001B68214A934209D13B681B68122B05D18C
:101E8000FB685B6843F48002FB685A607B681B68F0
:101E9000194A934223D13B681B68102B03D03B683F
:101EA0001B68112B1BD1FB685B6843F40002FB68C5
:101EB0005A603B681B68102B11D1104B1B68104AED
:101EC000A2FB03239A0C13469B0013445B00BB60E8
:101ED00002E0BB68013BBB60BB68002BF9D17B68AB
:101EE000002283F83C20002318461437BD465DF8D5
:101EF000047B7047002301400020014004000020C3
:101F000083DE1B4380B483B000AF786039607B68A8
:101F100093F83C30012B01D102234DE07B68012274
:101F200083F83C203B681B7C012B08D17B681B6835
:101F30005A687B681B6842F040025A6007E07B6881
:101F40001B685A687B681B6822F040025A607B68F5
:101F50001B685B687A68126823F4400323F40073FB
:101F600053607B681B6859683B681A687B681B680C
:101F70000A435A607B681B683A6852685A627B68F9
:101F80001B683A6892689A627B681B685A687B682B
:101F90001B6822F01F025A607B681B685A683B6806
:101FA000DB689BB219467B681B680A435A607B68F2
:101FB000002283F83C20002318460C37BD465DF80C
:101FC000047B704780B485B000AF7860794BFB60CC
:101FD000FB685B6823F44032FB685A60FB685A6810
:101FE0007B685B681A43FB685A607B681B685A68A9
:101FF0007B681B6822F480725A607B681B68596892
:102000007B681B691A027B681B680A435A607B68FD
:102010001B685A687B681B6822F040725A607B68B4
:102020001B6859687B689A687B681B680A435A601A
:102030007B681B689A687B681B6822F400629A6060
:102040007B681B6899687B68DA687B681B680A4351
:102050009A607B689B6A584A934222D07B681B68CF
:102060009A687B681B6822F070629A607B681B68C4
:1020700099687B689A6A7B681B680A439A607B68E8
:102080001B689A687B681B6822F040529A607B68E4
:102090001B6899687B68DA6A7B681B680A439A60E8
:1020A0000FE07B681B689A687B681B6822F070628F
:1020B0009A607B681B689A687B681B6822F04052B4
:1020C0009A607B681B689A687B681B6822F0020232
:1020D0009A607B681B6899687B681B7E5A007B68E6
:1020E0001B680A439A607B6893F82030002B1BD052
:1020F0007B681B685A687B681B6842F400625A6000
:102100007B681B685A687B681B6822F460425A60CF
:102110007B681B6859687B685B6A013B5A037B6874
:102120001B680A435A6007E07B681B685A687B6833
:102130001B6822F400625A607B681B68DA6A7B685D
:102140001B6822F47002DA627B681B68D96A7B68BC
:10215000DB69013B1A057B681B680A43DA627B680E
:102160001B689A687B681B6822F400729A607B681F
:102170001B6899687B6893F830305A027B681B684B
:102180000A439A607B681B689A687B681B6822F424
:1021900080629A607B681B6899687B685B699A02B9
:1021A0007B681B680A439A6000BF1437BD465DF820
:1021B000047B7047002301400100000F80B584B00C
:1021C00000AF78607B689B6BFB60FB681B6C03F067
:1021D0005003002B3CD1FB681B6C43F40072FB687E
:1021E0001A64FB681B689B6803F04053002B2BD1DB
:1021F000FB681B7E002B27D1FB681B68DB6A03F49E
:102200007003002B06D0FB681B689B6803F4806397
:10221000002B19D1FB681B685A68FB681B6822F009
:1022200020025A60FB681B6C23F48072FB681A64FE
:10223000FB681B6C03F48053002B05D1FB681B6CFF
:1022400043F00102FB681A64F868FFF711FD0EE025
:10225000FB681B6C03F01003002B03D0F868FFF73A
:1022600025FD04E0FB689B6BDB6C7868984700BF3A
:102270001037BD4680BD80B584B000AF78607B6804
:102280009B6BFB60F868FFF7FDFC00BF1037BD4695
:1022900080BD80B584B000AF78607B689B6BFB60CD
:1022A000FB6840221A64FB685B6C43F00402FB6825
:1022B0005A64F868FFF7FAFC00BF1037BD4680BDCE
:1022C00080B483B000AF786000BF0C37BD465DF8C6
:1022D000047B704780B485B000AF786039607B685C
:1022E00093F83C30012B01D102237DE17B68012270
:1022F00083F83C203B681B68092B25D97B681B6849
:10230000D9683B681B689BB21A4613465B001344AE
:102310001E3B072202FA03F3DA437B681B680A407C
:10232000DA607B681B68D9683B689A683B681B6801
:102330009BB2184603465B0003441E3B9A407B68F1
:102340001B680A43DA6022E07B681B6819693B68F6
:102350001B689BB21A4613465B001344072202FA1D
:1023600003F3DA437B681B680A401A617B681B68C9
:1023700019693B689A683B681B689BB2184603461C
:102380005B0003449A407B681B680A431A617B68C0
:102390001B689A6B7B681B6822F440129A637B6807
:1023A0001B68996B3B681B69013B1A057B681B68BE
:1023B0000A439A637B681B68996B3B685B68DAB277
:1023C0003B681B69DBB2D31ADBB20333DBB21A46BC
:1023D00013469B0013441F2202FA03F3DA437B687F
:1023E0001B680A409A637B681B68996B3B681B6893
:1023F0009BB218463B685B68DAB23B681B69DBB28C
:10240000D31ADBB20333DBB21A4613469B001344E4
:1024100000FA03F27B681B680A439A633B689B6976
:10242000744A934222D07B681B689A687B681B6859
:1024300022F470229A607B681B6899683B689A69ED
:102440007B681B680A439A607B681B689A687B6894
:102450001B6822F440129A607B681B6899683B688D
:10246000DA697B681B680A439A600FE07B681B6827
:102470009A687B681B6822F470229A607B681B68EC
:102480009A687B681B6822F440129A603B685B7D07
:10249000002B08D07B681B685A687B681B6842F475
:1024A00080625A6007E07B681B685A687B681B681B
:1024B00022F480625A603B681B7D002B08D07B6849
:1024C0001B685A687B681B6842F480525A6007E0B8
:1024D0007B681B685A687B681B6822F480525A60CC
:1024E0003B685B68032B2ED0032B40D8012B02D016
:1024F000022B14D03BE07B681B685B697A6812682A
:1025000023F47F6323F00F0353617B681B685969D1
:102510003B68DA687B681B680A435A613BE07B686A
:102520001B689B697A68126823F47F6323F00F03AA
:1025300093617B681B6899693B68DA687B681B68F4
:102540000A439A6127E07B681B68DB697A68126836
:1025500023F47F6323F00F03D3617B681B68D96981
:102560003B68DA687B681B680A43DA6113E07B68C2
:102570001B681B6A7A68126823F47F6323F00F03D9
:1025800013627B681B68196A3B68DA687B681B68A2
:102590000A431A6200BF184BFB607B681B68174A2E
:1025A000934209D13B681B68122B05D1FB685B681D
:1025B00043F48002FB685A607B681B680F4A9342B1
:1025C0000DD13B681B68102B03D03B681B68112B97
:1025D00005D1FB685B6843F40002FB685A607B68C6
:1025E000002283F83C20002318461437BD465DF8CE
:1025F000047B704701000F000023014000200140D0
:1026000080B485B000AF78607B6803F00703FB609F
:102610000C4BDB68BB60BA684FF6FF031340BB602E
:10262000FB681A02BB68134343F0BF6343F40033F3
:10263000BB60044ABB68D36000BF1437BD465DF879
:10264000047B704700ED00E080B400AF044BDB6812
:102650001B0A03F007031846BD465DF8047B70476C
:1026600000ED00E080B483B000AF0346FB7197F942
:102670000730002B0BDBFB7903F01F02074997F9AA
:1026800007305B09012000FA02F241F8232000BF65
:102690000C37BD465DF8047B704700BF00E100E0E9
:1026A00080B483B000AF03463960FB7197F90730FF
:1026B000002B0ADB3B68DAB20C4997F907301201AC
:1026C000D2B20B4483F800230AE03B68DAB208492F
:1026D000FB7903F00F03043B1201D2B20B441A76CC
:1026E00000BF0C37BD465DF8047B704700E100E099
:1026F00000ED00E080B489B000AFF860B9607A60A6
:10270000FB6803F00703FB61FB69C3F10703042BBC
:1027100028BF0423BB61FB690433062B02D9FB6984
:10272000033B00E000237B614FF0FF32BB6902FAFC
:1027300003F3DA43BB681A407B699A404FF0FF31DC
:102740007B6901FA03F3D9437B680B4013431846B6
:102750002437BD465DF8047B7047000080B582B029
:1027600000AF78607B68013BB3F1807F01D3012328
:102770000FE00A4A7B68013B53600F214FF0FF30A6
:10278000FFF78EFF054B00229A60044B07221A6068
:10279000002318460837BD4680BD00BF10E000E0AA
:1027A00080B582B000AF78607868FFF729FF00BF7E
:1027B0000837BD4680BD80B586B000AF0346B9601E
:1027C0007A60FB7300237B61FFF73EFF78617A68D4
:1027D000B9687869FFF78EFF024697F90F30114606
:1027E0001846FFF75DFF00BF1837BD4680BD80B5B6
:1027F00082B000AF0346FB7197F907301846FFF728
:1028000031FF00BF0837BD4680BD80B582B000AF44
:1028100078607868FFF7A2FF034618460837BD4680
:1028200080BD000080B586B000AF786000237B617A
:10283000FEF786FF38617B68002B01D1012399E008
:102840007B68022283F835207B68002283F83420DD
:102850007B681B681A687B681B6822F001021A609B
:102860000FE0FEF76DFF02463B69D31A052B08D92E
:102870007B6820225A657B68032283F83520032376
:1028800078E07B681B681B6803F00103002BE8D12C
:102890007B681B681B687B617A69384B13407B61DE
:1028A0007B685A687B689B681A437B68DB681A43BD
:1028B0007B681B691A437B685B691A437B689B6969
:1028C0001A437B68DB691A437B681B6A13437A6986
:1028D00013437B617B685B6A042B07D17B68DA6AF0
:1028E0007B681B6B13437A6913437B617B681B68AE
:1028F0007A691A607B681B685B697B617B6923F07E
:1029000007037B617B685B6A7A6913437B617B6841
:102910005B6A042B17D17B689B6A7A6913437B61DE
:102920007B68DB6A002B0ED0786800F001FB034661
:10293000002B08D07B6840225A657B68012283F80F
:102940003520012316E07B681B687A695A61786834
:1029500000F0B8FA0346FB607B68DB6D3F229A40CB
:10296000FB689A607B6800225A657B68012283F8C5
:102970003520002318461837BD4680BD3F8010F033
:1029800080B586B000AFF860B9607A603B60002324
:10299000FB75FB689B6D3B61FB6893F83430012B42
:1029A00001D1022340E0FB68012283F83420FB6858
:1029B00093F83530DBB2012B2FD1FB68022283F86C
:1029C0003520FB6800225A653B687A68B968F86868
:1029D00000F04AFAFB68DB6D3F229A403B699A603F
:1029E000FB681B681A68FB681B6842F016021A60D5
:1029F000FB681B6C002B07D0FB681B681A68FB6820
:102A00001B6842F008021A60FB681B681A68FB68C2
:102A10001B6842F001021A6005E0FB68002283F89F
:102A200034200223FB75FB7D18461837BD4680BD58
:102A300080B584B000AF78607B689B6DFB60FEF76B
:102A40007FFEB8607B6893F83530DBB2022B08D08C
:102A50007B6880225A657B68002283F8342001233A
:102A600052E07B681B681A687B681B6822F01602BC
:102A70001A607B681B685A697B681B6822F08002B9
:102A80005A617B681B6C002B03D17B689B6C002B0D
:102A900007D07B681B681A687B681B6822F00802F5
:102AA0001A607B681B681A687B681B6822F0010249
:102AB0001A6013E0FEF744FE0246BB68D31A052BEA
:102AC0000CD97B6820225A657B68032283F8352065
:102AD0007B68002283F83420032315E07B681B68A1
:102AE0001B6803F00103002BE4D17B68DB6D3F2200
:102AF0009A40FB689A607B68012283F835207B68E6
:102B0000002283F83420002318461037BD4680BDCC
:102B100080B483B000AF78607B6893F83530DBB267
:102B2000022B04D07B6880225A6501230CE07B686D
:102B3000052283F835207B681B681A687B681B6850
:102B400022F001021A60002318460C37BD465DF8DA
:102B5000047B704780B586B000AF78600023BB600F
:102B60008E4B1B688E4AA2FB03239B0A7B617B680A
:102B70009B6D3B613B691B68FB607B68DB6D0822DA
:102B80009A40FB681340002B1AD07B681B681B68B7
:102B900003F00403002B13D07B681B681A687B6862
:102BA0001B6822F004021A607B68DB6D08229A40E1
:102BB0003B699A607B685B6D43F001027B685A65F4
:102BC0007B68DB6D01229A40FB681340002B12D01A
:102BD0007B681B685B6903F08003002B0BD07B686C
:102BE000DB6D01229A403B699A607B685B6D43F024
:102BF00002027B685A657B68DB6D04229A40FB68A1
:102C00001340002B12D07B681B681B6803F0020383
:102C1000002B0BD07B68DB6D04229A403B699A60E5
:102C20007B685B6D43F004027B685A657B68DB6DF3
:102C300010229A40FB681340002B43D07B681B682E
:102C40001B6803F00803002B3CD07B68DB6D10226F
:102C50009A403B699A607B681B681B6803F4802379
:102C6000002B18D07B681B681B6803F40023002B23
:102C700008D17B681B6C002B24D07B681B6C7868A8
:102C800098471FE07B689B6C002B1BD07B689B6C7C
:102C90007868984716E07B681B681B6803F48073AC
:102CA000002B07D17B681B681A687B681B6822F0C1
:102CB00008021A607B681B6C002B03D07B681B6CBE
:102CC000786898477B68DB6D20229A40FB68134048
:102CD000002B00F08F807B681B681B6803F01003DB
:102CE000002B00F087807B68DB6D20229A403B69D7
:102CF0009A607B6893F83530DBB2052B36D17B6860
:102D00001B681A687B681B6822F016021A607B68D1
:102D10001B685A697B681B6822F080025A617B68D5
:102D20001B6C002B03D17B689B6C002B07D07B684E
:102D30001B681A687B681B6822F008021A607B68AF
:102D4000DB6D3F229A403B699A607B68012283F8E1
:102D500035207B68002283F834207B681B6D002BB4
:102D60007ED07B681B6D7868984779E07B681B682C
:102D70001B6803F48023002B1DD07B681B681B6835
:102D800003F40023002B0DD17B685B6C002B31D04A
:102D90007B685B6C786898472CE000BF04000020DB
:102DA000B5814E1B7B68DB6B002B23D07B68DB6B14
:102DB000786898471EE07B681B681B6803F4807383
:102DC000002B0FD17B681B681A687B681B6822F098
:102DD00010021A607B68012283F835207B6800228C
:102DE00083F834207B68DB6B002B03D07B68DB6BC4
:102DF000786898477B685B6D002B32D07B685B6D91
:102E000003F00103002B22D07B68052283F83520D4
:102E10007B681B681A687B681B6822F001021A60D5
:102E2000BB680133BB607A699A4207D37B681B6831
:102E30001B6803F00103002BF2D100E000BF7B68A8
:102E4000012283F835207B68002283F834207B68D8
:102E5000DB6C002B05D07B68DB6C7868984700E062
:102E600000BF1837BD4680BD80B485B000AFF860A4
:102E7000B9607A603B60FB681B681A68FB681B6876
:102E800022F480221A60FB681B683A685A60FB686B
:102E90009B68402B08D1FB681B687A689A60FB68C6
:102EA0001B68BA68DA6007E0FB681B68BA689A605A
:102EB000FB681B687A68DA6000BF1437BD465DF8AE
:102EC000047B704780B485B000AF78607B681B6876
:102ED000DBB2103B144AA2FB03231B09FB60134A1D
:102EE000FB6813441B781A467B68DA65FB68032B82
:102EF00009D97B681B6823F47F7323F003031A1D31
:102F00007B689A6507E07B681B6823F47F7323F076
:102F100003037A6893657B689B6D18461437BD463A
:102F20005DF8047B704700BFABAAAAAAE080000846
:102F300080B485B000AF78600023FB737B689B6A28
:102F4000BB607B689B69002B1FD1BB68032B56D8E5
:102F500001A252F823F000BF692F00087B2F000860
:102F6000692F0008FF2F00087B68DB6A03F080737D
:102F7000002B46D00123FB7343E07B68DB6AB3F18F
:102F8000C07F40D10123FB733DE07B689B69B3F5B3
:102F9000005F21D1BB68032B37D801A252F823F080
:102FA000B12F0008B72F0008B12F0008C92F000863
:102FB0000123FB7330E07B68DB6A03F08073002B36
:102FC00025D00123FB7322E07B68DB6AB3F1C07F6D
:102FD0001FD10123FB731CE0BB68022B03D9BB6824
:102FE000032B03D018E00123FB7315E07B68DB6A39
:102FF00003F08073002B0ED00123FB730BE000BFA6
:103000000AE000BF08E000BF06E000BF04E000BF28
:1030100002E000BF00E000BFFB7B18461437BD464E
:103020005DF8047B704700BF80B489B000AF786062
:10303000396000237B6100233B610023BB610023D7
:10304000FB616BE10122FB6902FA03F37B613B68E0
:103050001B687A6913403B613A697B699A4240F088
:103060005A813B685B6803F00303012B05D03B6882
:103070005B6803F00303022B30D17B689B68BB6164
:10308000FB695B00032202FA03F3DB43BA691340D6
:10309000BB613B68DA68FB695B0002FA03F3BA695B
:1030A0001343BB617B68BA699A607B685B68BB61EC
:1030B0000122FB6902FA03F3DB43BA691340BB61E7
:1030C0003B685B681B0903F00102FB6902FA03F32A
:1030D000BA691343BB617B68BA695A603B685B6835
:1030E00003F00303032B17D07B68DB68BB61FB692C
:1030F0005B00032202FA03F3DB43BA691340BB61AE
:103100003B689A68FB695B0002FA03F3BA691343F0
:10311000BB617B68BA69DA603B685B6803F00303F4
:10312000022B23D1FB69DA087B68083253F822307E
:10313000BB61FB6903F007039B000F2202FA03F354
:10314000DB43BA691340BB613B681A69FB6903F052
:1031500007039B0002FA03F3BA691343BB61FB69DF
:10316000DA087B680832B96943F822107B681B686B
:10317000BB61FB695B00032202FA03F3DB43BA691C
:103180001340BB613B685B6803F00302FB695B00B3
:1031900002FA03F3BA691343BB617B68BA691A6028
:1031A0003B685B6803F44033002B00F0B4800023DD
:1031B000FB60604B5B6C5F4A43F4804353645D4B40
:1031C0005B6C03F48043FB60FB685B4AFB699B0814
:1031D000023352F82330BB61FB6903F003039B0009
:1031E0000F2202FA03F3DB43BA691340BB617B6829
:1031F000524A93422BD07B68514A934225D07B6838
:10320000504A93421FD07B684F4A934219D07B6843
:103210004E4A934213D07B684D4A93420DD07B684F
:103220004C4A934207D07B684B4A934201D1072313
:103230000EE008230CE006230AE0052308E004233F
:1032400006E0032304E0022302E0012300E0002360
:10325000FA6902F0030292009340BA691343BB611A
:103260003549FB699B080233BA6941F823203B4B7F
:103270009B68BB613B69DB43BA691340BB613B6838
:103280005B6803F48013002B03D0BA693B691343D6
:10329000BB61324ABB699360304BDB68BB613B6901
:1032A000DB43BA691340BB613B685B6803F40013FE
:1032B000002B03D0BA693B691343BB61274ABB6942
:1032C000D360264B5B68BB613B69DB43BA69134043
:1032D000BB613B685B6803F40033002B03D0BA6921
:1032E0003B691343BB611D4ABB6953601B4B1B68A1
:1032F000BB613B69DB43BA691340BB613B685B68F8
:1033000003F48033002B03D0BA693B691343BB61DC
:10331000124ABB691360FB690133FB61FB690F2B28
:103320007FF690AE00BF00BF2437BD465DF8047B3A
:10333000704700BF003802400038014000000240E2
:103340000004024000080240000C0240001002404D
:103350000014024000180240001C0240003C0140E2
:1033600080B483B000AF78600B467B8013467B70DF
:103370007B78002B03D07A887B689A6103E07B8896
:103380001A047B689A6100BF0C37BD465DF8047B68
:103390007047000080B584B000AF78607B68002B78
:1033A00001D101232BE17B6893F83D30DBB2002B88
:1033B00006D17B68002283F83C207868FDF756FE32
:1033C0007B68242283F83D207B681B681A687B6831
:1033D0001B6822F001021A607B681B681A687B6810
:1033E0001B6842F400421A607B681B681A687B689D
:1033F0001B6822F400421A6001F08EFDF8607B68C1
:103400005B68814A934207D8FB68804A934294BF25
:1034100001230023DBB206E0FB687D4A934294BFA0
:1034200001230023DBB2002B01D00123E7E0FB687E
:10343000784AA2FB03239B0CBB607B681B685B681C
:1034400023F03F017B681B68BA680A435A607B68B7
:103450001B681B6A23F03F017B685B686A4A9342E2
:1034600002D8BB68013309E0BB684FF4967202FBD7
:1034700003F3694AA2FB03239B0901337A681268AC
:103480000B4313627B681B68DB6923F44F4222F015
:10349000FF027B685B685C498B4219D8FB68591E48
:1034A0007B685B685B00B1FBF3F3591C40F6FC736F
:1034B0000B40002B0AD0FB68591E7B685B685B00E1
:1034C000B1FBF3F30133C3F30B0351E004234FE0EB
:1034D0007B689B68002B11D1FB68581E7B6859687C
:1034E0000B465B000B44B0FBF3F30133C3F30B0358
:1034F000002B0CBF01230023DBB212E0FB68581E37
:103500007B6859680B469B000B4499000B44B0FB49
:10351000F3F30133C3F30B03002B0CBF0123002390
:10352000DBB2002B01D0012322E07B689B68002BDB
:103530000ED1FB68581E7B6859680B465B000B4434
:10354000B0FBF3F30133C3F30B0343F400430FE089
:10355000FB68581E7B6859680B469B000B4499001A
:103560000B44B0FBF3F30133C3F30B0343F44043C9
:10357000796809681343CB617B681B681B6823F07B
:10358000C0017B68DA697B681B6A1A437B681B6829
:103590000A431A607B681B689B6823F4034323F08B
:1035A000FF037A6811697A68D26811437A681268F1
:1035B0000B4393607B681B68DB6823F0FF017B682B
:1035C0005A697B689B691A437B681B680A43DA6007
:1035D0007B681B681A687B681B6842F001021A60EE
:1035E0007B6800221A647B68202283F83D207B6878
:1035F00000221A637B68002283F83E2000231846CD
:103600001037BD4680BD00BFA08601007F841E002C
:10361000FF083D0083DE1B43D34D621080B588B0A8
:1036200002AFF860084611461A4603467B810B46F6
:103630003B811346FB80FEF783F87861FB6893F8C3
:103640003D30DBB2202B40F0D9807B6900931923F9
:1036500001226D49F86800F0B9FD0346002B01D046
:103660000223CCE0FB6893F83C30012B01D102230C
:10367000C5E0FB68012283F83C20FB681B681B68DF
:1036800003F00103012B07D0FB681B681A68FB6875
:103690001B6842F001021A60FB681B681A68FB682D
:1036A0001B6822F400621A60FB68212283F83D2027
:1036B000FB68402283F83E20FB6800221A64FB6806
:1036C0003A6A5A62FB68BA8C5A85FB685B8D9AB27B
:1036D000FB681A85FB684D4ADA62F8883A8979896D
:1036E0007B690193BB6A00930346F86800F0F0FB26
:1036F0000346002B52D0012381E07A69B96AF86849
:1037000000F07EFE0346002B0DD0FB681B6C042BE3
:1037100007D1FB681B681A68FB681B6842F40072DB
:103720001A6001236BE0FB685B6A1A78FB681B6810
:103730001A61FB685B6A5A1CFB685A62FB681B8D46
:10374000013B9AB2FB681A85FB685B8D9BB2013B1B
:103750009AB2FB685A85FB681B685B6903F0040337
:10376000042B1BD1FB681B8D002B17D0FB685B6AF9
:103770001A78FB681B681A61FB685B6A5A1CFB6855
:103780005A62FB681B8D013B9AB2FB681A85FB6885
:103790005B8D9BB2013B9AB2FB685A85FB681B8D1F
:1037A000002BAAD17A69B96AF86800F071FE034665
:1037B000002B0DD0FB681B6C042B07D1FB681B682A
:1037C0001A68FB681B6842F400721A60012316E055
:1037D000FB681B681A68FB681B6842F400721A6079
:1037E000FB68202283F83D20FB68002283F83E20FE
:1037F000FB68002283F83C20002300E002231846E7
:103800001837BD4680BD00BF020010000000FFFF5A
:1038100080B58CB002AFF860084611461A460346E0
:103820007B810B463B811346FB80FDF789FF786265
:10383000FB6893F83D30DBB2202B40F014827B6AAA
:103840000093192301227B49F86800F0BFFC03466E
:10385000002B01D0022307E2FB6893F83C30012BD8
:1038600001D1022300E2FB68012283F83C20FB68BF
:103870001B681B6803F00103012B07D0FB681B6862
:103880001A68FB681B6842F001021A60FB681B683B
:103890001A68FB681B6822F400621A60FB68222227
:1038A00083F83D20FB68402283F83E20FB6800221D
:1038B0001A64FB683A6B5A62FB68BA8E5A85FB68D9
:1038C0005B8D9AB2FB681A85FB685B4ADA62F888FE
:1038D0003A8979897B6A0193BB6B00930346F86848
:1038E00000F08CFB0346002B01D00123BCE1FB68F8
:1038F0001B8D002B13D100233B62FB681B685B69A7
:103900003B62FB681B689B693B623B6AFB681B6808
:103910001A68FB681B6842F400721A6090E1FB6849
:103920001B8D012B1BD1FB681B681A68FB681B6889
:1039300022F480621A600023FB61FB681B685B69EC
:10394000FB61FB681B689B69FB61FB69FB681B688B
:103950001A68FB681B6842F400721A6070E1FB6829
:103960001B8D022B1BD1FB681B681A68FB681B6848
:1039700022F480621A60FB681B681A68FB681B6887
:1039800042F400621A600023BB61FB681B685B693C
:10399000BB61FB681B689B69BB61BB6950E100238D
:1039A0007B61FB681B685B697B61FB681B689B69CB
:1039B0007B617B6944E1FB681B8D032B00F2F18086
:1039C000FB681B8D012B23D17A6AB96BF86800F074
:1039D000A7FD0346002B01D0012345E1FB681B68CE
:1039E0001A69FB685B6AD2B21A70FB685B6A5A1C80
:1039F000FB685A62FB681B8D013B9AB2FB681A8513
:103A0000FB685B8D9BB2013B9AB2FB685A8517E15C
:103A1000FB681B8D022B4ED17B6A0093BB6B00228F
:103A20000649F86800F0D2FB0346002B08D00123BA
:103A30001AE100BF020010000000FFFF04000100B7
:103A4000FB681B681A68FB681B6842F400721A6006
:103A5000FB681B681A69FB685B6AD2B21A70FB6864
:103A60005B6A5A1CFB685A62FB681B8D013B9AB269
:103A7000FB681A85FB685B8D9BB2013B9AB2FB68C1
:103A80005A85FB681B681A69FB685B6AD2B21A70B8
:103A9000FB685B6A5A1CFB685A62FB681B8D013B22
:103AA0009AB2FB681A85FB685B8D9BB2013B9AB2A8
:103AB000FB685A85C4E07B6A0093BB6B00226C49AB
:103AC000F86800F083FB0346002B01D00123CBE014
:103AD000FB681B681A68FB681B6822F480621A6026
:103AE000FB681B681A69FB685B6AD2B21A70FB68D4
:103AF0005B6A5A1CFB685A62FB681B8D013B9AB2D9
:103B0000FB681A85FB685B8D9BB2013B9AB2FB6830
:103B10005A857B6A0093BB6B00225549F86800F018
:103B200055FB0346002B01D001239DE0FB681B6879
:103B30001A68FB681B6842F400721A60FB681B6815
:103B40001A69FB685B6AD2B21A70FB685B6A5A1C1E
:103B5000FB685A62FB681B8D013B9AB2FB681A85B1
:103B6000FB685B8D9BB2013B9AB2FB685A85FB6890
:103B70001B681A69FB685B6AD2B21A70FB685B6AE1
:103B80005A1CFB685A62FB681B8D013B9AB2FB68AA
:103B90001A85FB685B8D9BB2013B9AB2FB685A8524
:103BA0004EE07A6AB96BF86800F0BAFC0346002B65
:103BB00001D0012358E0FB681B681A69FB685B6A47
:103BC000D2B21A70FB685B6A5A1CFB685A62FB68C7
:103BD0001B8D013B9AB2FB681A85FB685B8D9BB21B
:103BE000013B9AB2FB685A85FB681B685B6903F06E
:103BF0000403042B24D1FB681B8D032B07D1FB6826
:103C00001B681A68FB681B6822F480621A60FB68F4
:103C10001B681A69FB685B6AD2B21A70FB685B6A40
:103C20005A1CFB685A62FB681B8D013B9AB2FB6809
:103C30001A85FB685B8D9BB2013B9AB2FB685A8583
:103C4000FB681B8D002B7FF4B6AEFB68202283F847
:103C50003D20FB68002283F83E20FB68002283F8A9
:103C60003C20002300E0022318462837BD4680BDD3
:103C70000400010080B58AB002AFF8607A603B6052
:103C80000B467B81FDF75CFDF8610023BB61FB689F
:103C900093F83D30DBB2202B40F01181FB6900939B
:103CA000192301228849F86800F090FA0346002B96
:103CB00001D0022304E1FB6893F83C30012B01D1D1
:103CC0000223FDE0FB68012283F83C20FB681B68AF
:103CD0001B6803F00103012B07D0FB681B681A68FF
:103CE000FB681B6842F001021A60FB681B681A68D7
:103CF000FB681B6822F400621A60FB68242283F8C8
:103D00003D20FB6800221A64FB68704ADA62FB6897
:103D10001B681A68FB681B6842F480721A60FB69B2
:103D200000933B6800224FF00111F86800F04EFA52
:103D30000346002B0DD0FB681B681B6803F48073DF
:103D4000B3F5807F03D1FB684FF400721A6403233C
:103D5000B6E07B89DBB21A46FB681B6802F0FE0204
:103D60001A61FDF7EDFCF861FB681B685B6903F005
:103D70000203022B0CBF01230023DBB2FB75FB689F
:103D80001B685B6903F48063B3F5806F0CBF01238C
:103D90000023DBB2BB7525E0FDF7D2FC0246FB69D0
:103DA000D31A3A689A4202D33B68002B03D1FB68CE
:103DB000A02283F83D20FB681B685B6903F00203C7
:103DC000022B0CBF01230023DBB2FB75FB681B68D1
:103DD0005B6903F48063B3F5806F0CBF012300239C
:103DE000DBB2BB75FB6893F83D30DBB2A02B05D08E
:103DF000FB7D002B02D1BB7D002BCDD0FB682022A8
:103E000083F83D20FB681B685B6903F00203022B0B
:103E100029D1FB681B681A68FB681B6842F40072B2
:103E20001A6000233B61FB681B685B693B61FB68B0
:103E30001B689B693B613B69FB6900931923012265
:103E40002149F86800F0C2F90346002B01D0012394
:103E500036E0FB68202283F83D20FB68002283F8CF
:103E60003C2000232CE0FB681B681A68FB681B6879
:103E700042F400721A60FB681B686FF480625A613A
:103E8000FB690093192301220F49F86800F09EF99D
:103E90000346002B01D0012312E0BB690133BB6153
:103EA000BA697B689A42FFF432AFFB68202283F83C
:103EB0003D20FB68002283F83C20012300E0022320
:103EC00018462037BD4680BD020010000000FFFFED
:103ED00080B588B002AFF860084611461A4603461E
:103EE0007B810B463B811346FB80FB681B681A688D
:103EF000FB681B6842F480721A607B6A00933B6A1D
:103F000000224FF00111F86800F060F90346002B21
:103F10000DD0FB681B681B6803F48073B3F5807FCA
:103F200003D1FB684FF400721A6403235FE07B89BE
:103F3000DBB21A46FB681B6802F0FE021A617B6A5C
:103F40003A6A2D49F86800F0BBF90346002B01D00E
:103F500001234CE000237B61FB681B685B697B618C
:103F6000FB681B689B697B617B697A6A396AF868C0
:103F700000F046FA0346002B0DD0FB681B6C042BA7
:103F800007D1FB681B681A68FB681B6842F4007263
:103F90001A6001232BE0FB88012B05D13B89DAB2A3
:103FA000FB681B681A6121E03B891B0A9BB2DAB2ED
:103FB000FB681B681A617A6A396AF86800F020FAAF
:103FC0000346002B0DD0FB681B6C042B07D1FB684C
:103FD0001B681A68FB681B6842F400721A600123B0
:103FE00005E03B89DAB2FB681B681A6100231846BA
:103FF0001837BD4680BD00BF0200010080B588B003
:1040000002AFF860084611461A4603467B810B460C
:104010003B811346FB80FB681B681A68FB681B68C2
:1040200042F480621A60FB681B681A68FB681B68B0
:1040300042F480721A607B6A00933B6A00224FF060
:104040000111F86800F0C2F80346002B0DD0FB68A0
:104050001B681B6803F48073B3F5807F03D1FB6892
:104060004FF400721A640323AAE07B89DBB21A467C
:10407000FB681B6802F0FE021A617B6A3A6A5249C9
:10408000F86800F01DF90346002B01D0012397E0EA
:1040900000237B61FB681B685B697B61FB681B68B5
:1040A0009B697B617B697A6A396AF86800F0A8F9D4
:1040B0000346002B0DD0FB681B6C042B07D1FB685B
:1040C0001B681A68FB681B6842F400721A600123BF
:1040D00076E0FB88012B05D13B89DAB2FB681B68CF
:1040E0001A6121E03B891B0A9BB2DAB2FB681B68AC
:1040F0001A617A6A396AF86800F082F90346002B7F
:104100000DD0FB681B6C042B07D1FB681B681A6879
:10411000FB681B6842F400721A60012350E03B897F
:10412000DAB2FB681B681A617A6A396AF86800F0CB
:1041300067F90346002B0DD0FB681B6C042B07D1DD
:10414000FB681B681A68FB681B6842F400721A60FF
:10415000012335E0FB681B681A68FB681B6842F4A2
:1041600080721A607B6A00933B6A00224FF0011153
:10417000F86800F02BF80346002B0DD0FB681B6895
:104180001B6803F48073B3F5807F03D1FB684FF4A1
:1041900000721A64032313E07B89DBB243F001034E
:1041A000DAB2FB681B681A617B6A3A6A0649F868EA
:1041B00000F086F80346002B01D0012300E0002325
:1041C00018461837BD4680BD0200010080B584B096
:1041D00000AFF860B9603B601346FB7148E03B6894
:1041E000B3F1FF3F44D0FDF7ABFA0246BB69D31AE7
:1041F0003A689A4202D33B68002B39D1BB681B0C4A
:10420000DBB2012B0DD1FB681B685B69DA43BB682D
:1042100013409BB2002B0CBF01230023DBB21A46D4
:104220000CE0FB681B689B69DA43BB6813409BB2D8
:10423000002B0CBF01230023DBB21A46FB799A4204
:1042400016D1FB6800221A63FB68202283F83D2008
:10425000FB68002283F83E20FB681B6C43F02002C1
:10426000FB681A64FB68002283F83C20012323E0EA
:10427000BB681B0CDBB2012B0DD1FB681B685B69B3
:10428000DA43BB6813409BB2002B0CBF0123002311
:10429000DBB21A460CE0FB681B689B69DA43BB681B
:1042A00013409BB2002B0CBF01230023DBB21A4644
:1042B000FB799A4293D0002318461037BD4680BD43
:1042C00080B584B000AFF860B9607A603B6071E09F
:1042D000FB681B685B6903F48063B3F5806F23D1CF
:1042E000FB681B681A68FB681B6842F400721A605E
:1042F000FB681B686FF480625A61FB6800221A63D6
:10430000FB68202283F83D20FB68002283F83E20D2
:10431000FB681B6C43F00402FB681A64FB68002214
:1043200083F83C20012367E07B68B3F1FF3F41D075
:10433000FDF706FA02463B68D31A7A689A4202D31E
:104340007B68002B36D1BB681B0CDBB2012B0CD178
:10435000FB681B685B69DA43BB6813409BB2002BA8
:1043600014BF01230023DBB20BE0FB681B689B69D1
:10437000DA43BB6813409BB2002B14BF0123002318
:10438000DBB2002B16D0FB6800221A63FB682022E8
:1043900083F83D20FB68002283F83E20FB681B6CFD
:1043A00043F02002FB681A64FB68002283F83C207B
:1043B000012321E0BB681B0CDBB2012B0CD1FB6895
:1043C0001B685B69DA43BB6813409BB2002B14BFC8
:1043D00001230023DBB20BE0FB681B689B69DA4317
:1043E000BB6813409BB2002B14BF01230023DBB238
:1043F000002B7FF46DAF002318461037BD4680BDFB
:1044000080B584B000AFF860B9607A6034E0F868D5
:1044100000F0E3F80346002B01D0012334E0BB6831
:10442000B3F1FF3F28D0FDF78BF902467B68D31A22
:10443000BA689A4202D3BB68002B1DD1FB681B6887
:104440005B6903F08003802B16D0FB6800221A639F
:10445000FB68202283F83D20FB68002283F83E2081
:10446000FB681B6C43F02002FB681A64FB680022A7
:1044700083F83C20012307E0FB681B685B6903F0BD
:104480008003802BC3D1002318461037BD4680BD62
:1044900080B584B000AFF860B9607A6034E0F86845
:1044A00000F09BF80346002B01D0012334E0BB68E9
:1044B000B3F1FF3F28D0FDF743F902467B68D31ADA
:1044C000BA689A4202D3BB68002B1DD1FB681B68F7
:1044D0005B6903F00403042B16D0FB6800221A6307
:1044E000FB68202283F83D20FB68002283F83E20F1
:1044F000FB681B6C43F02002FB681A64FB68002217
:1045000083F83C20012307E0FB681B685B6903F02C
:104510000403042BC3D1002318461037BD4680BDC9
:1045200080B584B000AFF860B9607A6049E0FB689C
:104530001B685B6903F01003102B19D1FB681B6823
:104540006FF010025A61FB6800221A63FB68202298
:1045500083F83D20FB68002283F83E20FB681A6C3C
:10456000FB681A64FB68002283F83C20012330E0DA
:10457000FDF7E6F802467B68D31ABA689A4202D37E
:10458000BB68002B1DD1FB681B685B6903F040030F
:10459000402B16D0FB6800221A63FB68202283F8A8
:1045A0003D20FB68002283F83E20FB681B6C43F033
:1045B0002002FB681A64FB68002283F83C20012378
:1045C00007E0FB681B685B6903F04003402BAED13A
:1045D000002318461037BD4680BD80B483B000AFBD
:1045E00078607B681B685B6903F48063B3F5806F58
:1045F0001BD17B681B686FF480625A617B68002264
:104600001A637B68202283F83D207B68002283F8B0
:104610003E207B681B6C43F004027B681A647B6855
:10462000002283F83C20012300E0002318460C37C9
:10463000BD465DF8047B704780B586B000AF7860FA
:104640007B68002B01D1012367E27B681B6803F0C4
:104650000103002B75D0884B9B6803F00C03042BDF
:104660000CD0854B9B6803F00C03082B12D1824BB6
:104670005B6803F48003B3F5800F0BD17E4B1B689E
:1046800003F40033002B5BD07B685B68002B57D1B1
:10469000012342E27B685B68B3F5803F06D1764B2D
:1046A0001B68754A43F4803313601DE07B685B68C8
:1046B000B3F5A02F0CD1704B1B686F4A43F48023D5
:1046C00013606D4B1B686C4A43F4803313600BE03E
:1046D000694B1B68684A23F480331360664B1B6880
:1046E000654A23F4802313607B685B68002B13D03A
:1046F000FDF726F8386108E0FDF722F802463B692D
:10470000D31A642B01D9032307E25B4B1B6803F424
:104710000033002BF0D014E0FDF712F8386108E008
:10472000FDF70EF802463B69D31A642B01D9032327
:10473000F3E1514B1B6803F40033002BF0D100E090
:1047400000BF7B681B6803F00203002B63D04A4B59
:104750009B6803F00C03002B0BD0474B9B6803F0C6
:104760000C03082B1CD1444B5B6803F48003002B23
:1047700016D1414B1B6803F00203002B05D07B6868
:10478000DB68012B01D00123C7E13B4B1B6823F001
:10479000F8027B681B69DB00374913430B603AE082
:1047A0007B68DB68002B20D0344B01221A60FCF7B9
:1047B000C7FF386108E0FCF7C3FF02463B69D31A24
:1047C000022B01D90323A8E12B4B1B6803F0020342
:1047D000002BF0D0284B1B6823F0F8027B681B6984
:1047E000DB00254913430B6015E0244B00221A60BF
:1047F000FCF7A6FF386108E0FCF7A2FF02463B6920
:10480000D31A022B01D9032387E11B4B1B6803F04A
:104810000203002BF0D17B681B6803F00803002B18
:1048200036D07B685B69002B16D0154B01221A60CD
:10483000FCF786FF386108E0FCF782FF02463B691F
:10484000D31A022B01D9032367E10B4B5B6F03F0F3
:104850000203002BF0D01BE0094B00221A60FCF78A
:104860006FFF38610EE0FCF76BFF02463B69D31A1D
:10487000022B07D9032350E10038024000004742D1
:10488000800E4742884B5B6F03F00203002BEAD196
:104890007B681B6803F00403002B00F09780002363
:1048A000FB75814B1B6C03F08053002B0FD1002351
:1048B000BB607D4B1B6C7C4A43F0805313647A4B86
:1048C0001B6C03F08053BB60BB680123FB75774B07
:1048D0001B6803F48073002B18D1744B1B68734A58
:1048E00043F480731360FCF72BFF386108E0FCF79A
:1048F00027FF02463B69D31A022B01D903230CE19F
:104900006A4B1B6803F48073002BF0D07B689B68B4
:10491000012B06D1644B1B6F634A43F001031367FD
:104920001CE07B689B68052B0CD15F4B1B6F5E4ABC
:1049300043F0040313675C4B1B6F5B4A43F00103B6
:1049400013670BE0584B1B6F574A23F001031367A3
:10495000554B1B6F544A23F0040313677B689B6815
:10496000002B15D0FCF7ECFE38610AE0FCF7E8FEFE
:1049700002463B69D31A41F28832934201D903239C
:10498000CBE0494B1B6F03F00203002BEED014E089
:10499000FCF7D6FE38610AE0FCF7D2FE02463B691E
:1049A000D31A41F28832934201D90323B5E03E4B3A
:1049B0001B6F03F00203002BEED1FB7D012B05D111
:1049C000394B1B6C384A23F0805313647B689B6916
:1049D000002B00F0A180344B9B6803F00C03082BE4
:1049E0005CD07B689B69022B41D1314B00221A605D
:1049F000FCF7A6FE386108E0FCF7A2FE02463B6920
:104A0000D31A022B01D9032387E0274B1B6803F03D
:104A10000073002BF0D17B68DA697B681B6A1A434C
:104A20007B685B6A9B011A437B689B6A5B08013B5E
:104A30001B041A437B68DB6A1B061B4913434B604C
:104A40001B4B01221A60FCF77BFE386108E0FCF783
:104A500077FE02463B69D31A022B01D903235CE09F
:104A6000114B1B6803F00073002BF0D054E0104B87
:104A700000221A60FCF764FE386108E0FCF760FE73
:104A800002463B69D31A022B01D9032345E0064BAA
:104A90001B6803F00073002BF0D13DE07B689B693D
:104AA000012B07D1012338E000380240007000409C
:104AB000600047421B4B5B68FB607B689B69012B76
:104AC00028D0FB6803F480027B68DB699A4221D11D
:104AD000FB6803F03F027B681B6A9A421AD1FA68AE
:104AE00047F6C07313407A68526A9201934211D11B
:104AF000FB6803F440327B689B6A5B08013B1B0444
:104B00009A4207D1FB6803F070627B68DB6A1B0680
:104B10009A4201D0012300E0002318461837BD4611
:104B200080BD00BF0038024080B584B000AF78601F
:104B300039607B68002B01D10123CCE0684B1B68F6
:104B400003F007033A689A420CD9654B3A68D2B22F
:104B50001A70634B1B6803F007033A689A4201D04E
:104B60000123B8E07B681B6803F00203002B20D010
:104B70007B681B6803F00403002B05D0594B9B682E
:104B8000584A43F4E05393607B681B6803F00803C2
:104B9000002B05D0534B9B68524A43F4604393600B
:104BA000504B9B6823F0F0027B689B684D49134390
:104BB0008B607B681B6803F00103002B44D07B688B
:104BC0005B68012B07D1474B1B6803F40033002BB4
:104BD00019D101237FE07B685B68022B03D07B68DF
:104BE0005B68032B07D13F4B1B6803F00073002B5E
:104BF00009D101236FE03B4B1B6803F00203002B3C
:104C000001D1012367E0374B9B6823F003027B68E7
:104C10005B68344913438B60FCF792FDF8600AE04F
:104C2000FCF78EFD0246FB68D31A41F288329342AC
:104C300001D903234FE02B4B9B6803F00C027B68E8
:104C40005B689B009A42EBD1254B1B6803F007037E
:104C50003A689A420CD2224B3A68D2B21A70204B70
:104C60001B6803F007033A689A4201D0012332E03F
:104C70007B681B6803F00403002B08D0194B9B686A
:104C800023F4E0527B68DB68164913438B607B6832
:104C90001B6803F00803002B09D0124B9B6823F418
:104CA00060427B681B69DB000E4913438B6000F098
:104CB00021F802460B4B9B681B0903F00F030A49BE
:104CC000CB5C22FA03F3094A1360094B1B681846B0
:104CD000FCF7F2FC002318461037BD4680BD00BF2C
:104CE000003C024000380240C88000080400002058
:104CF000080000202DE9B04F94B000AF00237B6482
:104D00000023FB6400233B640023BB64794B9B6856
:104D100003F00C03082B0DD0082B00F2E180002BD0
:104D200002D0042B03D0DBE0734BBB64DBE0734B9E
:104D3000BB64D8E06F4B5B6803F03F037B646D4B53
:104D40005B6803F48003002B63D06A4B5B689B09AC
:104D50000022BB63FA63BB6BC3F308033B6300230E
:104D60007B63D7E90C4522462B464FF000004FF0FD
:104D70000001590141EAD261500102460B46214629
:104D8000511A3961294663EB01037B614FF0000240
:104D90004FF00003D7E904AB59468B01514643EA73
:104DA000916351468A015146B2EB0108594663EBC3
:104DB00001094FF000024FF000034FEAC90343EA34
:104DC00058734FEAC80290469946234618EB0303EE
:104DD000BB602B4649EB0303FB604FF000024FF032
:104DE0000003D7E9024529464B02214643EAD15345
:104DF00021464A02104619467B6C0022BB62FA62C9
:104E0000D7E90A23FBF734FA02460B461346FB6444
:104E100058E0384B5B689B09002218461146C0F3E6
:104E200008033B6200237B62D7E9088942464B4670
:104E30004FF000004FF00001590141EAD2615001EA
:104E400002460B464146B2EB010A494663EB010BB1
:104E50004FF000024FF000034FEA8B1343EA9A63CE
:104E60004FEA8A12B2EB0A0463EB0B054FF0000223
:104E70004FF00003EB0043EA5473E20014461D4672
:104E80004346E3183B604B4645EB03037B604FF022
:104E900000024FF00003D7E9004529468B02214666
:104EA00043EA915321468A02104619467B6C002240
:104EB000BB61FA61D7E90623FBF7DAF902460B4634
:104EC0001346FB640B4B5B681B0C03F003030133BD
:104ED0005B003B64FA6C3B6CB2FBF3F3BB6402E037
:104EE000054BBB6400BFBB6C18465037BD46BDE8E0
:104EF000B08F00BF003802400024F40000127A0096
:104F000080B400AF034B1B681846BD465DF8047BB8
:104F1000704700BF0400002080B500AFFFF7F0FF2E
:104F20000246054B9B689B0A03F007030349CB5CD1
:104F300022FA03F3184680BD00380240D8800008EA
:104F400080B500AFFFF7DCFF0246054B9B685B0BAB
:104F500003F007030349CB5C22FA03F3184680BD34
:104F600000380240D880000880B582B000AF786079
:104F70007B68002B01D1012341E07B6893F83D3031
:104F8000DBB2002B06D17B68002283F83C207868D6
:104F9000FCF7E8F87B68022283F83D207B681A68FA
:104FA0007B6804331946104600F0D8FA7B6801226A
:104FB00083F846207B68012283F83E207B6801222B
:104FC00083F83F207B68012283F840207B68012220
:104FD00083F841207B68012283F842207B6801220C
:104FE00083F843207B68012283F844207B680122F8
:104FF00083F845207B68012283F83D200023184672
:105000000837BD4680BD80B582B000AF78607B6850
:10501000002B01D1012341E07B6893F83D30DBB2E6
:10502000002B06D17B68002283F83C20786800F0D2
:1050300039F87B68022283F83D207B681A687B6818
:1050400004331946104600F089FA7B68012283F880
:1050500046207B68012283F83E207B68012283F88A
:105060003F207B68012283F840207B68012283F87F
:1050700041207B68012283F842207B68012283F86B
:1050800043207B68012283F844207B68012283F857
:1050900045207B68012283F83D200023184608370D
:1050A000BD4680BD80B483B000AF786000BF0C37D0
:1050B000BD465DF8047B704780B584B000AF786072
:1050C00039603B68002B09D17B6893F83E30DBB236
:1050D000012B14BF01230023DBB222E03B68042B29
:1050E00009D17B6893F83F30DBB2012B14BF012359
:1050F0000023DBB215E03B68082B09D17B6893F8ED
:105100004030DBB2012B14BF01230023DBB208E0E7
:105110007B6893F84130DBB2012B14BF01230023DD
:10512000DBB2002B01D001237CE03B68002B04D1D3
:105130007B68022283F83E2013E03B68042B04D1F5
:105140007B68022283F83F200BE03B68082B04D1E8
:105150007B68022283F8402003E07B68022283F808
:1051600041207B681B6801223968184600F0E6FC84
:105170007B681B682D4A934204D07B681B682C4ACD
:10518000934201D1012300E00023002B07D07B686C
:105190001B685A6C7B681B6842F400425A647B6847
:1051A0001B68224A934222D07B681B68B3F1804F70
:1051B0001DD07B681B681F4A934218D07B681B6810
:1051C0001D4A934213D07B681B681C4A93420ED041
:1051D0007B681B68164A934209D07B681B68184A93
:1051E000934204D07B681B68164A934211D17B68B6
:1051F0001B689B6803F00703FB60FB68062B10D05D
:105200007B681B681A687B681B6842F001021A60A1
:1052100007E07B681B681A687B681B6842F0010224
:105220001A60002318461037BD4680BD00000140BB
:10523000000401400004004000080040000C004051
:10524000004001400018004080B586B000AFF86013
:10525000B9607A600023FB75FB6893F83C30012B42
:1052600001D10223AEE0FB68012283F83C207B6879
:105270000C2B00F29F8001A252F823F0B1520008DB
:10528000B5530008B5530008B5530008F1520008A3
:10529000B5530008B5530008B55300083353000850
:1052A000B5530008B5530008B55300087353000800
:1052B000FB681B68B968184600F0F6F9FB681B68C4
:1052C0009A69FB681B6842F008029A61FB681B68D8
:1052D0009A69FB681B6822F004029A61FB681B68EC
:1052E0009969BB681A69FB681B680A439A6164E0A4
:1052F000FB681B68B968184600F046FAFB681B6833
:105300009A69FB681B6842F400629A61FB681B683B
:105310009A69FB681B6822F480629A61FB681B68CB
:105320009969BB681B691A02FB681B680A439A618A
:1053300043E0FB681B68B968184600F09BFAFB68FD
:105340001B68DA69FB681B6842F00802DA61FB68D7
:105350001B68DA69FB681B6822F00402DA61FB68EB
:105360001B68D969BB681A69FB681B680A43DA6164
:1053700023E0FB681B68B968184600F0EFFAFB6889
:105380001B68DA69FB681B6842F40062DA61FB683B
:105390001B68DA69FB681B6822F48062DA61FB68CB
:1053A0001B68D969BB681B691A02FB681B680A4342
:1053B000DA6102E00123FB7500BFFB68002283F87D
:1053C0003C20FB7D18461837BD4680BD80B584B0B3
:1053D00000AF786039600023FB737B6893F83C3042
:1053E000012B01D10223B4E07B68012283F83C2029
:1053F0007B68022283F83D207B681B689B68BB604A
:10540000BB6823F07703BB60BB6823F47F43BB60BA
:105410007B681B68BA689A603B681B68B3F5005FDD
:105420003ED0B3F5005F00F28780B3F5805F00F0F7
:105430008680B3F5805F7FD8702B1AD0702B7BD815
:10544000602B50D0602B77D8502B3CD0502B73D88A
:10545000402B58D0402B6FD8302B64D0302B6BD8DA
:10546000202B60D0202B67D8002B5CD0102B5AD07B
:1054700062E07B6818683B6899683B685A683B68DB
:10548000DB6800F03BFB7B681B689B68BB60BB680C
:1054900043F07703BB607B681B68BA689A604FE093
:1054A0007B6818683B6899683B685A683B68DB68AA
:1054B00000F024FB7B681B689A687B681B6842F4D9
:1054C00080429A603CE07B6818683B6859683B689A
:1054D000DB681A4600F098FA7B681B685021184672
:1054E00000F0F1FA2CE07B6818683B6859683B686B
:1054F000DB681A4600F0B7FA7B681B686021184623
:1055000000F0E1FA1CE07B6818683B6859683B686A
:10551000DB681A4600F078FA7B681B684021184661
:1055200000F0D1FA0CE07B681A683B681B681946EA
:10553000104600F0C8FA03E00123FB7300E000BF4F
:105540007B68012283F83D207B68002283F83C20A1
:10555000FB7B18461037BD4680BD000080B485B087
:1055600000AF786039607B681B68FB607B68434AEA
:10557000934213D07B68B3F1804F0FD07B68404AD1
:1055800093420BD07B683F4A934207D07B683E4AE8
:10559000934203D07B683D4A934208D1FB6823F0D5
:1055A0007003FB603B685B68FA681343FB607B68D1
:1055B000324A93422BD07B68B3F1804F27D07B686F
:1055C0002F4A934223D07B682E4A93421FD07B6898
:1055D0002D4A93421BD07B682C4A934217D07B689C
:1055E0002B4A934213D07B682A4A93420FD07B68A0
:1055F000294A93420BD07B68284A934207D07B68A4
:10560000274A934203D07B68264A934208D1FB681D
:1056100023F44073FB603B68DB68FA681343FB606C
:10562000FB6823F080023B685B691343FB603B68C7
:105630009A687B68DA623B681A687B689A627B6862
:105640000E4A934203D07B68104A934203D13B68D1
:105650001A697B681A637B681B6843F004027B68E5
:105660001A607B6801225A617B68FA681A6000BF81
:105670001437BD465DF8047B704700BF0000014051
:105680000004004000080040000C004000040140FD
:105690000040014000440140004801400018004023
:1056A000001C00400020004080B487B000AF78604C
:1056B00039607B681B6A7B617B681B6A23F001028F
:1056C0007B681A627B685B683B617B689B69FB60F7
:1056D000FB6823F07003FB60FB6823F00303FB60AF
:1056E0003B681B68FA681343FB607B6923F0020385
:1056F0007B613B689B687A6913437B617B68204AC6
:10570000934203D07B681F4A93420CD17B6923F0FC
:1057100008037B613B68DB687A6913437B617B69C3
:1057200023F004037B617B68154A934203D07B68B6
:10573000144A934211D13B6923F480733B613B6966
:1057400023F400733B613B685B693A6913433B6137
:105750003B689B693A6913433B617B683A695A60CD
:105760007B68FA689A613B685A687B685A637B6811
:105770007A691A6200BF1C37BD465DF8047B70472A
:10578000000001400004014080B487B000AF7860A1
:1057900039607B681B6A7B617B681B6A23F010029F
:1057A0007B681A627B685B683B617B689B69FB6016
:1057B000FB6823F4E043FB60FB6823F44073FB6069
:1057C0003B681B681B02FA681343FB607B6923F08C
:1057D00020037B613B689B681B017A6913437B61F3
:1057E0007B68224A934203D07B68214A93420DD1C1
:1057F0007B6923F080037B613B68DB681B017A696E
:1058000013437B617B6923F040037B617B68174A0C
:10581000934203D07B68164A934213D13B6923F429
:1058200080633B613B6923F400633B613B685B69D8
:105830009B003A6913433B613B689B699B003A6953
:1058400013433B617B683A695A607B68FA689A61E6
:105850003B685A687B689A637B687A691A6200BF02
:105860001C37BD465DF8047B704700BF0000014057
:105870000004014080B487B000AF786039607B6875
:105880001B6A7B617B681B6A23F480727B681A62E7
:105890007B685B683B617B68DB69FB60FB6823F0CE
:1058A0007003FB60FB6823F00303FB603B681B682D
:1058B000FA681343FB607B6923F400737B613B68E8
:1058C0009B681B027A6913437B617B68214A934280
:1058D00003D07B68204A93420DD17B6923F4006397
:1058E0007B613B68DB681B027A6913437B617B69E0
:1058F00023F480637B617B68164A934203D07B6804
:10590000154A934213D13B6923F480533B613B69B1
:1059100023F400533B613B685B691B013A69134305
:105920003B613B689B691B013A6913433B617B68A0
:105930003A695A607B68FA68DA613B685A687B6842
:10594000DA637B687A691A6200BF1C37BD465DF86E
:10595000047B7047000001400004014080B487B020
:1059600000AF786039607B681B6A3B617B681B6AAB
:1059700023F480527B681A627B685B687B617B687A
:10598000DB69FB60FB6823F4E043FB60FB6823F406
:105990004073FB603B681B681B02FA681343FB60A3
:1059A0003B6923F400533B613B689B681B033A69E6
:1059B00013433B617B68124A934203D07B68114AD0
:1059C000934209D17B6923F480437B613B685B6927
:1059D0009B017A6913437B617B687A695A607B68B3
:1059E000FA68DA613B685A687B681A647B683A69CE
:1059F0001A6200BF1C37BD465DF8047B704700BFCC
:105A0000000001400004014080B487B000AFF8609E
:105A1000B9607A60FB681B6A7B61FB681B6A23F0D4
:105A20000102FB681A62FB689B693B613B6923F0DA
:105A3000F0033B617B681B013A6913433B617B695F
:105A400023F00A037B617A69BB6813437B61FB68BF
:105A50003A699A61FB687A691A6200BF1C37BD46D1
:105A60005DF8047B704780B487B000AFF860B96020
:105A70007A60FB681B6A7B61FB681B6A23F010027B
:105A8000FB681A62FB689B693B613B6923F47043C6
:105A90003B617B681B033A6913433B617B6923F0DD
:105AA000A0037B61BB681B017A6913437B61FB68C0
:105AB0003A699A61FB687A691A6200BF1C37BD4671
:105AC0005DF8047B704780B485B000AF78603960C2
:105AD0007B689B68FB60FB6823F07003FB603A689F
