:020000040800F2
:1000000000000220212C0008D5280008DD28000867
:10001000E5280008ED280008F52800080000000089
:10002000000000000000000000000000FD280008A3
:100030000B290008000000001929000827290008E2
:10004000712C0008712C0008712C0008712C00081C
:10005000712C0008712C0008712C0008712C00080C
:10006000712C0008712C0008712C0008712C0008FC
:10007000712C0008712C0008712C0008712C0008EC
:10008000712C0008712C000835290008712C00081B
:10009000712C0008712C0008712C0008712C0008CC
:1000A000712C0008712C0008712C0008712C0008BC
:1000B000712C0008712C0008712C0008712C0008AC
:1000C000712C0008712C0008712C0008712C00089C
:1000D000712C0008712C000849290008712C0008B7
:1000E000712C0008712C0008712C0008712C00087C
:1000F000712C0008712C0008712C0008712C00086C
:10010000712C0008712C0008712C0008712C00085B
:10011000712C0008712C0008712C0008712C00084B
:100120005D290008712C0008712C0008712C000852
:10013000712C0008712C0008712C0008712C00082B
:10014000712C0008712C0008712C0008712C00081B
:10015000712C0008712C0008712C0008712C00080B
:10016000712C0008712C0008712C0008712C0008FB
:10017000712C0008712C0008712C00080000000090
:08018000712C0008712C00082D
:1001900010B5054C237833B9044B13B10448AFF3C1
:1001A00000800123237010BD8400002000000000A7
:1001B000B493000808B5034B1BB103490348AFF3E0
:1001C000008008BD0000000088000020B4930008F3
:1001D00010F8012B11F8013B012A28BF9A42F7D0F1
:1001E000D01A70470000000000000000000000006E
:1001F00001F0FF01102A2BDB10F0070F08D010F8D8
:10020000013B013A8B422DD010F0070F42B3F6D1DB
:10021000F0B441EA012141EA014122F007047FF0F4
:1002200000070023F0E80256083C85EA010586EA4B
:10023000010685FA47F5A3FA87F586FA47F6A5FA87
:1002400087F68EB9EED1F0BC01F0FF0102F0070293
:1002500032B110F8013B013A83EA010313B1F8D13E
:100260000020704701387047002D06BF354603381F
:10027000073815F0010F07D1013015F4807F02BF58
:10028000013015F4C03F0130F0BC0138704700BFA9
:100290007BB972B90029BEBF00204FF0004106E0D3
:1002A00008BF00281CBF6FF000414FF0FF3000F086
:1002B000D3B9ADF1080C6DE904CE002909DB002BA0
:1002C0001ADB00F04DF8DDF804E0DDE9022304B0AC
:1002D0007047404261EB4101002B1BDB00F040F80E
:1002E000DDF804E0DDE9022304B0404261EB4101A6
:1002F000524263EB43037047524263EB430300F007
:100300002FF8DDF804E0DDE9022304B0404261EBA0
:1003100041017047524263EB430300F021F8DDF8DE
:1003200004E0DDE9022304B0524263EB430370476B
:1003300053B94AB9002908BF00281CBF4FF0FF314C
:100340004FF0FF3000F088B9ADF1080C6DE904CE34
:1003500000F006F8DDF804E0DDE9022304B07047A0
:100360002DE9F047089D8E4604468846002B4AD169
:100370008A42174662D9B2FA82F64EB1C6F120031C
:1003800001FA06F820FA03F3B74043EA0808B4403C
:100390004FEA174E1FFA87FCB8FBFEF1230C0EFB49
:1003A000118843EA084301FB0CF29A4209D9FB1871
:1003B00001F1FF3080F0EA809A4240F2E780023992
:1003C0003B449A1AA3B2B2FBFEF00EFB102243EAA2
:1003D000024300FB0CFC9C4509D9FB1800F1FF32DD
:1003E00080F0D6809C4540F2D3803B44023840EAFE
:1003F0000140A3EB0C0300211DB1F3400022C5E92D
:100400000032BDE8F0878B4205D90DB1C5E9000186
:1004100000210846F5E7B3FA83F1002946D1734578
:1004200002D3824200F20581841A6EEB030201209E
:100430009046002DE5D0C5E90048E2E7002A00F02B
:100440009080B2FA82F6002E40F0A4808A1A030C43
:100450004FEA174E80B2BCB20121B2FBFEFC0EFB8C
:100460001C2243EA024304FB0CF29A4207D9FB1810
:100470000CF1FF3802D29A4200F2E080C4469B1A87
:10048000B3FBFEF20EFB123340EA034302FB04F41B
:100490009C4207D9FB1802F1FF3002D29C4200F2C5
:1004A000CA8002461B1B42EA0C40A5E7C1F12006A8
:1004B0008B4022FA06F71F430EFA01F420FA06F3E6
:1004C0002EFA06FE4FEA1749234300FA01F81FFAF5
:1004D00087FCBEFBF9F01C0C09FB10EE44EA0E444D
:1004E00000FB0CFEA64502FA01F209D93C1900F105
:1004F000FF3A80F09C80A64540F2998002383C4447
:10050000A4EB0E041FFA83FEB4FBF9F309FB1344BA
:100510004EEA044403FB0CFCA44508D93C1903F142
:10052000FF3E80F08280A4457FD9023B3C4443EAF1
:100530000040A4EB0C04A0FB02EC64457346E146CA
:1005400062D35FD05DB1B8EB030264EB090404FA37
:1005500006F622FA01F31E43CC40C5E900640021EF
:100560004FE7B1FBF2FC010C41EA0E4180B240EAD8
:1005700001423B4638463C46B846BE462026B1FBC3
:10058000F7F1A2EB080241EA0C4166E7014618E7E1
:1005900010462CE7C6F120022EFA02F3B740B14014
:1005A00020FA02F24FEA174E0A43B3FBFEF8BCB240
:1005B0000EFB1833110C41EA034108FB04F9B0406B
:1005C00089454FEA104380B23ED9791808F1FF3CC3
:1005D00001D289451FD8A1EB0901B1FBFEF909FB46
:1005E00004F80EFB191192B242EA0142424529D2A7
:1005F000BA1809F1FF31C4D24245C2D2A9F10201B1
:100600003A44BEE7F0459DD2BEEB02036CEB070C0B
:100610000138E14696E7A7EB09094944A8F1020C25
:10062000B1FBFEF909FB04F8DBE773467FE75046B0
:1006300066E70846FDE63B44023A33E7ACF1020CBC
:100640003B441CE749469CE7A1EB0901C446B1FBCA
:10065000FEF909FB04F8C4E7704700BF80B586B017
:1006600000AF87ED010AD7ED017A9FED3A7AF4EEFB
:10067000C77AF1EE10FA0DDD01228021364804F030
:100680006FF900224FF48071334804F069F97B68F8
:100690007B6129E0D7ED017A9FED307AF4EEC77ADD
:1006A000F1EE10FA11D5002280212B4804F058F900
:1006B00001224FF48071284804F052F9D7ED017AF5
:1006C000F1EE677AC7ED057A0EE00122802122481B
:1006D00004F046F901224FF480711F4804F040F9FC
:1006E0001F4B6E225A6332E0D7ED057A9FED1D7ADB
:1006F000F4EEC77AF1EE10FA01DD1B4B7B611B4B68
:100700001B68C3F1C80307EE903AF8EEE77AC7ED2D
:10071000047A164B1B6807EE903AB8EEE77AD7EDED
:10072000057A9FED106AC7EE866AD7ED047A66EE09
:10073000A77A77EE277AC7ED037AD7ED037AFCEE36
:10074000E77A17EE903ABB60054ABB6853631837E7
:10075000BD4680BD0AD7233C001002400AD723BC07
:100760000000014000004843000048430C00002006
:1007700080B586B000AF87ED010AD7ED017A9FED15
:100780003D7AF4EEC77AF1EE10FA0EDD01224FF455
:100790000071394804F0E4F800224FF480613648D3
:1007A00004F0DEF87B687B612CE0D7ED017A9FEDE9
:1007B000337AF4EEC77AF1EE10FA12D500224FF434
:1007C00000712D4804F0CCF801224FF480612A48D2
:1007D00004F0C6F8D7ED017AF1EE677AC7ED057A35
:1007E00010E001224FF40071234804F0B9F801220F
:1007F0004FF48061204804F0B3F84FF080436E223C
:100800005A6333E0D7ED057A9FED1D7AF4EEC77A8F
:10081000F1EE10FA01DD1B4B7B611B4B1B68C3F132
:10082000C80307EE903AF8EEE77AC7ED047A164B64
:100830001B6807EE903AB8EEE77AD7ED057A9FEDA0
:10084000106AC7EE866AD7ED047A66EEA77A77EE6D
:10085000277AC7ED037AD7ED037AFCEEE77A17EE35
:10086000903ABB604FF08042BB6853631837BD4677
:1008700080BD00BF0AD7233C001002400AD723BC2A
:1008800000004843000048430C00002080B584B0BD
:1008900000AF0523BB81204B3B6002F051FAB860EA
:1008A0001E4B1B88FB81B1EE040AFFF7D7FE6420C4
:1008B00002F052FA194B1B88FB80FA88FB89D31A85
:1008C00083EAE372A2EBE372BB899A420DDC9FEDEF
:1008D000140AFFF7C3FE134AFB8813803B461A46EF
:1008E0004C21114800F0A0FF0EE0FB88FB8102F0D4
:1008F00027FA0246BB68D31A41F288329342D6D90E
:100900009FED070AFFF7AAFE3B6807EE903AB0EEAC
:10091000670A1037BD4680BD000080BF88020020F6
:1009200000000000020000205C01002080B584B0BF
:1009300000AF0523BB81204B3B6002F001FAB86099
:100940001E4B5B88FB81B1EE040AFFF711FF6420A8
:1009500002F002FA194B5B88FB80FA88FB89D31AF4
:1009600083EAE372A2EBE372BB899A420DDC9FED4E
:10097000140AFFF7FDFE134AFB8813803B461A4614
:100980004221114800F050FF0EE0FB88FB8102F08D
:10099000D7F90246BB68D31A41F288329342D6D9BE
:1009A0009FED070AFFF7E4FE3B6807EE903AB0EED2
:1009B000670A1037BD4680BD000080BF8802002056
:1009C00000000000120000205C01002080B400AF95
:1009D0000E4B1B881A460E4B1B881344DA0F134428
:1009E0005B109AB20B4B1A800B4B1B881A460B4BB1
:1009F0001B881344DA0F13445B109AB2084B1A8019
:100A000000BFBD465DF8047B704700BF00000020BA
:100A100002000020A0000020100000201200002092
:100A2000A800002080B584B000AF0523BB81204B17
:100A30003B6002F085F9B8601E4B5B88FB81B9EE24
:100A4000040AFFF795FE642002F086F9194B5B88D3
:100A5000FB80FA88FB89D31A83EAE372A2EBE37284
:100A6000BB899A420DDC9FED140AFFF781FE134A01
:100A7000FB8813803B461A464221114800F0D4FE01
:100A80000EE0FB88FB8102F05BF90246BB68D31ADB
:100A900041F288329342D6D99FED070AFFF768FEEC
:100AA0003B6807EE903AB0EE670A1037BD4680BD4E
:100AB000000080BF8802002000000000100000201D
:100AC0005C01002080B584B000AF0523BB81204BC2
:100AD0003B6002F035F9B8601E4B1B88FB81B9EE14
:100AE000040AFFF7BBFD642002F036F9194B1B889E
:100AF000FB80FA88FB89D31A83EAE372A2EBE372E4
:100B0000BB899A420DDC9FED140AFFF7A7FD134A3B
:100B1000FB8813803B461A464C21114800F084FEA6
:100B20000EE0FB88FB8102F00BF90246BB68D31A8A
:100B300041F288329342D6D99FED070AFFF78EFD26
:100B40003B6807EE903AB0EE670A1037BD4680BDAD
:100B5000000080BF8802002000000000000000208C
:100B60005C01002080B58EB000AF87ED070AC7EDAD
:100B7000060A87ED051AC7ED041AF86087ED022A08
:100B80000B46FB71FB79002B09D0374ABB68136019
:100B9000364B4FF000021A604FF000035DE002F0A8
:100BA000CFF80246FB68D31A07EE903AB8EE677AA0
:100BB000DFED2F6AC7EE267AC7ED0D7AD7ED0D7AF5
:100BC000F5EEC07AF1EE10FA01D82A4B7B6397ED6F
:100BD000077AD7ED047A67EE277AC7ED0C7A97ED9E
:100BE000047AD7ED0D7A27EE277A204BD3ED007AE1
:100BF00077EE277A1D4BC3ED007A1C4BD3ED007ABC
:100C000097ED067A67EE277AC7ED0B7A164BD3ED90
:100C1000007A97ED027A77EE676A97ED0D7AC6EE65
:100C2000877AC7ED0A7AD7ED057AF1EE677A97ED04
:100C30000A7A67EE277AC7ED097A97ED0C7AD7ED35
:100C40000B7A77EE277A97ED097A77EE277AC7ED58
:100C5000087A054ABB6813603B6A07EE903AB0EE2B
:100C6000670A3837BD4680BDAC000020B0000020C8
:100C700000007A446F12833A80B58AB000AF034611
:100C80000A46FB801346BB8000237B840023FB6164
:100C900002F056F8B86102F053F87862484B4FF012
:100CA00000021A60474BD3ED007A474B93ED007A70
:100CB000464BD3ED006AFB6906EE103AB8EEC66A01
:100CC0007B8C05EE903AF8EE655A0121B0EE652A6C
:100CD000786AF0EE461AB0EE661AF0EE470AB0EE09
:100CE000670AFFF73FFF07F10C031A464521384812
:100CF00000F0E6FDD7ED037AF0EEE77AC7ED057A6E
:100D00002F4BD3ED007A97ED057AB4EEE77AF1EE4A
:100D100010FA02DD2A4A7B6913602E4B1B887B8404
:100D2000FA887B8CD31AFB61FB6983EAE372A2EB3E
:100D3000E372BB889A4204DC9FED270AFFF78EFC22
:100D40003BE0204BD3ED007A1F4B93ED007A1F4B15
:100D5000D3ED006AFB6906EE103AB8EEC66A7B8CEA
:100D600005EE903AF8EE655A0021B0EE652A786AF1
:100D7000F0EE461AB0EE661AF0EE470AB0EE670AD9
:100D8000FFF7F0FE87ED040A01F0DAFF786297EDD5
:100D9000040AFFF763FC01F0D3FF0246BB69D31AD4
:100DA00041F28832934204D99FED0B0AFFF756FCBB
:100DB00003E0012001F0D0FF95E72837BD4680BD54
:100DC000EC0200200400002008000020A400002005
:100DD0005C010020880200200000000080B58AB07D
:100DE00000AF03460A46FB801346BB8000237B848A
:100DF0000023FB6101F0A4FFB86101F0A1FF78625C
:100E0000484B4FF000021A60474BD3ED007A474B36
:100E100093ED007A464BD3ED006AFB6906EE103A7B
:100E2000B8EEC66A7B8C05EE903AF8EE655A012161
:100E3000B0EE652A786AF0EE461AB0EE661AF0EE69
:100E4000470AB0EE670AFFF78DFE07F10C031A465A
:100E50004121384800F034FDD7ED037AF0EEE77A0F
:100E6000C7ED057A2F4BD3ED007A97ED057AB4EEF6
:100E7000E77AF1EE10FA02DD2A4A7B6913602E4B05
:100E80005B887B84FA887B8CD31AFB61FB6983EADD
:100E9000E372A2EBE372BB889A4204DC9FED270A5F
:100EA000FFF766FC3BE0204BD3ED007A1F4B93ED40
:100EB000007A1F4BD3ED006AFB6906EE103AB8EEDC
:100EC000C66A7B8C05EE903AF8EE655A0021B0EECA
:100ED000652A786AF0EE461AB0EE661AF0EE470A16
:100EE000B0EE670AFFF73EFE87ED040A01F028FF27
:100EF000786297ED040AFFF73BFC01F021FF024600
:100F0000BB69D31A41F28832934204D99FED0B0A90
:100F1000FFF72EFC03E0012001F01EFF95E72837C4
:100F2000BD4680BDF0020020040000200800002023
:100F3000A40000205C0100208802002000000000C6
:100F40002DE9B04F92B000AF3961FB600346FB82E0
:100F50001346BB82634B1B889BB23B64FB8AFB63DB
:100F6000FB6800221A6001F0EBFEB86301F0E8FEB6
:100F700078640023FB8600233B635B4BD3ED007A50
:100F80005A4B93ED007A5A4BD3ED006A3B6B06EE59
:100F9000103AB8EEC66AFB8E05EE903AF8EE655A46
:100FA0000121B0EE652A786CF0EE461AB0EE661AB2
:100FB000F0EE470AB0EE670AFFF7D4FD494B1B88F5
:100FC000FB86FB8EFA6BD31A3B633B6B83EAE372BF
:100FD000A2EBE372BB8A9A4204DC9FED460AFFF75C
:100FE0003DFB7BE001F0ACFE0246BB6BD31AFB621B
:100FF0003B69002B36D0FA6B3B6CD31ABB62BB6AE1
:10100000DA1798469146FB6A00229A4693460AFBF5
:1010100009F208FB0BF31344A8FB0A452B441D46B9
:101020003B6900223B607A60D7E9002320462946CD
:10103000FFF72EF902460B463B6C13447B62FA8E97
:101040007B6AD31A3B623B6A83EAE372A2EBE372E8
:10105000FB681B68002BB8BF5B429A4202DDFB684D
:101060003A6A1A60204BD3ED007A204B93ED007A58
:101070001F4BD3ED006A3B6B06EE103AB8EEC66A22
:10108000FB8E05EE903AF8EE655A0021B0EE652A27
:10109000786CF0EE461AB0EE661AF0EE470AB0EE43
:1010A000670AFFF75FFD87ED070A01F049FE7864E4
:1010B00097ED070AFFF7D2FA01F042FE0246BB6B3A
:1010C000D31A41F28832934204D99FED0A0AFFF7FE
:1010D000C5FA03E0012001F03FFE6FE74837BD4647
:1010E000BDE8B08F88020020040000200800002026
:1010F000A4000020000000002DE9B04F92B000AF26
:101100003961FB600346FB821346BB82634B5B88FD
:101110009BB23B64FB8AFB63FB6800221A6001F010
:101120000FFEB86301F00CFE78640023FB860023F9
:101130003B635B4BD3ED007A5A4B93ED007A5A4BED
:10114000D3ED006A3B6B06EE103AB8EEC66AFB8E32
:1011500005EE903AF8EE655A0121B0EE652A786CFA
:10116000F0EE461AB0EE661AF0EE470AB0EE670AE5
:10117000FFF7F8FC494B5B88FB86FB8EFA6BD31AB2
:101180003B633B6B83EAE372A2EBE372BB8A9A4256
:1011900004DC9FED460AFFF7EBFA7BE001F0D0FD9F
:1011A0000246BB6BD31AFB623B69002B36D0FA6B4D
:1011B0003B6CD31ABB62BB6ADA1798469146FB6A4E
:1011C00000229A4693460AFB09F208FB0BF31344EC
:1011D000A8FB0A452B441D463B6900223B607A6010
:1011E000D7E9002320462946FFF752F802460B466E
:1011F0003B6C13447B62FA8E7B6AD31A3B623B6A78
:1012000083EAE372A2EBE372FB681B68002BB8BFB2
:101210005B429A4202DDFB683A6A1A60204BD3EDCA
:10122000007A204B93ED007A1F4BD3ED006A3B6BA5
:1012300006EE103AB8EEC66AFB8E05EE903AF8EE6E
:10124000655A0021B0EE652A786CF0EE461AB0EED1
:10125000661AF0EE470AB0EE670AFFF783FC87EDE7
:10126000070A01F06DFD786497ED070AFFF780FA31
:1012700001F066FD0246BB6BD31A41F288329342FD
:1012800004D99FED0A0AFFF773FA03E0012001F089
:1012900063FD6FE74837BD46BDE8B08F8802002088
:1012A0000400002008000020A4000020000000002E
:1012B00080B584B000AF124B1B8814211846FFF78D
:1012C000DBFC01F03DFDF8600E4B1B881421184635
:1012D000FFF7D2FC01F034FDB8600B4B1B680B4AE2
:1012E0001361BA68FB68D31A7B60054B1B88142115
:1012F0001846FFF7C1FC7B6818461037BD4680BD15
:101300000000002002000020EC0200208C020020DF
:1013100080B584B000AF124B1B8814211846FFF72C
:10132000ABFC01F00DFDF8600E4B1B881421184634
:10133000FFF7A2FC01F004FDB8600B4B1B680B4AE1
:10134000D361BA68FB68D31A7B60064B1B881421F3
:101350001846FFF791FC7B6818461037BD4680BDE4
:101360000200002000000020EC0200208C0200207F
:1013700080B584B000AFFFF79BFFF8601F4B1B8860
:1013800014211846FFF778FC642001F0E5FC1C4BA3
:1013900018883B461422F968FFF7D2FD184B1B88CA
:1013A0001A46164B1B88D31A07EE903AF8EEE77AE6
:1013B000C7ED027AD7ED027AF5EE407AF1EE10FA37
:1013C00002D14FF0000311E03B6807EE903AF8EECF
:1013D000E76A97ED027AC6EE877AC7ED017A074B86
:1013E0001B8814211846FFF747FC7B6807EE903AEC
:1013F000B0EE670A1037BD4680BD00BF0000002078
:101400000200002080B584B000AFFFF781FFF860D4
:101410001F4B1B8814211846FFF72EFC642001F097
:101420009BFC1C4B18883B461422F968FFF788FD8B
:10143000174B1B881A46174B1B88D31A07EE903A96
:10144000F8EEE77AC7ED027AD7ED027AF5EE407A48
:10145000F1EE10FA02D14FF0000311E03B6807EE05
:10146000903AF8EEE76A97ED027AC6EE877AC7ED12
:10147000017A084B1B8814211846FFF7FDFB7B6897
:1014800007EE903AB0EE670A1037BD4680BD00BF48
:10149000020000200000002080B584B000AF124B95
:1014A0001B8814211846FFF799FC01F049FCF860ED
:1014B0000E4B1B8814211846FFF790FC01F040FCEE
:1014C000B8600B4B1B680B4A9362BA68FB68D31A6F
:1014D0007B60054B1B8814211846FFF77FFC7B6857
:1014E00018461037BD4680BD1000002012000020B5
:1014F000F00200208C02002080B584B000AF124BB7
:101500001B8814211846FFF769FC01F019FCF860EC
:101510000E4B1B8814211846FFF760FC01F010FCED
:10152000B8600B4B1B680B4A5363BA68FB68D31A4D
:101530007B60064B1B8814211846FFF74FFC7B6825
:1015400018461037BD4680BD120000201000002054
:10155000F00200208C02002080B584B000AFFFF7BD
:101560009BFFF8601F4B1B8814211846FFF736FCC1
:10157000642001F0F1FB1C4B18883B461422F968EB
:10158000FFF7BAFD184B1B881A46164B1B88D31A57
:1015900007EE903AF8EEE77AC7ED027AD7ED027AD5
:1015A000F5EE407AF1EE10FA02D14FF0000311E0AF
:1015B0003B6807EE903AF8EEE76A97ED027AC6EEDE
:1015C000877AC7ED017A074B1B8814211846FFF76D
:1015D00005FC7B6807EE903AB0EE670A1037BD460F
:1015E00080BD00BF100000201200002080B584B034
:1015F00000AFFFF781FFF8601F4B1B8814211846CE
:10160000FFF7ECFB642001F0A7FB1C4B18883B465E
:101610001422F968FFF770FD174B1B881A46174B09
:101620001B88D31A07EE903AF8EEE77AC7ED027AF4
:10163000D7ED027AF5EE407AF1EE10FA02D14FF0D2
:10164000000311E03B6807EE903AF8EEE76A97ED89
:10165000027AC6EE877AC7ED017A084B1B881421FF
:101660001846FFF7BBFB7B6807EE903AB0EE670ABF
:101670001037BD4680BD00BF1200002010000020C2
:1016800080B58AB004AF78600B467B807B885B00B6
:1016900099B25A4B1B680A22786803F0EBFD0346A7
:1016A000002B04D0564807F09BF80123A1E05548D1
:1016B00007F096F8642001F04FFB4FF40043FB82E3
:1016C000FB8A1B0A9BB2DBB23B74FB8ADBB27B74E6
:1016D0007B885B0099B2642302930223019307F194
:1016E0001003009301230022786803F097FA034661
:1016F000002B04D0444807F073F8012379E005205B
:1017000001F02AFB414807F06BF845233B7427237F
:101710007B747B885B0099B2384B1B680293022371
:10172000019307F11003009301230022786803F06E
:1017300075FA0346002B04D0354807F051F8012311
:1017400057E0344807F04CF8642001F005FB40F600
:101750001B531B0A9BB2DBB23B7440F61B53DBB23C
:101760007B747B885B0099B2244B1B680293022335
:10177000019307F11003009301230522786803F019
:101780004DFA0346002B04D0234807F029F8012323
:101790002FE0224807F024F8642001F0DDFA7B886E
:1017A0005B0099B2154B1B6802930223019307F16A
:1017B0000C03009301230022786803F029FB034601
:1017C000002B15D13B7B1BB21B021AB27B7B1BB2D9
:1017D00013431BB2BB82BB8A1946114806F090FF27
:1017E000BB8A44F22752934202D00E4806F0F8FF1B
:1017F000002318461837BD4680BD00BF14000020E6
:10180000CC930008EC930008049400082C94000882
:101810006C9400088C940008B4940008D4940008D8
:10182000F89400081095000880B58AB004AFF860FD
:101830000B467A607B817B895B0099B21B4B1B68EE
:1018400002930223019307F1140300930123022260
:10185000F86803F0DDFA0346002B04D0144806F0C4
:10186000BFFF01231DE03B7D1BB21B021AB27B7D33
:101870001BB213431BB2FB82FB8A19460D4806F0CC
:101880003FFFFB8A07EE903AF8EEE77A9FED0A7A7F
:1018900067EE877A7B68C3ED007A084806F0A0FF00
:1018A000002318461837BD4680BD00BF1400002035
:1018B0002C950008609500080AD7A33A7C9500088B
:1018C00080B58AB004AFF8600B467A607B817B8973
:1018D0005B0099B2184B1B6802930223019307F136
:1018E0001403009301230422F86803F091FA0346DD
:1018F000002B04D0114806F073FF012318E03B7D54
:101900001BB21B021AB27B7D1BB21343FB82B7F9D9
:10191000163007EE903AF8EEE77A9FED097A67EE17
:10192000877A7B68C3ED007A064806F059FF0023EA
:1019300018461837BD4680BD14000020B895000831
:1019400000008037EC95000880B584B000AF786067
:10195000174806F045FF0023FB730123BB8117E006
:10196000BB895B0099B232230222786803F082FCC3
:101970000346FB72FB7A002B07D1BB8919460D4841
:1019800006F0BEFEFB7B0133FB73BB890133BB81D9
:10199000BB897F2BE4D9FB7B002B02D1064806F0E4
:1019A0001FFF064806F01CFF00BF1037BD4680BD74
:1019B0006096000880960008B4960008E896000833
:1019C00080B582B000AF01F055F900F091FA00F057
:1019D00039FD00F017FD00F0F5FA00F075FC00F09D
:1019E000E7FC00F0A3FB00F0CFFBB74801F076F86E
:1019F0000222B649B64801F027FB0021B54804F0A1
:101A00005BFE0021B44804F057FEB448FFF79CFF8A
:101A10004FF47A7001F0A0F94521B048FFF730FE8D
:101A20000346002B02D0AE4806F0DAFEAD4806F0C1
:101A3000D7FE642001F090F94121A848FFF720FE6D
:101A40000346002B02D0A84806F0CAFEA74806F0BD
:101A5000C7FE642001F080F94C21A048FFF710FE7A
:101A60000346002B02D0A24806F0BAFEA14806F0B9
:101A7000B7FE642001F070F942219848FFF700FE9C
:101A80000346002B02D09C4806F0AAFE9B4806F0B5
:101A9000A7FE642001F060F9994806F0A1FE01F06C
:101AA00033F80346002B00F0908001F039F83860DD
:101AB000944806F095FE944B1B689B68184606F008
:101AC00049FD92493868FEF783FB0346002B0CD191
:101AD0008F4806F085FE8C4B1B689B68184606F005
:101AE00039FD8C4B00221A706DE08B493868FEF787
:101AF0006FFB0346002B0CD1884806F071FE824B29
:101B00001B689B68184606F025FD824B01221A705F
:101B100059E083493868FEF75BFB0346002B0CD184
:101B2000804806F05DFE784B1B689B68184606F0FF
:101B300011FD784B02221A7045E07B493868FEF7A8
:101B400047FB0346002B0CD1784806F049FE6E4B4C
:101B50001B689B68184606F0FDFC6E4B03221A704A
:101B600031E073493868FEF733FB0346002B0CD194
:101B7000704806F035FE644B1B689B68184606F0FB
:101B8000E9FC644B04221A701DE06B493868FEF7CB
:101B90001FFB0346002B0CD1684806F021FE5A4B70
:101BA0001B689B68184606F0D5FC5A4B05221A7034
:101BB00009E03968624806F0A3FD534B1B689B6837
:101BC000184606F0C7FC00F0B5FF524B1B78DBB29D
:101BD000002B40F0E780602200215A4806F0E0FE2A
:101BE000FEF754FEF0EE407A564BC3ED117AFEF745
:101BF00019FFF0EE407A534BC3ED127AFEF762FF05
:101C0000F0EE407A4F4BC3ED107AFEF78FFEF0EE08
:101C1000407A4C4BC3ED137AFEF7D8FEFFF748FB32
:101C200007EE900AB8EE677ADFED476AC7EE267ACC
:101C3000444BC3ED007AFFF76BFB07EE900AB8EE5A
:101C4000677ADFED416AC7EE267A3E4BC3ED017A33
:101C5000FFF722FC07EE900AB8EE677ADFED3A6AEA
:101C6000C7EE267A374BC3ED027AFFF745FC07EE45
:101C7000900AB8EE677ADFED346AC7EE267A314B08
:101C8000C3ED037AFFF774FBF0EE407A2D4BC3ED02
:101C9000147AFFF7B7FBF0EE407A2A4BC3ED157AC2
:101CA000FFF75AFCF0EE407A264BC3ED167AFFF7A9
:101CB0009DFCF0EE407A234BC3ED177A234806F0E3
:101CC0001FFD00237B605DE04002002088020020B1
:101CD000B4000020F8010020B00100205C010020C9
:101CE00040970008649700088C970008B097000898
:101CF000D8970008F89700081C9800083C9800083E
:101D00006098000880980008340000209C98000823
:101D1000B098000818000020D8980008E89800083B
:101D2000109900081C99000854990008609900084F
:101D300098990008A4990008DC990008E89900081F
:101D4000209A00088C02002000007A44509A000873
:101D5000594A7B689B001344D3ED007A9FED577A74
:101D600067EE877AFDEEE77A17EE901A544806F090
:101D7000C7FC7B68162B02DC2C2006F0D3FC7B68AA
:101D800001337B607B68172BE2DD0A2006F0CAFC7A
:101D90004C4B1B689B68184606F0DCFB4A4B012243
:101DA0001A7084E0484B1B78DBB2022B18D14748ED
:101DB00006F016FD464B1B8814211846FEF75CFF03
:101DC000444B1B8814211846FFF708F83D4B1B684D
:101DD0009B68184606F0BEFB3B4B01221A7066E07A
:101DE000394B1B78DBB2032B18D13B4806F0F8FCCB
:101DF000374B1B8814211846FEF73EFF374B1B88D4
:101E000014211846FEF7EAFF2E4B1B689B68184604
:101E100006F0A0FB2C4B01221A7048E02A4B1B78DD
:101E2000DBB2042B18D12E4806F0DAFC2D4B1B88B0
:101E300014211846FEF720FF264B1B881421184654
:101E4000FEF7CCFF1F4B1B689B68184606F082FB11
:101E50001D4B01221A702AE01B4B1B78DBB2052BAD
:101E60001CD1214806F0BCFC1E4B1B8814211846CF
:101E7000FEF702FF4FF4FA6000F06EFF174B1B886D
:101E800014211846FEF7AAFF0E4B1B689B681846E4
:101E900006F060FB0C4B01221A7008E0134806F0B4
:101EA0009FFC084B1B689B68184606F053FB4FF4D9
:101EB000FA7000F051FFEFE58C02002000007A4438
:101EC000589A000834000020180000205C9A00088E
:101ED0000000002010000020889A00081200002056
:101EE000B49A000802000020E09A00080C9B000849
:101EF00080B594B000AF07F12003302200211846CE
:101F000006F04EFD07F10C0300221A605A609A6039
:101F1000DA601A610023BB60284B1B6C274A43F030
:101F200080531364254B1B6C03F08053BB60BB686C
:101F300000237B60224B1B68214A43F480431360DB
:101F40001F4B1B6803F480437B607B6801233B626B
:101F50004FF480337B620223BB634FF48003FB6347
:101F600008233B644FF4A8737B640423BB640723FA
:101F7000FB6407F12003184603F05EFE0346002BC6
:101F800001D000F0CDFA0F23FB6002233B61002358
:101F90007B614FF48053BB610023FB6107F10C03AD
:101FA0000221184604F0C0F80346002B01D000F0CF
:101FB000B7FA00BF5037BD4680BD00BF00380240B1
:101FC0000070004080B592B000AF07F130030022EE
:101FD0001A605A609A60DA601A615A6107F1200348
:101FE00000221A605A609A60DA603B462022002183
:101FF000184606F0D5FC484B484A1A60464B4FF449
:1020000080325A60444B00229A60434B01221A618D
:10201000414B01221A76404B002283F820203E4B90
:102020000022DA623C4B3E4A9A623B4B0022DA6065
:10203000394B0222DA61384B012283F83020364BCB
:1020400000225A61344800F0ABFE0346002B01D059
:1020500000F066FA334B3B6300237B630023BB63D2
:102060000123FB63012387F8403007F13003194651
:10207000294801F047FA0346002B01D000F050FA3E
:1020800001233B6201237B620723BB6207F120032C
:102090001946214801F014F90346002B01D000F045
:1020A0003FFA02233B6202237B6207F120031946B9
:1020B000194801F005F90346002B01D000F030FA71
:1020C00002233B6001237B6002233B610023BB6052
:1020D0000023FB61144BBB6100237B7500233B7520
:1020E0000023FB603B4619460B4801F0F3FB034617
:1020F000002B01D000F014FA02237B603B46194606
:10210000054801F0E7FB0346002B01D000F008FA78
:1021100000BF4837BD4680BDB4000020002001400C
:102120000100000F0002800001000F0080B500AF29
:10213000124B134A1A60114B124A5A600F4B00227D
:102140009A600E4B0022DA600C4B4FF480421A6109
:102150000A4B00225A61094B00229A61074B002268
:10216000DA61064B00221A62044802F013FC0346AF
:10217000002B01D000F0D4F900BF80BD5C0100202D
:1021800000540040A086010080B596B000AF07F172
:10219000480300221A605A609A60DA6007F140032F
:1021A00000221A605A6007F1240300221A605A6064
:1021B0009A60DA601A615A619A613B1D20220021FF
:1021C000184606F0EDFB3E4B3E4A1A603C4B45225A
:1021D0005A603B4B00229A60394BC722DA60384B79
:1021E00000221A61364B00225A61354B00229A6157
:1021F000334804F0B9F90346002B01D000F090F900
:102200004FF48053BB6407F1480319462C4804F08F
:10221000DDFB0346002B01D000F082F9284804F0D2
:10222000F2F90346002B01D000F07AF900233B6459
:1022300000237B6407F140031946214804F0A4FF02
:102240000346002B01D000F06BF960237B62002372
:10225000BB620023FB6200233B6300237B630023FC
:10226000BB630023FB6307F12403002219461448D3
:1022700004F0EAFA0346002B01D000F051F90023E4
:102280007B600023BB600023FB6000233B610023D5
:102290007B614FF40053BB6100233B623B1D194639
:1022A000074804F0EDFF0346002B01D000F038F999
:1022B000034800F061FA00BF5837BD4680BD00BF3B
:1022C000B00100200000014080B58EB000AF07F1E2
:1022D000280300221A605A609A60DA6007F120032E
:1022E00000221A605A603B1D00221A605A609A60F0
:1022F000DA601A615A619A612C4B4FF080421A6081
:102300002A4B45225A60294B00229A60274BC7224C
:10231000DA60264B00221A61244B00229A6123487E
:1023200004F022F90346002B01D000F0F9F84FF435
:102330008053BB6207F1280319461C4804F046FB92
:102340000346002B01D000F0EBF8184804F05BF9CD
:102350000346002B01D000F0E3F800233B6200238A
:102360007B6207F120031946104804F00DFF034675
:10237000002B01D000F0D4F860237B600023BB6009
:102380000023FB6000237B613B1D002219460748A8
:1023900004F05AFA0346002B01D000F0C1F80348BC
:1023A00000F0EAF900BF3837BD4680BDF8010020D3
:1023B00080B500AF114B124A1A60104B4FF4E13256
:1023C0005A600E4B00229A600C4B0022DA600B4BD5
:1023D00000221A61094B0C225A61084B00229A61B3
:1023E000064B0022DA61054804F09CFF0346002BEF
:1023F00001D000F095F800BF80BD00BF4002002072
:102400000044004080B582B000AF00237B600C4BDD
:102410001B6B0B4A43F480031363094B1B6B03F4E0
:1024200080037B607B6800220021382001F0C3FC20
:10243000382001F0DCFC00BF0837BD4680BD00BF7E
:102440000038024080B58AB000AF07F114030022C3
:102450001A605A609A60DA601A6100233B612E4B61
:102460001B6B2D4A43F0800313632B4B1B6B03F054
:1024700080033B613B690023FB60274B1B6B264AB3
:1024800043F001031363244B1B6B03F00103FB6058
:10249000FB680023BB60204B1B6B1F4A43F01003FB
:1024A00013631D4B1B6B03F01003BB60BB68002361
:1024B0007B60194B1B6B184A43F008031363164BE0
:1024C0001B6B03F008037B607B6800233B60124BAF
:1024D0001B6B114A43F0020313630F4B1B6B03F09A
:1024E00002033B603B6800224FF4F0610B4802F0AE
:1024F00037FA4FF4F0637B610123BB610023FB617A
:1025000000233B6207F114031946044802F08CF8DB
:1025100000BF2837BD4680BD003802400010024091
:1025200080B400AF72B600BF00BFFDE780B582B0D7
:1025300000AF00237B60104B5B6C0F4A43F4804379
:1025400053640D4B5B6C03F480437B607B6800231A
:102550003B60094B1B6C084A43F080531364064BE5
:102560001B6C03F080533B603B68072001F018FCB4
:1025700000BF0837BD4680BD0038024080B58AB034
:1025800000AF786007F1140300221A605A609A6065
:10259000DA601A617B681B68334A93425FD100237B
:1025A0003B61324B5B6C314A43F4807353642F4B75
:1025B0005B6C03F480733B613B690023FB602B4B36
:1025C0001B6B2A4A43F001031363284B1B6B03F078
:1025D0000103FB60FB6806237B610323BB610023CF
:1025E000FB6107F114031946214802F01DF8214B45
:1025F000214A1A601F4B00225A601E4B00229A602B
:102600001C4B0022DA601B4B4FF480621A61194B9D
:102610004FF400625A61174B4FF400529A61154B08
:102620004FF48072DA61134B00221A62114B0022C0
:102630005A62104801F0F6FB0346002B01D0FFF769
:102640006FFF7B680B4A9A630A4A7B689363002298
:102650000021122001F0AFFB122001F0C8FB00BFE7
:102660002837BD4680BD00BF002001400038024031
:1026700000000240FC0000201064024080B58AB0D7
:1026800000AF786007F1140300221A605A609A6064
:10269000DA601A617B681B68194A93422BD10023C8
:1026A0003B61184B1B6B174A43F002031363154B36
:1026B0001B6B03F002033B613B69C0237B61122368
:1026C000BB610023FB6103233B6204237B6207F1B0
:1026D000140319460C4801F0A7FF0023FB60094BC7
:1026E0001B6C084A43F400131364064B1B6C03F481
:1026F0000013FB60FB6800BF2837BD4680BD00BFEC
:1027000000540040003802400004024080B485B00C
:1027100000AF78607B681B68154A93420ED1002396
:10272000FB60144B5B6C134A43F001035364114B81
:102730005B6C03F00103FB60FB6812E07B681B68C5
:10274000B3F1804F0DD10023BB600A4B1B6C094ACB
:1027500043F001031364074B1B6C03F00103BB60E0
:10276000BB6800BF1437BD465DF8047B704700BFEF
:10277000000001400038024080B58AB000AF7860A8
:1027800007F1140300221A605A609A60DA601A6135
:102790007B681B68244A93421FD100233B61234B73
:1027A0001B6B224A43F001031363204B1B6B03F0A6
:1027B00001033B613B694FF480737B610223BB6182
:1027C0000023FB6100233B6201237B6207F11403BA
:1027D0001946174801F028FF22E07B681B68B3F117
:1027E000804F1DD10023FB60104B1B6B0F4A43F041
:1027F000010313630D4B1B6B03F00103FB60FB68CC
:1028000001237B610223BB610023FB6100233B6248
:1028100001237B6207F114031946054801F004FF08
:1028200000BF2837BD4680BD00000140003802408F
:102830000000024080B58AB000AF786007F1140351
:1028400000221A605A609A60DA601A617B681B681D
:102850001D4A934233D100233B611C4B1B6C1B4A26
:1028600043F400331364194B1B6C03F400333B61D6
:102870003B690023FB60154B1B6B144A43F00803B4
:102880001363124B1B6B03F00803FB60FB686023B0
:102890007B610223BB610023FB6103233B620723AF
:1028A0007B6207F114031946094801F0BDFE0022BE
:1028B0000021262001F07FFA262001F098FA00BFBF
:1028C0002837BD4680BD00BF0044004000380240AC
:1028D000000C024080B400AF00BFFDE780B400AF41
:1028E00000BFFDE780B400AF00BFFDE780B400AFDC
:1028F00000BFFDE780B400AF00BFFDE780B400AFCC
:1029000000BFBD465DF8047B704780B400AF00BFD8
:10291000BD465DF8047B704780B400AF00BFBD4684
:102920005DF8047B704780B500AF00F0F5F900BF9B
:1029300080BD000080B500AF024800F074FA00BF0F
:1029400080BD00BFB400002080B500AF024804F095
:10295000E9FD00BF80BD00BF4002002080B500AF90
:10296000024801F0F7FB00BF80BD00BFFC00002063
:1029700080B586B000AFF860B9607A6000237B61F3
:102980000AE0AFF300800146BB685A1CBA60CAB2C5
:102990001A707B6901337B617A697B689A42F0DB4C
:1029A0007B6818461837BD4680BD80B586B000AF3D
:1029B000F860B9607A6000237B6109E0BB685A1C4B
:1029C000BA601B78184600F017F97B6901337B6108
:1029D0007A697B689A42F1DB7B6818461837BD46F6
:1029E00080BD80B483B000AF78604FF0FF331846ED
:1029F0000C37BD465DF8047B704780B483B000AFF0
:102A0000786039603B684FF400525A6000231846E2
:102A10000C37BD465DF8047B704780B483B000AFCF
:102A20007860012318460C37BD465DF8047B70477B
:102A300080B485B000AFF860B9607A6000231846B2
:102A40001437BD465DF8047B7047000080B586B042
:102A500000AF7860144A154BD31A7B617B693B61E8
:102A6000134B1B68002B02D1114B124A1A60104BFA
:102A70001A687B6813443A699A4207D205F0DEFF70
:102A800003460C221A604FF0FF3309E0084B1B6825
:102A9000FB60074B1A687B681344054A1360FB68A8
:102AA00018461837BD4680BD000002200004000013
:102AB000F40200209804002080B400AF064BD3F845
:102AC0008830054A43F47003C2F8883000BFBD4621
:102AD0005DF8047B704700BF00ED00E080B582B078
:102AE00000AF7860064A7B681360054B1B680122C3
:102AF0000449184604F0F1FC00BF0837BD4680BD0C
:102B0000F8020020FC02002080B400AF034B1B78C9
:102B1000DBB21846BD465DF8047B704741030020D8
:102B200080B400AF024B1846BD465DF8047B704789
:102B30000003002080B500AF064B00221A70064B40
:102B400000221A7040220021044805F029FF00BF2E
:102B500080BD00BF4103002040030020000300208F
:102B600080B582B000AF78607B681A681D4B1B6827
:102B70001B689A4232D11C4B1B78DBB20A2B04D063
:102B8000194B1B78DBB20D2B0FD1184B1B78DBB226
:102B9000002B1CD0154B1B78DBB21A46144B0021BE
:102BA0009954144B01221A7011E0104B1B78DBB2C0
:102BB0003E2B0CD80D4B1B78DBB25A1CD1B20B4A02
:102BC00011701A46084B1B78D9B2094B9954054B22
:102BD0001B6801220449184604F07FFC00BF083737
:102BE000BD4680BDF8020020FC020020400300200A
:102BF000000300204103002080B582B000AF786060
:102C0000064B1868391D4FF0FF33012204F0DAFB40
:102C10007B6818460837BD4680BD00BFF80200201B
:102C2000DFF834D0FFF748FF0C480D490D4A002368
:102C300002E0D458C4500433C4188C42F9D30A4A71
:102C40000A4C002301E013600432A242FBD305F0DA
:102C5000FBFEFEF7B5FE70470000022000000020DA
:102C600084000020A09B0008840000209404002021
:102C7000FEE7000080B500AF0E4B1B680D4A43F421
:102C8000007313600B4B1B680A4A43F480631360A4
:102C9000084B1B68074A43F480731360032001F05C
:102CA0007FF8002000F008F8FFF740FC00231846EA
:102CB00080BD00BF003C024080B582B000AF7860AC
:102CC000124B1A68124B1B7819464FF47A73B3FBF8
:102CD000F1F3B2FBF3F3184601F097F80346002B2B
:102CE00001D001230EE07B680F2B0AD800227968FF
:102CF0004FF0FF3001F05FF8064A7B681360002355
:102D000000E0012318460837BD4680BD1C000020A6
:102D1000240000202000002080B400AF064B1B7868
:102D20001A46064B1B681344044A136000BFBD4695
:102D30005DF8047B704700BF24000020440300209E
:102D400080B400AF034B1B681846BD465DF8047B9A
:102D5000704700BF4403002080B584B000AF7860A6
:102D6000FFF7EEFFB8607B68FB60FB68B3F1FF3FE5
:102D700005D00A4B1B781A46FB681344FB6000BF62
:102D8000FFF7DEFF0246BB68D31AFA689A42F7D80B
:102D900000BF00BF1037BD4680BD00BF240000202B
:102DA00080B584B000AF78600023FB737B68002B94
:102DB00001D1012333E07B681B6C002B09D17868BB
:102DC000FFF7DCFB7B6800225A647B68002283F8F3
:102DD0003C207B681B6C03F01003002B18D17B6830
:102DE0001B6C23F4885323F0020343F002027B6838
:102DF0001A64786800F0E6FB7B6800225A647B68FE
:102E00001B6C23F0030343F001027B681A6401E0AA
:102E10000123FB737B68002283F83C20FB7B184670
:102E20001037BD4680BD80B586B000AF7860002306
:102E30007B6100233B617B681B681B68FB607B68D0
:102E40001B685B68BB60FB6803F002037B61BB68C7
:102E500003F020033B617B69002B49D03B69002BC9
:102E600046D07B681B6C03F01003002B05D17B68F8
:102E70001B6C43F400727B681A647B681B689B6858
:102E800003F04053002B2BD17B681B7E002B27D1F6
:102E90007B681B68DB6A03F47003002B06D07B6839
:102EA0001B689B6803F48063002B19D17B681B6847
:102EB0005A687B681B6822F020025A607B681B6C92
:102EC00023F480727B681A647B681B6C03F4805364
:102ED000002B05D17B681B6C43F001027B681A64F0
:102EE000786800F0C5F97B681B686FF012021A6001
:102EF000FB6803F004037B61BB6803F080033B6164
:102F00007B69002B57D03B69002B54D07B681B6C2E
:102F100003F01003002B05D17B681B6C43F40052B7
:102F20007B681A647B681B689B6803F44013002B62
:102F300039D17B681B689B6B03F44013002B06D0D0
:102F40007B681B689B6803F48063002B2BD17B6834
:102F50001B685B6803F48063002B24D17B681B68CB
:102F60009B6803F04053002B1DD17B681B7E002B18
:102F700019D17B681B685A687B681B6822F0800245
:102F80005A607B681B6C23F480527B681A647B68F0
:102F90001B6C03F48073002B05D17B681B6C43F022
:102FA00001027B681A64786800F08AFC7B681B6801
:102FB0006FF00C021A60FB6803F001037B61BB68D1
:102FC00003F040033B617B69002B17D03B69002B6A
:102FD00014D07B681B681B6803F00103012B0DD123
:102FE0007B681B6C43F480327B681A64786800F05D
:102FF00053F97B681B686FF001021A60FB6803F0ED
:1030000020037B61BB6803F080633B617B69002B1D
:1030100015D03B69002B12D07B685B6C43F0020239
:103020007B685A647B681B686FF020021A607868BE
:1030300000F03CF97B681B686FF020021A6000BF4B
:103040001837BD4680BD000080B588B000AFF8607D
:10305000B9607A6000237B610023FB77FB6893F8FB
:103060003C30012B01D10223EBE0FB68012283F805
:103070003C20FB681B689B6803F00103012B18D000
:10308000FB681B689A68FB681B6842F001029A6043
:103090006E4B1B686E4AA2FB03239A0C13465B001F
:1030A00013447B6102E07B69013B7B617B69002B00
:1030B000F9D1FB681B689B6803F48073B3F5807FCC
:1030C00007D1FB681B689A68FB681B6822F4807252
:1030D0009A60FB681B689B6803F00103012B40F0BA
:1030E000A380FB681B6C23F4E06323F0010343F42B
:1030F0008072FB681A64FB681B685B6803F480637A
:10310000002B07D0FB681B6C23F4405343F4805220
:10311000FB681A64FB681B6C03F48053B3F5805F93
:1031200006D1FB685B6C23F00602FB685A6402E080
:10313000FB6800225A64FB68002283F83C20454B60
:10314000BB61FB689B6B444ADA63FB689B6B434A39
:103150001A64FB689B6B424ADA64FB681B686FF079
:1031600022021A60FB681B685A68FB681B6842F001
:1031700080625A60FB681B689A68FB681B6842F4AF
:1031800080729A60FB68986BFB681B684C33194629
:10319000BA687B6800F0F4FE0346FB77BB695B68A6
:1031A00003F01F03002B2AD1FB681B682D4A9342B2
:1031B00015D0FB681B682C4A934205D1254B5B68F0
:1031C00003F01F03002B0AD0FB681B68274A9342B9
:1031D00036D1204B5B6803F01003002B30D1FB6825
:1031E0001B689B6803F04053002B29D1FB681B68C8
:1031F0009A68FB681B6842F080429A6020E0FB6896
:103200001B68184A93421BD1FB681B689B6803F03C
:103210004053002B14D1FB681B689A68FB681B683D
:1032200042F080429A600BE0FB681B6C43F0100296
:10323000FB681A64FB685B6C43F00102FB685A642C
:10324000FB7F18462037BD4680BD00BF1C00002014
:1032500083DE1B4300230140BD3700087738000898
:103260009338000800200140002101400022014065
:1032700080B483B000AF786000BF0C37BD465DF806
:10328000047B704780B483B000AF786000BF0C3718
:10329000BD465DF8047B704780B483B000AF7860B2
:1032A00000BF0C37BD465DF8047B704780B483B027
:1032B00000AF786000BF0C37BD465DF8047B7047F7
:1032C00080B485B000AF786039600023BB607B6854
:1032D00093F83C30012B01D1022305E17B680122E8
:1032E00083F83C203B681B68092B25D97B681B6849
:1032F000D9683B681B689BB21A4613465B001344AF
:103300001E3B072202FA03F3DA437B681B680A407C
:10331000DA607B681B68D9683B689A683B681B6801
:103320009BB2184603465B0003441E3B9A407B68F1
:103330001B680A43DA6022E07B681B6819693B68F6
:103340001B689BB21A4613465B001344072202FA1D
:1033500003F3DA437B681B680A401A617B681B68C9
:1033600019693B689A683B681B689BB2184603461C
:103370005B0003449A407B681B680A431A613B6800
:103380005B68062B24D87B681B68596B3B685A68BE
:1033900013469B001344053B1F2202FA03F3DA4352
:1033A0007B681B680A405A637B681B68596B3B68E3
:1033B0001B689BB218463B685A6813469B0013442F
:1033C000053B00FA03F27B681B680A435A634CE032
:1033D0003B685B680C2B24D87B681B68196B3B68C7
:1033E0005A6813469B001344233B1F2202FA03F33F
:1033F000DA437B681B680A401A637B681B68196B99
:103400003B681B689BB218463B685A6813469B0092
:103410001344233B00FA03F27B681B680A431A63D8
:1034200023E07B681B68D96A3B685A6813469B0097
:103430001344413B1F2202FA03F3DA437B681B6803
:103440000A40DA627B681B68D96A3B681B689BB2DA
:1034500018463B685A6813469B001344413B00FAE8
:1034600003F27B681B680A43DA62224BFB607B68CD
:103470001B68214A934209D13B681B68122B05D176
:10348000FB685B6843F48002FB685A607B681B68DA
:10349000194A934223D13B681B68102B03D03B6829
:1034A0001B68112B1BD1FB685B6843F40002FB68AF
:1034B0005A603B681B68102B11D1104B1B68104AD7
:1034C000A2FB03239A0C13469B0013445B00BB60D2
:1034D00002E0BB68013BBB60BB68002BF9D17B6895
:1034E000002283F83C20002318461437BD465DF8BF
:1034F000047B704700230140002001401C00002095
:1035000083DE1B4380B483B000AF786039607B6892
:1035100093F83C30012B01D102234DE07B6801225E
:1035200083F83C203B681B7C012B08D17B681B681F
:103530005A687B681B6842F040025A6007E07B686B
:103540001B685A687B681B6822F040025A607B68DF
:103550001B685B687A68126823F4400323F40073E5
:1035600053607B681B6859683B681A687B681B68F6
:103570000A435A607B681B683A6852685A627B68E3
:103580001B683A6892689A627B681B685A687B6815
:103590001B6822F01F025A607B681B685A683B68F0
:1035A000DB689BB219467B681B680A435A607B68DC
:1035B000002283F83C20002318460C37BD465DF8F6
:1035C000047B704780B485B000AF7860794BFB60B6
:1035D000FB685B6823F44032FB685A60FB685A68FA
:1035E0007B685B681A43FB685A607B681B685A6893
:1035F0007B681B6822F480725A607B681B6859687C
:103600007B681B691A027B681B680A435A607B68E7
:103610001B685A687B681B6822F040725A607B689E
:103620001B6859687B689A687B681B680A435A6004
:103630007B681B689A687B681B6822F400629A604A
:103640007B681B6899687B68DA687B681B680A433B
:103650009A607B689B6A584A934222D07B681B68B9
:103660009A687B681B6822F070629A607B681B68AE
:1036700099687B689A6A7B681B680A439A607B68D2
:103680001B689A687B681B6822F040529A607B68CE
:103690001B6899687B68DA6A7B681B680A439A60D2
:1036A0000FE07B681B689A687B681B6822F0706279
:1036B0009A607B681B689A687B681B6822F040529E
:1036C0009A607B681B689A687B681B6822F002021C
:1036D0009A607B681B6899687B681B7E5A007B68D0
:1036E0001B680A439A607B6893F82030002B1BD03C
:1036F0007B681B685A687B681B6842F400625A60EA
:103700007B681B685A687B681B6822F460425A60B9
:103710007B681B6859687B685B6A013B5A037B685E
:103720001B680A435A6007E07B681B685A687B681D
:103730001B6822F400625A607B681B68DA6A7B6847
:103740001B6822F47002DA627B681B68D96A7B68A6
:10375000DB69013B1A057B681B680A43DA627B68F8
:103760001B689A687B681B6822F400729A607B6809
:103770001B6899687B6893F830305A027B681B6835
:103780000A439A607B681B689A687B681B6822F40E
:1037900080629A607B681B6899687B685B699A02A3
:1037A0007B681B680A439A6000BF1437BD465DF80A
:1037B000047B7047002301400100000F80B584B0F6
:1037C00000AF78607B689B6BFB60FB681B6C03F051
:1037D0005003002B3CD1FB681B6C43F40072FB6868
:1037E0001A64FB681B689B6803F04053002B2BD1C5
:1037F000FB681B7E002B27D1FB681B68DB6A03F488
:103800007003002B06D0FB681B689B6803F4806381
:10381000002B19D1FB681B685A68FB681B6822F0F3
:1038200020025A60FB681B6C23F48072FB681A64E8
:10383000FB681B6C03F48053002B05D1FB681B6CE9
:1038400043F00102FB681A64F868FFF711FD0EE00F
:10385000FB681B6C03F01003002B03D0F868FFF724
:1038600025FD04E0FB689B6BDB6C7868984700BF24
:103870001037BD4680BD80B584B000AF78607B68EE
:103880009B6BFB60F868FFF7FDFC00BF1037BD467F
:1038900080BD80B584B000AF78607B689B6BFB60B7
:1038A000FB6840221A64FB685B6C43F00402FB680F
:1038B0005A64F868FFF7FAFC00BF1037BD4680BDB8
:1038C00080B483B000AF786000BF0C37BD465DF8B0
:1038D000047B704780B485B000AF786039607B6846
:1038E00093F83C30012B01D102237DE17B6801225A
:1038F00083F83C203B681B68092B25D97B681B6833
:10390000D9683B681B689BB21A4613465B00134498
:103910001E3B072202FA03F3DA437B681B680A4066
:10392000DA607B681B68D9683B689A683B681B68EB
:103930009BB2184603465B0003441E3B9A407B68DB
:103940001B680A43DA6022E07B681B6819693B68E0
:103950001B689BB21A4613465B001344072202FA07
:1039600003F3DA437B681B680A401A617B681B68B3
:1039700019693B689A683B681B689BB21846034606
:103980005B0003449A407B681B680A431A617B68AA
:103990001B689A6B7B681B6822F440129A637B68F1
:1039A0001B68996B3B681B69013B1A057B681B68A8
:1039B0000A439A637B681B68996B3B685B68DAB261
:1039C0003B681B69DBB2D31ADBB20333DBB21A46A6
:1039D00013469B0013441F2202FA03F3DA437B6869
:1039E0001B680A409A637B681B68996B3B681B687D
:1039F0009BB218463B685B68DAB23B681B69DBB276
:103A0000D31ADBB20333DBB21A4613469B001344CE
:103A100000FA03F27B681B680A439A633B689B6960
:103A2000744A934222D07B681B689A687B681B6843
:103A300022F470229A607B681B6899683B689A69D7
:103A40007B681B680A439A607B681B689A687B687E
:103A50001B6822F440129A607B681B6899683B6877
:103A6000DA697B681B680A439A600FE07B681B6811
:103A70009A687B681B6822F470229A607B681B68D6
:103A80009A687B681B6822F440129A603B685B7DF1
:103A9000002B08D07B681B685A687B681B6842F45F
:103AA00080625A6007E07B681B685A687B681B6805
:103AB00022F480625A603B681B7D002B08D07B6833
:103AC0001B685A687B681B6842F480525A6007E0A2
:103AD0007B681B685A687B681B6822F480525A60B6
:103AE0003B685B68032B2ED0032B40D8012B02D000
:103AF000022B14D03BE07B681B685B697A68126814
:103B000023F47F6323F00F0353617B681B685969BB
:103B10003B68DA687B681B680A435A613BE07B6854
:103B20001B689B697A68126823F47F6323F00F0394
:103B300093617B681B6899693B68DA687B681B68DE
:103B40000A439A6127E07B681B68DB697A68126820
:103B500023F47F6323F00F03D3617B681B68D9696B
:103B60003B68DA687B681B680A43DA6113E07B68AC
:103B70001B681B6A7A68126823F47F6323F00F03C3
:103B800013627B681B68196A3B68DA687B681B688C
:103B90000A431A6200BF184BFB607B681B68174A18
:103BA000934209D13B681B68122B05D1FB685B6807
:103BB00043F48002FB685A607B681B680F4A93429B
:103BC0000DD13B681B68102B03D03B681B68112B81
:103BD00005D1FB685B6843F40002FB685A607B68B0
:103BE000002283F83C20002318461437BD465DF8B8
:103BF000047B704701000F000023014000200140BA
:103C000080B485B000AF78607B6803F00703FB6089
:103C10000C4BDB68BB60BA684FF6FF031340BB6018
:103C2000FB681A02BB68134343F0BF6343F40033DD
:103C3000BB60044ABB68D36000BF1437BD465DF863
:103C4000047B704700ED00E080B400AF044BDB68FC
:103C50001B0A03F007031846BD465DF8047B704756
:103C600000ED00E080B483B000AF0346FB7197F92C
:103C70000730002B0BDBFB7903F01F02074997F994
:103C800007305B09012000FA02F241F8232000BF4F
:103C90000C37BD465DF8047B704700BF00E100E0D3
:103CA00080B483B000AF03463960FB7197F90730E9
:103CB000002B0ADB3B68DAB20C4997F90730120196
:103CC000D2B20B4483F800230AE03B68DAB2084919
:103CD000FB7903F00F03043B1201D2B20B441A76B6
:103CE00000BF0C37BD465DF8047B704700E100E083
:103CF00000ED00E080B489B000AFF860B9607A6090
:103D0000FB6803F00703FB61FB69C3F10703042BA6
:103D100028BF0423BB61FB690433062B02D9FB696E
:103D2000033B00E000237B614FF0FF32BB6902FAE6
:103D300003F3DA43BB681A407B699A404FF0FF31C6
:103D40007B6901FA03F3D9437B680B4013431846A0
:103D50002437BD465DF8047B7047000080B582B013
:103D600000AF78607B68013BB3F1807F01D3012312
:103D70000FE00A4A7B68013B53600F214FF0FF3090
:103D8000FFF78EFF054B00229A60044B07221A6052
:103D9000002318460837BD4680BD00BF10E000E094
:103DA00080B582B000AF78607868FFF729FF00BF68
:103DB0000837BD4680BD80B586B000AF0346B96008
:103DC0007A60FB7300237B61FFF73EFF78617A68BE
:103DD000B9687869FFF78EFF024697F90F301146F0
:103DE0001846FFF75DFF00BF1837BD4680BD80B5A0
:103DF00082B000AF0346FB7197F907301846FFF712
:103E000031FF00BF0837BD4680BD80B582B000AF2E
:103E100078607868FFF7A2FF034618460837BD466A
:103E200080BD000080B586B000AF786000237B6164
:103E3000FEF786FF38617B68002B01D1012399E0F2
:103E40007B68022283F835207B68002283F83420C7
:103E50007B681B681A687B681B6822F001021A6085
:103E60000FE0FEF76DFF02463B69D31A052B08D918
:103E70007B6820225A657B68032283F83520032360
:103E800078E07B681B681B6803F00103002BE8D116
:103E90007B681B681B687B617A69384B13407B61C8
:103EA0007B685A687B689B681A437B68DB681A43A7
:103EB0007B681B691A437B685B691A437B689B6953
:103EC0001A437B68DB691A437B681B6A13437A6970
:103ED00013437B617B685B6A042B07D17B68DA6ADA
:103EE0007B681B6B13437A6913437B617B681B6898
:103EF0007A691A607B681B685B697B617B6923F068
:103F000007037B617B685B6A7A6913437B617B682B
:103F10005B6A042B17D17B689B6A7A6913437B61C8
:103F20007B68DB6A002B0ED0786800F001FB03464B
:103F3000002B08D07B6840225A657B68012283F8F9
:103F40003520012316E07B681B687A695A6178681E
:103F500000F0B8FA0346FB607B68DB6D3F229A40B5
:103F6000FB689A607B6800225A657B68012283F8AF
:103F70003520002318461837BD4680BD3F8010F01D
:103F800080B586B000AFF860B9607A603B6000230E
:103F9000FB75FB689B6D3B61FB6893F83430012B2C
:103FA00001D1022340E0FB68012283F83420FB6842
:103FB00093F83530DBB2012B2FD1FB68022283F856
:103FC0003520FB6800225A653B687A68B968F86852
:103FD00000F04AFAFB68DB6D3F229A403B699A6029
:103FE000FB681B681A68FB681B6842F016021A60BF
:103FF000FB681B6C002B07D0FB681B681A68FB680A
:104000001B6842F008021A60FB681B681A68FB68AC
:104010001B6842F001021A6005E0FB68002283F889
:1040200034200223FB75FB7D18461837BD4680BD42
:1040300080B584B000AF78607B689B6DFB60FEF755
:104040007FFEB8607B6893F83530DBB2022B08D076
:104050007B6880225A657B68002283F83420012324
:1040600052E07B681B681A687B681B6822F01602A6
:104070001A607B681B685A697B681B6822F08002A3
:104080005A617B681B6C002B03D17B689B6C002BF7
:1040900007D07B681B681A687B681B6822F00802DF
:1040A0001A607B681B681A687B681B6822F0010233
:1040B0001A6013E0FEF744FE0246BB68D31A052BD4
:1040C0000CD97B6820225A657B68032283F835204F
:1040D0007B68002283F83420032315E07B681B688B
:1040E0001B6803F00103002BE4D17B68DB6D3F22EA
:1040F0009A40FB689A607B68012283F835207B68D0
:10410000002283F83420002318461037BD4680BDB6
:1041100080B483B000AF78607B6893F83530DBB251
:10412000022B04D07B6880225A6501230CE07B6857
:10413000052283F835207B681B681A687B681B683A
:1041400022F001021A60002318460C37BD465DF8C4
:10415000047B704780B586B000AF78600023BB60F9
:104160008E4B1B688E4AA2FB03239B0A7B617B68F4
:104170009B6D3B613B691B68FB607B68DB6D0822C4
:104180009A40FB681340002B1AD07B681B681B68A1
:1041900003F00403002B13D07B681B681A687B684C
:1041A0001B6822F004021A607B68DB6D08229A40CB
:1041B0003B699A607B685B6D43F001027B685A65DE
:1041C0007B68DB6D01229A40FB681340002B12D004
:1041D0007B681B685B6903F08003002B0BD07B6856
:1041E000DB6D01229A403B699A607B685B6D43F00E
:1041F00002027B685A657B68DB6D04229A40FB688B
:104200001340002B12D07B681B681B6803F002036D
:10421000002B0BD07B68DB6D04229A403B699A60CF
:104220007B685B6D43F004027B685A657B68DB6DDD
:1042300010229A40FB681340002B43D07B681B6818
:104240001B6803F00803002B3CD07B68DB6D102259
:104250009A403B699A607B681B681B6803F4802363
:10426000002B18D07B681B681B6803F40023002B0D
:1042700008D17B681B6C002B24D07B681B6C786892
:1042800098471FE07B689B6C002B1BD07B689B6C66
:104290007868984716E07B681B681B6803F4807396
:1042A000002B07D17B681B681A687B681B6822F0AB
:1042B00008021A607B681B6C002B03D07B681B6CA8
:1042C000786898477B68DB6D20229A40FB68134032
:1042D000002B00F08F807B681B681B6803F01003C5
:1042E000002B00F087807B68DB6D20229A403B69C1
:1042F0009A607B6893F83530DBB2052B36D17B684A
:104300001B681A687B681B6822F016021A607B68BB
:104310001B685A697B681B6822F080025A617B68BF
:104320001B6C002B03D17B689B6C002B07D07B6838
:104330001B681A687B681B6822F008021A607B6899
:10434000DB6D3F229A403B699A607B68012283F8CB
:1043500035207B68002283F834207B681B6D002B9E
:104360007ED07B681B6D7868984779E07B681B6816
:104370001B6803F48023002B1DD07B681B681B681F
:1043800003F40023002B0DD17B685B6C002B31D034
:104390007B685B6C786898472CE000BF1C000020AD
:1043A000B5814E1B7B68DB6B002B23D07B68DB6BFE
:1043B000786898471EE07B681B681B6803F480736D
:1043C000002B0FD17B681B681A687B681B6822F082
:1043D00010021A607B68012283F835207B68002276
:1043E00083F834207B68DB6B002B03D07B68DB6BAE
:1043F000786898477B685B6D002B32D07B685B6D7B
:1044000003F00103002B22D07B68052283F83520BE
:104410007B681B681A687B681B6822F001021A60BF
:10442000BB680133BB607A699A4207D37B681B681B
:104430001B6803F00103002BF2D100E000BF7B6892
:10444000012283F835207B68002283F834207B68C2
:10445000DB6C002B05D07B68DB6C7868984700E04C
:1044600000BF1837BD4680BD80B485B000AFF8608E
:10447000B9607A603B60FB681B681A68FB681B6860
:1044800022F480221A60FB681B683A685A60FB6855
:104490009B68402B08D1FB681B687A689A60FB68B0
:1044A0001B68BA68DA6007E0FB681B68BA689A6044
:1044B000FB681B687A68DA6000BF1437BD465DF898
:1044C000047B704780B485B000AF78607B681B6860
:1044D000DBB2103B144AA2FB03231B09FB60134A07
:1044E000FB6813441B781A467B68DA65FB68032B6C
:1044F00009D97B681B6823F47F7323F003031A1D1B
:104500007B689A6507E07B681B6823F47F7323F060
:1045100003037A6893657B689B6D18461437BD4624
:104520005DF8047B704700BFABAAAAAA549B0008A1
:1045300080B485B000AF78600023FB737B689B6A12
:10454000BB607B689B69002B1FD1BB68032B56D8CF
:1045500001A252F823F000BF694500087B4500081E
:1045600069450008FF4500087B68DB6A03F080733B
:10457000002B46D00123FB7343E07B68DB6AB3F179
:10458000C07F40D10123FB733DE07B689B69B3F59D
:10459000005F21D1BB68032B37D801A252F823F06A
:1045A000B1450008B7450008B1450008C9450008F5
:1045B0000123FB7330E07B68DB6A03F08073002B20
:1045C00025D00123FB7322E07B68DB6AB3F1C07F57
:1045D0001FD10123FB731CE0BB68022B03D9BB680E
:1045E000032B03D018E00123FB7315E07B68DB6A23
:1045F00003F08073002B0ED00123FB730BE000BF90
:104600000AE000BF08E000BF06E000BF04E000BF12
:1046100002E000BF00E000BFFB7B18461437BD4638
:104620005DF8047B704700BF80B489B000AF78604C
:10463000396000237B6100233B610023BB610023C1
:10464000FB616BE10122FB6902FA03F37B613B68CA
:104650001B687A6913403B613A697B699A4240F072
:104660005A813B685B6803F00303012B05D03B686C
:104670005B6803F00303022B30D17B689B68BB614E
:10468000FB695B00032202FA03F3DB43BA691340C0
:10469000BB613B68DA68FB695B0002FA03F3BA6945
:1046A0001343BB617B68BA699A607B685B68BB61D6
:1046B0000122FB6902FA03F3DB43BA691340BB61D1
:1046C0003B685B681B0903F00102FB6902FA03F314
:1046D000BA691343BB617B68BA695A603B685B681F
:1046E00003F00303032B17D07B68DB68BB61FB6916
:1046F0005B00032202FA03F3DB43BA691340BB6198
:104700003B689A68FB695B0002FA03F3BA691343DA
:10471000BB617B68BA69DA603B685B6803F00303DE
:10472000022B23D1FB69DA087B68083253F8223068
:10473000BB61FB6903F007039B000F2202FA03F33E
:10474000DB43BA691340BB613B681A69FB6903F03C
:1047500007039B0002FA03F3BA691343BB61FB69C9
:10476000DA087B680832B96943F822107B681B6855
:10477000BB61FB695B00032202FA03F3DB43BA6906
:104780001340BB613B685B6803F00302FB695B009D
:1047900002FA03F3BA691343BB617B68BA691A6012
:1047A0003B685B6803F44033002B00F0B4800023C7
:1047B000FB60604B5B6C5F4A43F4804353645D4B2A
:1047C0005B6C03F48043FB60FB685B4AFB699B08FE
:1047D000023352F82330BB61FB6903F003039B00F3
:1047E0000F2202FA03F3DB43BA691340BB617B6813
:1047F000524A93422BD07B68514A934225D07B6822
:10480000504A93421FD07B684F4A934219D07B682D
:104810004E4A934213D07B684D4A93420DD07B6839
:104820004C4A934207D07B684B4A934201D10723FD
:104830000EE008230CE006230AE0052308E0042329
:1048400006E0032304E0022302E0012300E000234A
:10485000FA6902F0030292009340BA691343BB6104
:104860003549FB699B080233BA6941F823203B4B69
:104870009B68BB613B69DB43BA691340BB613B6822
:104880005B6803F48013002B03D0BA693B691343C0
:10489000BB61324ABB699360304BDB68BB613B69EB
:1048A000DB43BA691340BB613B685B6803F40013E8
:1048B000002B03D0BA693B691343BB61274ABB692C
:1048C000D360264B5B68BB613B69DB43BA6913402D
:1048D000BB613B685B6803F40033002B03D0BA690B
:1048E0003B691343BB611D4ABB6953601B4B1B688B
:1048F000BB613B69DB43BA691340BB613B685B68E2
:1049000003F48033002B03D0BA693B691343BB61C6
:10491000124ABB691360FB690133FB61FB690F2B12
:104920007FF690AE00BF00BF2437BD465DF8047B24
:10493000704700BF003802400038014000000240CC
:104940000004024000080240000C02400010024037
:104950000014024000180240001C0240003C0140CC
:1049600080B483B000AF78600B467B8013467B70C9
:104970007B78002B03D07A887B689A6103E07B8880
:104980001A047B689A6100BF0C37BD465DF8047B52
:104990007047000080B584B000AF78607B68002B62
:1049A00001D101232BE17B6893F83D30DBB2002B72
:1049B00006D17B68002283F83C207868FDF75EFE14
:1049C0007B68242283F83D207B681B681A687B681B
:1049D0001B6822F001021A607B681B681A687B68FA
:1049E0001B6842F400421A607B681B681A687B6887
:1049F0001B6822F400421A6001F08EFDF8607B68AB
:104A00005B68814A934207D8FB68804A934294BF0F
:104A100001230023DBB206E0FB687D4A934294BF8A
:104A200001230023DBB2002B01D00123E7E0FB6868
:104A3000784AA2FB03239B0CBB607B681B685B6806
:104A400023F03F017B681B68BA680A435A607B68A1
:104A50001B681B6A23F03F017B685B686A4A9342CC
:104A600002D8BB68013309E0BB684FF4967202FBC1
:104A700003F3694AA2FB03239B0901337A68126896
:104A80000B4313627B681B68DB6923F44F4222F0FF
:104A9000FF027B685B685C498B4219D8FB68591E32
:104AA0007B685B685B00B1FBF3F3591C40F6FC7359
:104AB0000B40002B0AD0FB68591E7B685B685B00CB
:104AC000B1FBF3F30133C3F30B0351E004234FE0D5
:104AD0007B689B68002B11D1FB68581E7B68596866
:104AE0000B465B000B44B0FBF3F30133C3F30B0342
:104AF000002B0CBF01230023DBB212E0FB68581E21
:104B00007B6859680B469B000B4499000B44B0FB33
:104B1000F3F30133C3F30B03002B0CBF012300237A
:104B2000DBB2002B01D0012322E07B689B68002BC5
:104B30000ED1FB68581E7B6859680B465B000B441E
:104B4000B0FBF3F30133C3F30B0343F400430FE073
:104B5000FB68581E7B6859680B469B000B44990004
:104B60000B44B0FBF3F30133C3F30B0343F44043B3
:104B7000796809681343CB617B681B681B6823F065
:104B8000C0017B68DA697B681B6A1A437B681B6813
:104B90000A431A607B681B689B6823F4034323F075
:104BA000FF037A6811697A68D26811437A681268DB
:104BB0000B4393607B681B68DB6823F0FF017B6815
:104BC0005A697B689B691A437B681B680A43DA60F1
:104BD0007B681B681A687B681B6842F001021A60D8
:104BE0007B6800221A647B68202283F83D207B6862
:104BF00000221A637B68002283F83E2000231846B7
:104C00001037BD4680BD00BFA08601007F841E0016
:104C1000FF083D0083DE1B43D34D621080B588B092
:104C200002AFF860084611461A4603467B810B46E0
:104C30003B811346FB80FEF783F87861FB6893F8AD
:104C40003D30DBB2202B40F0D9807B6900931923E3
:104C500001226D49F86800F0B9FD0346002B01D030
:104C60000223CCE0FB6893F83C30012B01D10223F6
:104C7000C5E0FB68012283F83C20FB681B681B68C9
:104C800003F00103012B07D0FB681B681A68FB685F
:104C90001B6842F001021A60FB681B681A68FB6817
:104CA0001B6822F400621A60FB68212283F83D2011
:104CB000FB68402283F83E20FB6800221A64FB68F0
:104CC0003A6A5A62FB68BA8C5A85FB685B8D9AB265
:104CD000FB681A85FB684D4ADA62F8883A89798957
:104CE0007B690193BB6A00930346F86800F0F0FB10
:104CF0000346002B52D0012381E07A69B96AF86833
:104D000000F07EFE0346002B0DD0FB681B6C042BCD
:104D100007D1FB681B681A68FB681B6842F40072C5
:104D20001A6001236BE0FB685B6A1A78FB681B68FA
:104D30001A61FB685B6A5A1CFB685A62FB681B8D30
:104D4000013B9AB2FB681A85FB685B8D9BB2013B05
:104D50009AB2FB685A85FB681B685B6903F0040321
:104D6000042B1BD1FB681B8D002B17D0FB685B6AE3
:104D70001A78FB681B681A61FB685B6A5A1CFB683F
:104D80005A62FB681B8D013B9AB2FB681A85FB686F
:104D90005B8D9BB2013B9AB2FB685A85FB681B8D09
:104DA000002BAAD17A69B96AF86800F071FE03464F
:104DB000002B0DD0FB681B6C042B07D1FB681B6814
:104DC0001A68FB681B6842F400721A60012316E03F
:104DD000FB681B681A68FB681B6842F400721A6063
:104DE000FB68202283F83D20FB68002283F83E20E8
:104DF000FB68002283F83C20002300E002231846D1
:104E00001837BD4680BD00BF020010000000FFFF44
:104E100080B58CB002AFF860084611461A460346CA
:104E20007B810B463B811346FB80FDF789FF78624F
:104E3000FB6893F83D30DBB2202B40F014827B6A94
:104E40000093192301227B49F86800F0BFFC034658
:104E5000002B01D0022307E2FB6893F83C30012BC2
:104E600001D1022300E2FB68012283F83C20FB68A9
:104E70001B681B6803F00103012B07D0FB681B684C
:104E80001A68FB681B6842F001021A60FB681B6825
:104E90001A68FB681B6822F400621A60FB68222211
:104EA00083F83D20FB68402283F83E20FB68002207
:104EB0001A64FB683A6B5A62FB68BA8E5A85FB68C3
:104EC0005B8D9AB2FB681A85FB685B4ADA62F888E8
:104ED0003A8979897B6A0193BB6B00930346F86832
:104EE00000F08CFB0346002B01D00123BCE1FB68E2
:104EF0001B8D002B13D100233B62FB681B685B6991
:104F00003B62FB681B689B693B623B6AFB681B68F2
:104F10001A68FB681B6842F400721A6090E1FB6833
:104F20001B8D012B1BD1FB681B681A68FB681B6873
:104F300022F480621A600023FB61FB681B685B69D6
:104F4000FB61FB681B689B69FB61FB69FB681B6875
:104F50001A68FB681B6842F400721A6070E1FB6813
:104F60001B8D022B1BD1FB681B681A68FB681B6832
:104F700022F480621A60FB681B681A68FB681B6871
:104F800042F400621A600023BB61FB681B685B6926
:104F9000BB61FB681B689B69BB61BB6950E1002377
:104FA0007B61FB681B685B697B61FB681B689B69B5
:104FB0007B617B6944E1FB681B8D032B00F2F18070
:104FC000FB681B8D012B23D17A6AB96BF86800F05E
:104FD000A7FD0346002B01D0012345E1FB681B68B8
:104FE0001A69FB685B6AD2B21A70FB685B6A5A1C6A
:104FF000FB685A62FB681B8D013B9AB2FB681A85FD
:10500000FB685B8D9BB2013B9AB2FB685A8517E146
:10501000FB681B8D022B4ED17B6A0093BB6B002279
:105020000649F86800F0D2FB0346002B08D00123A4
:105030001AE100BF020010000000FFFF04000100A1
:10504000FB681B681A68FB681B6842F400721A60F0
:10505000FB681B681A69FB685B6AD2B21A70FB684E
:105060005B6A5A1CFB685A62FB681B8D013B9AB253
:10507000FB681A85FB685B8D9BB2013B9AB2FB68AB
:105080005A85FB681B681A69FB685B6AD2B21A70A2
:10509000FB685B6A5A1CFB685A62FB681B8D013B0C
:1050A0009AB2FB681A85FB685B8D9BB2013B9AB292
:1050B000FB685A85C4E07B6A0093BB6B00226C4995
:1050C000F86800F083FB0346002B01D00123CBE0FE
:1050D000FB681B681A68FB681B6822F480621A6010
:1050E000FB681B681A69FB685B6AD2B21A70FB68BE
:1050F0005B6A5A1CFB685A62FB681B8D013B9AB2C3
:10510000FB681A85FB685B8D9BB2013B9AB2FB681A
:105110005A857B6A0093BB6B00225549F86800F002
:1051200055FB0346002B01D001239DE0FB681B6863
:105130001A68FB681B6842F400721A60FB681B68FF
:105140001A69FB685B6AD2B21A70FB685B6A5A1C08
:10515000FB685A62FB681B8D013B9AB2FB681A859B
:10516000FB685B8D9BB2013B9AB2FB685A85FB687A
:105170001B681A69FB685B6AD2B21A70FB685B6ACB
:105180005A1CFB685A62FB681B8D013B9AB2FB6894
:105190001A85FB685B8D9BB2013B9AB2FB685A850E
:1051A0004EE07A6AB96BF86800F0BAFC0346002B4F
:1051B00001D0012358E0FB681B681A69FB685B6A31
:1051C000D2B21A70FB685B6A5A1CFB685A62FB68B1
:1051D0001B8D013B9AB2FB681A85FB685B8D9BB205
:1051E000013B9AB2FB685A85FB681B685B6903F058
:1051F0000403042B24D1FB681B8D032B07D1FB6810
:105200001B681A68FB681B6822F480621A60FB68DE
:105210001B681A69FB685B6AD2B21A70FB685B6A2A
:105220005A1CFB685A62FB681B8D013B9AB2FB68F3
:105230001A85FB685B8D9BB2013B9AB2FB685A856D
:10524000FB681B8D002B7FF4B6AEFB68202283F831
:105250003D20FB68002283F83E20FB68002283F893
:105260003C20002300E0022318462837BD4680BDBD
:105270000400010080B58AB002AFF8607A603B603C
:105280000B467B81FDF75CFDF8610023BB61FB6889
:1052900093F83D30DBB2202B40F01181FB69009385
:1052A000192301228849F86800F090FA0346002B80
:1052B00001D0022304E1FB6893F83C30012B01D1BB
:1052C0000223FDE0FB68012283F83C20FB681B6899
:1052D0001B6803F00103012B07D0FB681B681A68E9
:1052E000FB681B6842F001021A60FB681B681A68C1
:1052F000FB681B6822F400621A60FB68242283F8B2
:105300003D20FB6800221A64FB68704ADA62FB6881
:105310001B681A68FB681B6842F480721A60FB699C
:1053200000933B6800224FF00111F86800F04EFA3C
:105330000346002B0DD0FB681B681B6803F48073C9
:10534000B3F5807F03D1FB684FF400721A64032326
:10535000B6E07B89DBB21A46FB681B6802F0FE02EE
:105360001A61FDF7EDFCF861FB681B685B6903F0EF
:105370000203022B0CBF01230023DBB2FB75FB6889
:105380001B685B6903F48063B3F5806F0CBF012376
:105390000023DBB2BB7525E0FDF7D2FC0246FB69BA
:1053A000D31A3A689A4202D33B68002B03D1FB68B8
:1053B000A02283F83D20FB681B685B6903F00203B1
:1053C000022B0CBF01230023DBB2FB75FB681B68BB
:1053D0005B6903F48063B3F5806F0CBF0123002386
:1053E000DBB2BB75FB6893F83D30DBB2A02B05D078
:1053F000FB7D002B02D1BB7D002BCDD0FB68202292
:1054000083F83D20FB681B685B6903F00203022BF5
:1054100029D1FB681B681A68FB681B6842F400729C
:105420001A6000233B61FB681B685B693B61FB689A
:105430001B689B693B613B69FB690093192301224F
:105440002149F86800F0C2F90346002B01D001237E
:1054500036E0FB68202283F83D20FB68002283F8B9
:105460003C2000232CE0FB681B681A68FB681B6863
:1054700042F400721A60FB681B686FF480625A6124
:10548000FB690093192301220F49F86800F09EF987
:105490000346002B01D0012312E0BB690133BB613D
:1054A000BA697B689A42FFF432AFFB68202283F826
:1054B0003D20FB68002283F83C20012300E002230A
:1054C00018462037BD4680BD020010000000FFFFD7
:1054D00080B588B002AFF860084611461A46034608
:1054E0007B810B463B811346FB80FB681B681A6877
:1054F000FB681B6842F480721A607B6A00933B6A07
:1055000000224FF00111F86800F060F90346002B0B
:105510000DD0FB681B681B6803F48073B3F5807FB4
:1055200003D1FB684FF400721A6403235FE07B89A8
:10553000DBB21A46FB681B6802F0FE021A617B6A46
:105540003A6A2D49F86800F0BBF90346002B01D0F8
:1055500001234CE000237B61FB681B685B697B6176
:10556000FB681B689B697B617B697A6A396AF868AA
:1055700000F046FA0346002B0DD0FB681B6C042B91
:1055800007D1FB681B681A68FB681B6842F400724D
:105590001A6001232BE0FB88012B05D13B89DAB28D
:1055A000FB681B681A6121E03B891B0A9BB2DAB2D7
:1055B000FB681B681A617A6A396AF86800F020FA99
:1055C0000346002B0DD0FB681B6C042B07D1FB6836
:1055D0001B681A68FB681B6842F400721A6001239A
:1055E00005E03B89DAB2FB681B681A6100231846A4
:1055F0001837BD4680BD00BF0200010080B588B0ED
:1056000002AFF860084611461A4603467B810B46F6
:105610003B811346FB80FB681B681A68FB681B68AC
:1056200042F480621A60FB681B681A68FB681B689A
:1056300042F480721A607B6A00933B6A00224FF04A
:105640000111F86800F0C2F80346002B0DD0FB688A
:105650001B681B6803F48073B3F5807F03D1FB687C
:105660004FF400721A640323AAE07B89DBB21A4666
:10567000FB681B6802F0FE021A617B6A3A6A5249B3
:10568000F86800F01DF90346002B01D0012397E0D4
:1056900000237B61FB681B685B697B61FB681B689F
:1056A0009B697B617B697A6A396AF86800F0A8F9BE
:1056B0000346002B0DD0FB681B6C042B07D1FB6845
:1056C0001B681A68FB681B6842F400721A600123A9
:1056D00076E0FB88012B05D13B89DAB2FB681B68B9
:1056E0001A6121E03B891B0A9BB2DAB2FB681B6896
:1056F0001A617A6A396AF86800F082F90346002B69
:105700000DD0FB681B6C042B07D1FB681B681A6863
:10571000FB681B6842F400721A60012350E03B8969
:10572000DAB2FB681B681A617A6A396AF86800F0B5
:1057300067F90346002B0DD0FB681B6C042B07D1C7
:10574000FB681B681A68FB681B6842F400721A60E9
:10575000012335E0FB681B681A68FB681B6842F48C
:1057600080721A607B6A00933B6A00224FF001113D
:10577000F86800F02BF80346002B0DD0FB681B687F
:105780001B6803F48073B3F5807F03D1FB684FF48B
:1057900000721A64032313E07B89DBB243F0010338
:1057A000DAB2FB681B681A617B6A3A6A0649F868D4
:1057B00000F086F80346002B01D0012300E000230F
:1057C00018461837BD4680BD0200010080B584B080
:1057D00000AFF860B9603B601346FB7148E03B687E
:1057E000B3F1FF3F44D0FDF7ABFA0246BB69D31AD1
:1057F0003A689A4202D33B68002B39D1BB681B0C34
:10580000DBB2012B0DD1FB681B685B69DA43BB6817
:1058100013409BB2002B0CBF01230023DBB21A46BE
:105820000CE0FB681B689B69DA43BB6813409BB2C2
:10583000002B0CBF01230023DBB21A46FB799A42EE
:1058400016D1FB6800221A63FB68202283F83D20F2
:10585000FB68002283F83E20FB681B6C43F02002AB
:10586000FB681A64FB68002283F83C20012323E0D4
:10587000BB681B0CDBB2012B0DD1FB681B685B699D
:10588000DA43BB6813409BB2002B0CBF01230023FB
:10589000DBB21A460CE0FB681B689B69DA43BB6805
:1058A00013409BB2002B0CBF01230023DBB21A462E
:1058B000FB799A4293D0002318461037BD4680BD2D
:1058C00080B584B000AFF860B9607A603B6071E089
:1058D000FB681B685B6903F48063B3F5806F23D1B9
:1058E000FB681B681A68FB681B6842F400721A6048
:1058F000FB681B686FF480625A61FB6800221A63C0
:10590000FB68202283F83D20FB68002283F83E20BC
:10591000FB681B6C43F00402FB681A64FB680022FE
:1059200083F83C20012367E07B68B3F1FF3F41D05F
:10593000FDF706FA02463B68D31A7A689A4202D308
:105940007B68002B36D1BB681B0CDBB2012B0CD162
:10595000FB681B685B69DA43BB6813409BB2002B92
:1059600014BF01230023DBB20BE0FB681B689B69BB
:10597000DA43BB6813409BB2002B14BF0123002302
:10598000DBB2002B16D0FB6800221A63FB682022D2
:1059900083F83D20FB68002283F83E20FB681B6CE7
:1059A00043F02002FB681A64FB68002283F83C2065
:1059B000012321E0BB681B0CDBB2012B0CD1FB687F
:1059C0001B685B69DA43BB6813409BB2002B14BFB2
:1059D00001230023DBB20BE0FB681B689B69DA4301
:1059E000BB6813409BB2002B14BF01230023DBB222
:1059F000002B7FF46DAF002318461037BD4680BDE5
:105A000080B584B000AFF860B9607A6034E0F868BF
:105A100000F0E3F80346002B01D0012334E0BB681B
:105A2000B3F1FF3F28D0FDF78BF902467B68D31A0C
:105A3000BA689A4202D3BB68002B1DD1FB681B6871
:105A40005B6903F08003802B16D0FB6800221A6389
:105A5000FB68202283F83D20FB68002283F83E206B
:105A6000FB681B6C43F02002FB681A64FB68002291
:105A700083F83C20012307E0FB681B685B6903F0A7
:105A80008003802BC3D1002318461037BD4680BD4C
:105A900080B584B000AFF860B9607A6034E0F8682F
:105AA00000F09BF80346002B01D0012334E0BB68D3
:105AB000B3F1FF3F28D0FDF743F902467B68D31AC4
:105AC000BA689A4202D3BB68002B1DD1FB681B68E1
:105AD0005B6903F00403042B16D0FB6800221A63F1
