:020000040800F2
:10000000000002201D0B00086109000869090008B2
:100010007109000879090008810900080000000042
:100020000000000000000000000000008909000836
:100030009709000800000000A5090008B30900089E
:100040006D0B00086D0B00086D0B00086D0B0008B0
:100050006D0B00086D0B00086D0B00086D0B0008A0
:100060006D0B00086D0B00086D0B00086D0B000890
:100070006D0B00086D0B00086D0B00086D0B000880
:100080006D0B00086D0B0008C10900086D0B00081E
:100090006D0B00086D0B00086D0B00086D0B000860
:1000A0006D0B00086D0B00086D0B00086D0B000850
:1000B0006D0B00086D0B00086D0B00086D0B000840
:1000C0006D0B00086D0B00086D0B00086D0B000830
:1000D0006D0B00086D0B00086D0B00086D0B000820
:1000E0006D0B00086D0B00086D0B00086D0B000810
:1000F0006D0B00086D0B00086D0B00086D0B000800
:100100006D0B00086D0B00086D0B00086D0B0008EF
:100110006D0B00086D0B00086D0B00086D0B0008DF
:10012000D50900086D0B00086D0B00086D0B000869
:100130006D0B00086D0B00086D0B00086D0B0008BF
:100140006D0B00086D0B00086D0B00086D0B0008AF
:100150006D0B00086D0B00086D0B00086D0B00089F
:100160006D0B00086D0B00086D0B00086D0B00088F
:100170006D0B00086D0B00086D0B000800000000FF
:080180006D0B00086D0B000877
:1001880010B5054C237833B9044B13B10448AFF3C9
:1001980000800123237010BD6800002000000000CB
:1001A8005835000808B5034B1BB103490348AFF3A2
:1001B800008008BD000000006C00002058350008D1
:1001C80053B94AB9002908BF00281CBF4FF0FF31B6
:1001D8004FF0FF3000F088B9ADF1080C6DE904CE9E
:1001E80000F006F8DDF804E0DDE9022304B070470A
:1001F8002DE9F047089D8E4604468846002B4AD1D3
:100208008A42174662D9B2FA82F64EB1C6F1200385
:1002180001FA06F820FA03F3B74043EA0808B440A5
:100228004FEA174E1FFA87FCB8FBFEF1230C0EFBB2
:10023800118843EA084301FB0CF29A4209D9FB18DA
:1002480001F1FF3080F0EA809A4240F2E7800239FB
:100258003B449A1AA3B2B2FBFEF00EFB102243EA0B
:10026800024300FB0CFC9C4509D9FB1800F1FF3246
:1002780080F0D6809C4540F2D3803B44023840EA67
:100288000140A3EB0C0300211DB1F3400022C5E996
:100298000032BDE8F0878B4205D90DB1C5E90001F0
:1002A80000210846F5E7B3FA83F1002946D17345E2
:1002B80002D3824200F20581841A6EEB0302012008
:1002C8009046002DE5D0C5E90048E2E7002A00F095
:1002D8009080B2FA82F6002E40F0A4808A1A030CAD
:1002E8004FEA174E80B2BCB20121B2FBFEFC0EFBF6
:1002F8001C2243EA024304FB0CF29A4207D9FB187A
:100308000CF1FF3802D29A4200F2E080C4469B1AF0
:10031800B3FBFEF20EFB123340EA034302FB04F484
:100328009C4207D9FB1802F1FF3002D29C4200F22E
:10033800CA8002461B1B42EA0C40A5E7C1F1200611
:100348008B4022FA06F71F430EFA01F420FA06F34F
:100358002EFA06FE4FEA1749234300FA01F81FFA5E
:1003680087FCBEFBF9F01C0C09FB10EE44EA0E44B6
:1003780000FB0CFEA64502FA01F209D93C1900F16E
:10038800FF3A80F09C80A64540F2998002383C44B0
:10039800A4EB0E041FFA83FEB4FBF9F309FB134424
:1003A8004EEA044403FB0CFCA44508D93C1903F1AC
:1003B800FF3E80F08280A4457FD9023B3C4443EA5B
:1003C8000040A4EB0C04A0FB02EC64457346E14634
:1003D80062D35FD05DB1B8EB030264EB090404FAA1
:1003E80006F622FA01F31E43CC40C5E90064002159
:1003F8004FE7B1FBF2FC010C41EA0E4180B240EA42
:1004080001423B4638463C46B846BE462026B1FB2C
:10041800F7F1A2EB080241EA0C4166E7014618E74A
:1004280010462CE7C6F120022EFA02F3B740B1407D
:1004380020FA02F24FEA174E0A43B3FBFEF8BCB2A9
:100448000EFB1833110C41EA034108FB04F9B040D4
:1004580089454FEA104380B23ED9791808F1FF3C2C
:1004680001D289451FD8A1EB0901B1FBFEF909FBAF
:1004780004F80EFB191192B242EA0142424529D210
:10048800BA1809F1FF31C4D24245C2D2A9F102011A
:100498003A44BEE7F0459DD2BEEB02036CEB070C75
:1004A8000138E14696E7A7EB09094944A8F1020C8F
:1004B800B1FBFEF909FB04F8DBE773467FE750461A
:1004C80066E70846FDE63B44023A33E7ACF1020C26
:1004D8003B441CE749469CE7A1EB0901C446B1FB34
:1004E800FEF909FB04F8C4E7704700BF80B483B085
:1004F80000AF78604FF06043D3F8803E03F001030B
:10050800002B13D04FF06043D3F8003E03F00103F3
:10051800002B0BD000E000BF4FF060431B68002B9E
:10052800F9D04FF060437A68D2B21A707B681846E7
:100538000C37BD465DF8047B704780B483B000AFCC
:10054800786000BF0C37BD465DF8047B704700003B
:1005580080B582B000AF00F007FB00F02FF800F084
:1005680017F900F0F5F800F093F802220E490F4849
:1005780000F0E4FC0346FB710B4B5B881D2B03D892
:100588000B4802F051FC0BE0074B5B88B3F57A6F20
:1005980003D9084802F048FC02E0074802F044FC8E
:1005A800642000F053FBE7E7840000208800002067
:1005B8007035000894350008BC35000880B594B043
:1005C80000AF07F1200330220021184602F00CFD8D
:1005D80007F10C0300221A605A609A60DA601A6107
:1005E8000023BB60284B1B6C274A43F080531364DD
:1005F800254B1B6C03F08053BB60BB6800237B60FA
:10060800224B1B68214A43F4804313601F4B1B682D
:1006180003F480437B607B6802233B620123FB6217
:1006280010233B630223BB630023FB6308233B6463
:1006380050237B640223BB640723FB6407F1200378
:10064800184601F075FE0346002B01D000F0D6F8DD
:100658000F23FB6002233B6100237B614FF480532F
:10066800BB614FF48053FB6107F10C03022118466C
:1006780002F0D6F80346002B01D000F0BFF800BF07
:100688005037BD4680BD00BF0038024000700040B2
:1006980080B584B000AF3B4600221A605A609A6069
:1006A800DA60284B284A1A60264B4FF480325A6089
:1006B800244B00229A60234B01221A61214B01220C
:1006C8001A76204B002283F820201E4B0022DA6283
:1006D8001C4B1E4A9A621B4B0022DA60194B0222FD
:1006E800DA61184B012283F83020164B00225A6138
:1006F800144800F0CFFA0346002B01D000F07EF832
:1007080001233B6001237B600723BB603B461946FE
:100718000C4800F045FD0346002B01D000F06EF8B0
:1007280002233B6002237B603B461946054800F0E4
:1007380037FD0346002B01D000F060F800BF1037EA
:10074800BD4680BD88000020002001400100000F48
:1007580080B582B000AF00237B600C4B1B6B0B4A4B
:1007680043F480031363094B1B6B03F480037B6022
:100778007B6800220021382001F097F8382001F02A
:10078800B0F800BF0837BD4680BD00BF0038024042
:1007980080B483B000AF00237B60094B1B6B084A11
:1007A80043F001031363064B1B6B03F001037B60EB
:1007B8007B6800BF0C37BD465DF8047B704700BFFF
:1007C8000038024080B586B000AFF860B9607A6042
:1007D80000237B6109E0BB685A1CBA601B78184685
:1007E800FFF784FE7B6901337B617A697B689A42F3
:1007F800F1DB7B6818461837BD4680BD80B400AF72
:1008080072B600BF00BFFDE780B582B000AF00231D
:100818007B60104B5B6C0F4A43F4804353640D4B71
:100828005B6C03F480437B607B6800233B60094B6F
:100838001B6C084A43F080531364064B1B6C03F08F
:1008480080533B603B68072001F024F800BF08375D
:10085800BD4680BD0038024080B58AB000AF7860E0
:1008680007F1140300221A605A609A60DA601A616C
:100878007B681B68334A93425FD100233B61324B4C
:100888005B6C314A43F4807353642F4B5B6C03F405
:1008980080733B613B690023FB602B4B1B6B2A4A2F
:1008A80043F001031363284B1B6B03F00103FB6048
:1008B800FB6806237B610323BB610023FB6107F10F
:1008C80014031946214801F097FB214B214A1A606D
:1008D8001F4B00225A601E4B00229A601C4B0022BC
:1008E800DA601B4B4FF480621A61194B4FF40062B7
:1008F8005A61174B4FF400529A61154B4FF48072AE
:10090800DA61134B00221A62114B00225A62104816
:1009180001F002F80346002B01D0FFF76FFF7B6858
:100928000B4A9A630A4A7B689363002200211220CB
:1009380000F0BBFF122000F0D4FF00BF2837BD46EF
:1009480080BD00BF00200140003802400000024086
:10095800D00000201064024080B400AF00BFFDE763
:1009680080B400AF00BFFDE780B400AF00BFFDE773
:1009780080B400AF00BFFDE780B400AF00BFFDE763
:1009880080B400AF00BFBD465DF8047B704780B4FB
:1009980000AF00BFBD465DF8047B704780B400AF70
:1009A80000BFBD465DF8047B704780B500AF00F01E
:1009B8002DF900BF80BD000080B500AF024800F0EF
:1009C800ACF900BF80BD00BF8800002080B500AF33
:1009D800024801F0A7F800BF80BD00BFD00000208A
:1009E80080B586B000AFF860B9607A6000237B619B
:1009F8000AE0AFF300800146BB685A1CBA60CAB26D
:100A08001A707B6901337B617A697B689A42F0DBF3
:100A18007B6818461837BD4680BD80B483B000AFE8
:100A280078604FF0FF3318460C37BD465DF8047BFD
:100A3800704780B483B000AF786039603B684FF48A
:100A480000525A60002318460C37BD465DF8047BF7
:100A5800704780B483B000AF7860012318460C3724
:100A6800BD465DF8047B704780B485B000AFF86080
:100A7800B9607A60002318461437BD465DF8047BD8
:100A88007047000080B586B000AF7860144A154BF7
:100A9800D31A7B617B693B61134B1B68002B02D126
:100AA800114B124A1A60104B1A687B6813443A6952
:100AB8009A4207D202F0E6FA03460C221A604FF077
:100AC800FF3309E0084B1B68FB60074B1A687B681B
:100AD8001344054A1360FB6818461837BD4680BDA5
:100AE80000000220000400003001002088020020DD
:100AF80080B400AF064BD3F88830054A43F470033E
:100B0800C2F8883000BFBD465DF8047B704700BF5F
:100B180000ED00E0DFF834D0FFF7EAFF0C480D499C
:100B28000D4A002302E0D458C4500433C4188C4240
:100B3800F9D30A4A0A4C002301E013600432A242A6
:100B4800FBD302F0A5FAFFF703FD7047000002206F
:100B580000000020680000200C3600086800002013
:100B680084020020FEE7000080B500AF0E4B1B6832
:100B78000D4A43F4007313600B4B1B680A4A43F495
:100B880080631360084B1B68074A43F48073136043
:100B9800032000F07FFE002000F008F8FFF734FE85
:100BA8000023184680BD00BF003C024080B582B0DB
:100BB80000AF7860124B1A68124B1B7819464FF435
:100BC8007A73B3FBF1F3B2FBF3F3184600F097FE28
:100BD8000346002B01D001230EE07B680F2B0AD8B7
:100BE800002279684FF0FF3000F05FFE064A7B680C
:100BF8001360002300E0012318460837BD4680BD76
:100C080000000020080000200400002080B400AF8D
:100C1800064B1B781A46064B1B681344044A13609C
:100C280000BFBD465DF8047B704700BF0800002088
:100C38003401002080B400AF034B1B681846BD4642
:100C48005DF8047B704700BF3401002080B584B094
:100C580000AF7860FFF7EEFFB8607B68FB60FB6869
:100C6800B3F1FF3F05D00A4B1B781A46FB681344C3
:100C7800FB6000BFFFF7DEFF0246BB68D31AFA68C5
:100C88009A42F7D800BF00BF1037BD4680BD00BFED
:100C98000800002080B584B000AF78600023FB73A3
:100CA8007B68002B01D1012333E07B681B6C002B90
:100CB80009D17868FFF7D0FD7B6800225A647B6809
:100CC800002283F83C207B681B6C03F01003002B88
:100CD80018D17B681B6C23F4885323F0020343F07C
:100CE80002027B681A64786800F07CFB7B6800224B
:100CF8005A647B681B6C23F0030343F001027B6892
:100D08001A6401E00123FB737B68002283F83C200E
:100D1800FB7B18461037BD4680BD80B586B000AF56
:100D2800786000237B6100233B617B681B681B683C
:100D3800FB607B681B685B68BB60FB6803F00203B1
:100D48007B61BB6803F020033B617B69002B49D0C2
:100D58003B69002B46D07B681B6C03F01003002B0B
:100D680005D17B681B6C43F400727B681A647B684E
:100D78001B689B6803F04053002B2BD17B681B7EBC
:100D8800002B27D17B681B68DB6A03F47003002BF8
:100D980006D07B681B689B6803F48063002B19D11D
:100DA8007B681B685A687B681B6822F020025A60BF
:100DB8007B681B6C23F480727B681A647B681B6CED
:100DC80003F48053002B05D17B681B6C43F00102B0
:100DD8007B681A647868FFF7B0FB7B681B686FF064
:100DE80012021A60FB6803F004037B61BB6803F01E
:100DF80080033B617B69002B57D03B69002B54D0A3
:100E08007B681B6C03F01003002B05D17B681B6CFF
:100E180043F400527B681A647B681B689B6803F480
:100E28004013002B39D17B681B689B6B03F440137C
:100E3800002B06D07B681B689B6803F48063002B3B
:100E48002BD17B681B685B6803F48063002B24D17B
:100E58007B681B689B6803F04053002B1DD17B689F
:100E68001B7E002B19D17B681B685A687B681B683E
:100E780022F080025A607B681B6C23F480527B68E6
:100E88001A647B681B6C03F48073002B05D17B68A4
:100E98001B6C43F001027B681A64786800F020FC40
:100EA8007B681B686FF00C021A60FB6803F0010393
:100EB8007B61BB6803F040033B617B69002B17D063
:100EC8003B69002B14D07B681B681B6803F0010387
:100ED800012B0DD17B681B6C43F480327B681A644C
:100EE800786800F049F97B681B686FF001021A60A6
:100EF800FB6803F020037B61BB6803F080633B6100
:100F08007B69002B15D03B69002B12D07B685B6C8A
:100F180043F002027B685A647B681B686FF020020A
:100F28001A60786800F032F97B681B686FF020025D
:100F38001A6000BF1837BD4680BD000080B588B074
:100F480000AFF860B9607A6000237B610023FB770B
:100F5800FB6893F83C30012B01D10223EBE0FB68DE
:100F6800012283F83C20FB681B689B6803F001039F
:100F7800012B18D0FB681B689A68FB681B6842F055
:100F880001029A606E4B1B686E4AA2FB03239A0CFF
:100F980013465B0013447B6102E07B69013B7B6184
:100FA8007B69002BF9D1FB681B689B6803F480738D
:100FB800B3F5807F07D1FB681B689A68FB681B68DC
:100FC80022F480729A60FB681B689B6803F0010337
:100FD800012B40F0A380FB681B6C23F4E06323F033
:100FE800010343F48072FB681A64FB681B685B6842
:100FF80003F48063002B07D0FB681B6C23F4405379
:1010080043F48052FB681A64FB681B6C03F480533A
:10101800B3F5805F06D1FB685B6C23F00602FB68C2
:101028005A6402E0FB6800225A64FB68002283F8D5
:101038003C20454BBB61FB689B6B444ADA63FB6809
:101048009B6B434A1A64FB689B6B424ADA64FB68F1
:101058001B686FF022021A60FB681B685A68FB68FD
:101068001B6842F080625A60FB681B689A68FB68DC
:101078001B6842F480729A60FB68986BFB681B6877
:101088004C331946BA687B6800F0F4FC0346FB77DA
:10109800BB695B6803F01F03002B2AD1FB681B6840
:1010A8002D4A934215D0FB681B682C4A934205D100
:1010B800254B5B6803F01F03002B0AD0FB681B68F5
:1010C800274A934236D1204B5B6803F01003002B6C
:1010D80030D1FB681B689B6803F04053002B29D173
:1010E800FB681B689A68FB681B6842F080429A603C
:1010F80020E0FB681B68184A93421BD1FB681B68F9
:101108009B6803F04053002B14D1FB681B689A6856
:10111800FB681B6842F080429A600BE0FB681B6C1E
:1011280043F01002FB681A64FB685B6C43F0010231
:10113800FB685A64FB7F18462037BD4680BD00BF58
:101148000000002083DE1B4300230140E515000852
:101158009F160008BB16000800200140002101402E
:101168000022014080B483B000AF786000BF0C3724
:10117800BD465DF8047B704780B483B000AF7860EB
:1011880000BF0C37BD465DF8047B704780B483B060
:1011980000AF786000BF0C37BD465DF8047B704730
:1011A80080B485B000AF786039600023BB607B688D
:1011B80093F83C30012B01D1022305E17B68012221
:1011C80083F83C203B681B68092B25D97B681B6882
:1011D800D9683B681B689BB21A4613465B001344E8
:1011E8001E3B072202FA03F3DA437B681B680A40B6
:1011F800DA607B681B68D9683B689A683B681B683B
:101208009BB2184603465B0003441E3B9A407B682A
:101218001B680A43DA6022E07B681B6819693B682F
:101228001B689BB21A4613465B001344072202FA56
:1012380003F3DA437B681B680A401A617B681B6802
:1012480019693B689A683B681B689BB21846034655
:101258005B0003449A407B681B680A431A613B6839
:101268005B68062B24D87B681B68596B3B685A68F7
:1012780013469B001344053B1F2202FA03F3DA438B
:101288007B681B680A405A637B681B68596B3B681C
:101298001B689BB218463B685A6813469B00134468
:1012A800053B00FA03F27B681B680A435A634CE06B
:1012B8003B685B680C2B24D87B681B68196B3B6800
:1012C8005A6813469B001344233B1F2202FA03F378
:1012D800DA437B681B680A401A637B681B68196BD2
:1012E8003B681B689BB218463B685A6813469B00CC
:1012F8001344233B00FA03F27B681B680A431A6312
:1013080023E07B681B68D96A3B685A6813469B00D0
:101318001344413B1F2202FA03F3DA437B681B683C
:101328000A40DA627B681B68D96A3B681B689BB213
:1013380018463B685A6813469B001344413B00FA21
:1013480003F27B681B680A43DA62224BFB607B6806
:101358001B68214A934209D13B681B68122B05D1AF
:10136800FB685B6843F48002FB685A607B681B6813
:10137800194A934223D13B681B68102B03D03B6862
:101388001B68112B1BD1FB685B6843F40002FB68E8
:101398005A603B681B68102B11D1104B1B68104A10
:1013A800A2FB03239A0C13469B0013445B00BB600B
:1013B80002E0BB68013BBB60BB68002BF9D17B68CE
:1013C800002283F83C20002318461437BD465DF8F8
:1013D800047B7047002301400020014000000020EA
:1013E80083DE1B4380B485B000AF7860794BFB6027
:1013F800FB685B6823F44032FB685A60FB685A68F4
:101408007B685B681A43FB685A607B681B685A688C
:101418007B681B6822F480725A607B681B68596875
:101428007B681B691A027B681B680A435A607B68E1
:101438001B685A687B681B6822F040725A607B6898
:101448001B6859687B689A687B681B680A435A60FE
:101458007B681B689A687B681B6822F400629A6044
:101468007B681B6899687B68DA687B681B680A4335
:101478009A607B689B6A584A934222D07B681B68B3
:101488009A687B681B6822F070629A607B681B68A8
:1014980099687B689A6A7B681B680A439A607B68CC
:1014A8001B689A687B681B6822F040529A607B68C8
:1014B8001B6899687B68DA6A7B681B680A439A60CC
:1014C8000FE07B681B689A687B681B6822F0706273
:1014D8009A607B681B689A687B681B6822F0405298
:1014E8009A607B681B689A687B681B6822F0020216
:1014F8009A607B681B6899687B681B7E5A007B68CA
:101508001B680A439A607B6893F82030002B1BD035
:101518007B681B685A687B681B6842F400625A60E3
:101528007B681B685A687B681B6822F460425A60B3
:101538007B681B6859687B685B6A013B5A037B6858
:101548001B680A435A6007E07B681B685A687B6817
:101558001B6822F400625A607B681B68DA6A7B6841
:101568001B6822F47002DA627B681B68D96A7B68A0
:10157800DB69013B1A057B681B680A43DA627B68F2
:101588001B689A687B681B6822F400729A607B6803
:101598001B6899687B6893F830305A027B681B682F
:1015A8000A439A607B681B689A687B681B6822F408
:1015B80080629A607B681B6899687B685B699A029D
:1015C8007B681B680A439A6000BF1437BD465DF804
:1015D800047B7047002301400100000F80B584B0F0
:1015E80000AF78607B689B6BFB60FB681B6C03F04B
:1015F8005003002B3CD1FB681B6C43F40072FB6862
:101608001A64FB681B689B6803F04053002B2BD1BE
:10161800FB681B7E002B27D1FB681B68DB6A03F481
:101628007003002B06D0FB681B689B6803F480637B
:10163800002B19D1FB681B685A68FB681B6822F0ED
:1016480020025A60FB681B6C23F48072FB681A64E2
:10165800FB681B6C03F48053002B05D1FB681B6CE3
:1016680043F00102FB681A64F868FEF766FF0EE0B3
:10167800FB681B6C03F01003002B03D0F868FFF71E
:1016880085FD04E0FB689B6BDB6C7868984700BFBE
:101698001037BD4680BD80B584B000AF78607B68E8
:1016A8009B6BFB60F868FFF75DFD00BF1037BD4618
:1016B80080BD80B584B000AF78607B689B6BFB60B1
:1016C800FB6840221A64FB685B6C43F00402FB6809
:1016D8005A64F868FFF75AFD00BF1037BD4680BD51
:1016E80080B483B000AF786000BF0C37BD465DF8AA
:1016F800047B704780B485B000AF78607B6803F0E6
:101708000703FB600C4BDB68BB60BA684FF6FF034E
:101718001340BB60FB681A02BB68134343F0BF6306
:1017280043F40033BB60044ABB68D36000BF14377E
:10173800BD465DF8047B704700ED00E080B400AF63
:10174800044BDB681B0A03F007031846BD465DF827
:10175800047B704700ED00E080B483B000AF03461F
:10176800FB7197F90730002B0BDBFB7903F01F02A5
:10177800074997F907305B09012000FA02F241F89E
:10178800232000BF0C37BD465DF8047B704700BFBF
:1017980000E100E080B483B000AF03463960FB711C
:1017A80097F90730002B0ADB3B68DAB20C4997F946
:1017B80007301201D2B20B4483F800230AE03B68D9
:1017C800DAB20849FB7903F00F03043B1201D2B2E5
:1017D8000B441A7600BF0C37BD465DF8047B704792
:1017E80000E100E000ED00E080B489B000AFF860EF
:1017F800B9607A60FB6803F00703FB61FB69C3F11A
:101808000703042B28BF0423BB61FB690433062BA1
:1018180002D9FB69033B00E000237B614FF0FF32F4
:10182800BB6902FA03F3DA43BB681A407B699A4042
:101838004FF0FF317B6901FA03F3D9437B680B4012
:10184800134318462437BD465DF8047B70470000F3
:1018580080B582B000AF78607B68013BB3F1807FD0
:1018680001D301230FE00A4A7B68013B53600F2133
:101878004FF0FF30FFF78EFF054B00229A60044BB4
:1018880007221A60002318460837BD4680BD00BFEE
:1018980010E000E080B582B000AF78607868FFF7AC
:1018A80029FF00BF0837BD4680BD80B586B000AFB0
:1018B8000346B9607A60FB7300237B61FFF73EFF44
:1018C80078617A68B9687869FFF78EFF024697F9F8
:1018D8000F3011461846FFF75DFF00BF1837BD46A9
:1018E80080BD80B582B000AF0346FB7197F9073021
:1018F8001846FFF731FF00BF0837BD4680BD80B5E9
:1019080082B000AF78607868FFF7A2FF03461846F8
:101918000837BD4680BD000080B586B000AF78604E
:1019280000237B61FFF786F938617B68002B01D1C2
:10193800012399E07B68022283F835207B68002226
:1019480083F834207B681B681A687B681B6822F060
:1019580001021A600FE0FFF76DF902463B69D31ADE
:10196800052B08D97B6820225A657B68032283F8F7
:101978003520032378E07B681B681B6803F00103AC
:10198800002BE8D17B681B681B687B617A69384B40
:1019980013407B617B685A687B689B681A437B6845
:1019A800DB681A437B681B691A437B685B691A43C7
:1019B8007B689B691A437B68DB691A437B681B6AEF
:1019C80013437A6913437B617B685B6A042B07D1F5
:1019D8007B68DA6A7B681B6B13437A6913437B6104
:1019E8007B681B687A691A607B681B685B697B6126
:1019F8007B6923F007037B617B685B6A7A69134321
:101A08007B617B685B6A042B17D17B689B6A7A6968
:101A180013437B617B68DB6A002B0ED0786800F08B
:101A28006FFA0346002B08D07B6840225A657B6812
:101A3800012283F83520012316E07B681B687A6948
:101A48005A61786800F026FA0346FB607B68DB6D14
:101A58003F229A40FB689A607B6800225A657B683F
:101A6800012283F83520002318461837BD4680BD6B
:101A78003F8010F080B586B000AFF860B9607A603A
:101A88003B600023FB75FB689B6D3B61FB6893F82B
:101A98003430012B01D1022340E0FB68012283F896
:101AA8003420FB6893F83530DBB2012B2FD1FB686B
:101AB800022283F83520FB6800225A653B687A6861
:101AC800B968F86800F0B8F9FB68DB6D3F229A4006
:101AD8003B699A60FB681B681A68FB681B6842F0E0
:101AE80016021A60FB681B6C002B07D0FB681B688A
:101AF8001A68FB681B6842F008021A60FB681B68DA
:101B08001A68FB681B6842F001021A6005E0FB686E
:101B1800002283F834200223FB75FB7D1846183712
:101B2800BD4680BD80B586B000AF78600023BB603D
:101B38008E4B1B688E4AA2FB03239B0A7B617B6842
:101B48009B6D3B613B691B68FB607B68DB6D082212
:101B58009A40FB681340002B1AD07B681B681B68EF
:101B680003F00403002B13D07B681B681A687B689A
:101B78001B6822F004021A607B68DB6D08229A4019
:101B88003B699A607B685B6D43F001027B685A652C
:101B98007B68DB6D01229A40FB681340002B12D052
:101BA8007B681B685B6903F08003002B0BD07B68A4
:101BB800DB6D01229A403B699A607B685B6D43F05C
:101BC80002027B685A657B68DB6D04229A40FB68D9
:101BD8001340002B12D07B681B681B6803F00203BC
:101BE800002B0BD07B68DB6D04229A403B699A601E
:101BF8007B685B6D43F004027B685A657B68DB6D2C
:101C080010229A40FB681340002B43D07B681B6866
:101C18001B6803F00803002B3CD07B68DB6D1022A7
:101C28009A403B699A607B681B681B6803F48023B1
:101C3800002B18D07B681B681B6803F40023002B5B
:101C480008D17B681B6C002B24D07B681B6C7868E0
:101C580098471FE07B689B6C002B1BD07B689B6CB4
:101C68007868984716E07B681B681B6803F48073E4
:101C7800002B07D17B681B681A687B681B6822F0F9
:101C880008021A607B681B6C002B03D07B681B6CF6
:101C9800786898477B68DB6D20229A40FB68134080
:101CA800002B00F08F807B681B681B6803F0100313
:101CB800002B00F087807B68DB6D20229A403B690F
:101CC8009A607B6893F83530DBB2052B36D17B6898
:101CD8001B681A687B681B6822F016021A607B680A
:101CE8001B685A697B681B6822F080025A617B680E
:101CF8001B6C002B03D17B689B6C002B07D07B6887
:101D08001B681A687B681B6822F008021A607B68E7
:101D1800DB6D3F229A403B699A607B68012283F819
:101D280035207B68002283F834207B681B6D002BEC
:101D38007ED07B681B6D7868984779E07B681B6864
:101D48001B6803F48023002B1DD07B681B681B686D
:101D580003F40023002B0DD17B685B6C002B31D082
:101D68007B685B6C786898472CE000BF0000002017
:101D7800B5814E1B7B68DB6B002B23D07B68DB6B4C
:101D8800786898471EE07B681B681B6803F48073BB
:101D9800002B0FD17B681B681A687B681B6822F0D0
:101DA80010021A607B68012283F835207B680022C4
:101DB80083F834207B68DB6B002B03D07B68DB6BFC
:101DC800786898477B685B6D002B32D07B685B6DC9
:101DD80003F00103002B22D07B68052283F835200D
:101DE8007B681B681A687B681B6822F001021A600E
:101DF800BB680133BB607A699A4207D37B681B686A
:101E08001B6803F00103002BF2D100E000BF7B68E0
:101E1800012283F835207B68002283F834207B6810
:101E2800DB6C002B05D07B68DB6C7868984700E09A
:101E380000BF1837BD4680BD80B485B000AFF860DC
:101E4800B9607A603B60FB681B681A68FB681B68AE
:101E580022F480221A60FB681B683A685A60FB68A3
:101E68009B68402B08D1FB681B687A689A60FB68FE
:101E78001B68BA68DA6007E0FB681B68BA689A6092
:101E8800FB681B687A68DA6000BF1437BD465DF8E6
:101E9800047B704780B485B000AF78607B681B68AE
:101EA800DBB2103B144AA2FB03231B09FB60134A55
:101EB800FB6813441B781A467B68DA65FB68032BBA
:101EC80009D97B681B6823F47F7323F003031A1D69
:101ED8007B689A6507E07B681B6823F47F7323F0AF
:101EE80003037A6893657B689B6D18461437BD4673
:101EF8005DF8047B704700BFABAAAAAAF4350008B6
:101F080080B485B000AF78600023FB737B689B6A60
:101F1800BB607B689B69002B1FD1BB68032B56D81D
:101F280001A252F823F000BF411F0008531F000808
:101F3800411F0008D71F00087B68DB6A03F0807325
:101F4800002B46D00123FB7343E07B68DB6AB3F1C7
:101F5800C07F40D10123FB733DE07B689B69B3F5EB
:101F6800005F21D1BB68032B37D801A252F823F0B8
:101F7800891F00088F1F0008891F0008A11F00087B
:101F88000123FB7330E07B68DB6A03F08073002B6E
:101F980025D00123FB7322E07B68DB6AB3F1C07FA5
:101FA8001FD10123FB731CE0BB68022B03D9BB685C
:101FB800032B03D018E00123FB7315E07B68DB6A71
:101FC80003F08073002B0ED00123FB730BE000BFDE
:101FD8000AE000BF08E000BF06E000BF04E000BF61
:101FE80002E000BF00E000BFFB7B18461437BD4687
:101FF8005DF8047B704700BF80B489B000AF78609B
:10200800396000237B6100233B610023BB6100230F
:10201800FB616BE10122FB6902FA03F37B613B6818
:102028001B687A6913403B613A697B699A4240F0C0
:102038005A813B685B6803F00303012B05D03B68BA
:102048005B6803F00303022B30D17B689B68BB619C
:10205800FB695B00032202FA03F3DB43BA6913400E
:10206800BB613B68DA68FB695B0002FA03F3BA6993
:102078001343BB617B68BA699A607B685B68BB6124
:102088000122FB6902FA03F3DB43BA691340BB611F
:102098003B685B681B0903F00102FB6902FA03F362
:1020A800BA691343BB617B68BA695A603B685B686D
:1020B80003F00303032B17D07B68DB68BB61FB6964
:1020C8005B00032202FA03F3DB43BA691340BB61E6
:1020D8003B689A68FB695B0002FA03F3BA69134329
:1020E800BB617B68BA69DA603B685B6803F003032D
:1020F800022B23D1FB69DA087B68083253F82230B7
:10210800BB61FB6903F007039B000F2202FA03F38C
:10211800DB43BA691340BB613B681A69FB6903F08A
:1021280007039B0002FA03F3BA691343BB61FB6917
:10213800DA087B680832B96943F822107B681B68A3
:10214800BB61FB695B00032202FA03F3DB43BA6954
:102158001340BB613B685B6803F00302FB695B00EB
:1021680002FA03F3BA691343BB617B68BA691A6060
:102178003B685B6803F44033002B00F0B480002315
:10218800FB60604B5B6C5F4A43F4804353645D4B78
:102198005B6C03F48043FB60FB685B4AFB699B084C
:1021A800023352F82330BB61FB6903F003039B0041
:1021B8000F2202FA03F3DB43BA691340BB617B6861
:1021C800524A93422BD07B68514A934225D07B6870
:1021D800504A93421FD07B684F4A934219D07B687C
:1021E8004E4A934213D07B684D4A93420DD07B6888
:1021F8004C4A934207D07B684B4A934201D107234C
:102208000EE008230CE006230AE0052308E0042377
:1022180006E0032304E0022302E0012300E0002398
:10222800FA6902F0030292009340BA691343BB6152
:102238003549FB699B080233BA6941F823203B4BB7
:102248009B68BB613B69DB43BA691340BB613B6870
:102258005B6803F48013002B03D0BA693B6913430E
:10226800BB61324ABB699360304BDB68BB613B6939
:10227800DB43BA691340BB613B685B6803F4001336
:10228800002B03D0BA693B691343BB61274ABB697A
:10229800D360264B5B68BB613B69DB43BA6913407B
:1022A800BB613B685B6803F40033002B03D0BA6959
:1022B8003B691343BB611D4ABB6953601B4B1B68D9
:1022C800BB613B69DB43BA691340BB613B685B6830
:1022D80003F48033002B03D0BA693B691343BB6115
:1022E800124ABB691360FB690133FB61FB690F2B61
:1022F8007FF690AE00BF00BF2437BD465DF8047B73
:10230800704700BF0038024000380140000002401A
:102318000004024000080240000C02400010024085
:102328000014024000180240001C0240003C01401A
:1023380080B586B000AF78607B68002B01D101239F
:1023480067E27B681B6803F00103002B75D0884B9C
:102358009B6803F00C03042B0CD0854B9B6803F09F
:102368000C03082B12D1824B5B6803F48003B3F58E
:10237800800F0BD17E4B1B6803F40033002B5BD01E
:102388007B685B68002B57D1012342E27B685B685E
:10239800B3F5803F06D1764B1B68754A43F480330A
:1023A80013601DE07B685B68B3F5A02F0CD1704B00
:1023B8001B686F4A43F4802313606D4B1B686C4A9B
:1023C80043F4803313600BE0694B1B68684A23F4BD
:1023D80080331360664B1B68654A23F480231360BF
:1023E8007B685B68002B13D0FEF724FC386108E09B
:1023F800FEF720FC02463B69D31A642B01D903235C
:1024080007E25B4B1B6803F40033002BF0D014E0A9
:10241800FEF710FC386108E0FEF70CFC02463B6949
:10242800D31A642B01D90323F3E1514B1B6803F43E
:102438000033002BF0D100E000BF7B681B6803F07D
:102448000203002B63D04A4B9B6803F00C03002B5C
:102458000BD0474B9B6803F00C03082B1CD1444B53
:102468005B6803F48003002B16D1414B1B6803F013
:102478000203002B05D07B68DB68012B01D0012308
:10248800C7E13B4B1B6823F0F8027B681B69DB0044
:10249800374913430B603AE07B68DB68002B20D098
:1024A800344B01221A60FEF7C5FB386108E0FEF7DD
:1024B800C1FB02463B69D31A022B01D90323A8E1C9
:1024C8002B4B1B6803F00203002BF0D0284B1B6832
:1024D80023F0F8027B681B69DB00254913430B6076
:1024E80015E0244B00221A60FEF7A4FB386108E0CF
:1024F800FEF7A0FB02463B69D31A022B01D903233E
:1025080087E11B4B1B6803F00203002BF0D17B68AB
:102518001B6803F00803002B36D07B685B69002B2F
:1025280016D0154B01221A60FEF784FB386108E0CB
:10253800FEF780FB02463B69D31A022B01D903231D
:1025480067E10B4B5B6F03F00203002BF0D01BE03D
:10255800094B00221A60FEF76DFB38610EE0FEF7AA
:1025680069FB02463B69D31A022B07D9032350E1C2
:102578000038024000004742800E4742884B5B6F9C
:1025880003F00203002BEAD17B681B6803F0040305
:10259800002B00F097800023FB75814B1B6C03F028
:1025A8008053002B0FD10023BB607D4B1B6C7C4AF2
:1025B80043F0805313647A4B1B6C03F08053BB6069
:1025C800BB680123FB75774B1B6803F48073002BF2
:1025D80018D1744B1B68734A43F480731360FEF779
:1025E80029FB386108E0FEF725FB02463B69D31A50
:1025F800022B01D903230CE16A4B1B6803F4807397
:10260800002BF0D07B689B68012B06D1644B1B6FB5
:10261800634A43F0010313671CE07B689B68052B42
:102628000CD15F4B1B6F5E4A43F0040313675C4B8E
:102638001B6F5B4A43F0010313670BE0584B1B6F9A
:10264800574A23F001031367554B1B6F544A23F075
:10265800040313677B689B68002B15D0FEF7EAFA22
:1026680038610AE0FEF7E6FA02463B69D31A41F2FE
:102678008832934201D90323CBE0494B1B6F03F007
:102688000203002BEED014E0FEF7D4FA38610AE01A
:10269800FEF7D0FA02463B69D31A41F288329342D8
:1026A80001D90323B5E03E4B1B6F03F00203002B57
:1026B800EED1FB7D012B05D1394B1B6C384A23F039
:1026C800805313647B689B69002B00F0A180344B16
:1026D8009B6803F00C03082B5CD07B689B69022B7A
:1026E80041D1314B00221A60FEF7A4FA386108E0A4
:1026F800FEF7A0FA02463B69D31A022B01D903233D
:1027080087E0274B1B6803F00073002BF0D17B6830
:10271800DA697B681B6A1A437B685B6A9B011A4308
:102728007B689B6A5B08013B1B041A437B68DB6A76
:102738001B061B4913434B601B4B01221A60FEF713
:1027480079FA386108E0FEF775FA02463B69D31A50
:10275800022B01D903235CE0114B1B6803F00073C3
:10276800002BF0D054E0104B00221A60FEF762FAFA
:10277800386108E0FEF75EFA02463B69D31A022B7D
:1027880001D9032345E0064B1B6803F00073002BB7
:10279800F0D13DE07B689B69012B07D1012338E02C
:1027A8000038024000700040600047421B4B5B68E5
:1027B800FB607B689B69012B28D0FB6803F48002CF
:1027C8007B68DB699A4221D1FB6803F03F027B6892
:1027D8001B6A9A421AD1FA6847F6C07313407A689E
:1027E800526A9201934211D1FB6803F440327B682C
:1027F8009B6A5B08013B1B049A4207D1FB6803F004
:1028080070627B68DB6A1B069A4201D0012300E0F4
:10281800002318461837BD4680BD00BF0038024067
:1028280080B584B000AF786039607B68002B01D137
:102838000123CCE0684B1B6803F007033A689A420F
:102848000CD9654B3A68D2B21A70634B1B6803F017
:1028580007033A689A4201D00123B8E07B681B68F5
:1028680003F00203002B20D07B681B6803F00403ED
:10287800002B05D0594B9B68584A43F4E0539360AA
:102888007B681B6803F00803002B05D0534B9B683B
:10289800524A43F460439360504B9B6823F0F00224
:1028A8007B689B684D4913438B607B681B6803F00A
:1028B8000103002B44D07B685B68012B07D1474B91
:1028C8001B6803F40033002B19D101237FE07B68D8
:1028D8005B68022B03D07B685B68032B07D13F4BF7
:1028E8001B6803F00073002B09D101236FE03B4BF9
:1028F8001B6803F00203002B01D1012367E0374B6B
:102908009B6823F003027B685B68344913438B6040
:10291800FEF790F9F8600AE0FEF78CF90246FB68CA
:10292800D31A41F28832934201D903234FE02B4B4B
:102938009B6803F00C027B685B689B009A42EBD1B2
:10294800254B1B6803F007033A689A420CD2224BC6
:102958003A68D2B21A70204B1B6803F007033A6832
:102968009A4201D0012332E07B681B6803F004031C
:10297800002B08D0194B9B6823F4E0527B68DB6876
:10298800164913438B607B681B6803F00803002B10
:1029980009D0124B9B6823F460427B681B69DB00FB
:1029A8000E4913438B6000F021F802460B4B9B68DD
:1029B8001B0903F00F030A49CB5C22FA03F3094A07
:1029C8001360094B1B681846FEF7F0F800231846F9
:1029D8001037BD4680BD00BF003C024000380240B1
:1029E800E435000800000020040000202DE9B04F65
:1029F80094B000AF00237B640023FB6400233B6496
:102A08000023BB64794B9B6803F00C03082B0DD0A3
:102A1800082B00F2E180002B02D0042B03D0DBE06E
:102A2800734BBB64DBE0734BBB64D8E06F4B5B68F4
:102A380003F03F037B646D4B5B6803F48003002B5A
:102A480063D06A4B5B689B090022BB63FA63BB6B6C
:102A5800C3F308033B6300237B63D7E90C45224695
:102A68002B464FF000004FF00001590141EAD261B6
:102A7800500102460B462146511A3961294663EB3B
:102A880001037B614FF000024FF00003D7E904AB6C
:102A980059468B01514643EA916351468A01514692
:102AA800B2EB0108594663EB01094FF000024FF001
:102AB80000034FEAC90343EA58734FEAC802904635
:102AC8009946234618EB0303BB602B4649EB0303E7
:102AD800FB604FF000024FF00003D7E9024529469A
:102AE8004B02214643EAD15321464A021046194671
:102AF8007B6C0022BB62FA62D7E90A23FDF760FB10
:102B080002460B461346FB6458E0384B5B689B094A
:102B1800002218461146C0F308033B6200237B627B
:102B2800D7E9088942464B464FF000004FF00001B4
:102B3800590141EAD261500102460B464146B2EBC7
:102B4800010A494663EB010B4FF000024FF0000306
:102B58004FEA8B1343EA9A634FEA8A12B2EB0A04EC
:102B680063EB0B054FF000024FF00003EB0043EA64
:102B78005473E20014461D464346E3183B604B4637
:102B880045EB03037B604FF000024FF00003D7E9E9
:102B9800004529468B02214643EA915321468A0281
:102BA800104619467B6C0022BB61FA61D7E90623FF
:102BB800FDF706FB02460B461346FB640B4B5B68AE
:102BC8001B0C03F0030301335B003B64FA6C3B6CA2
:102BD800B2FBF3F3BB6402E0054BBB6400BFBB6C04
:102BE80018465037BD46BDE8B08F00BF00380240D8
:102BF8000024F40000127A00002310B50446C0E94E
:102C08000033C0E90433836081814366C2818361F4
:102C1800194608225C3000F0E7F90D4B63620D4B52
:102C2800A3620D4BE3620D4B23630D4B24629C4260
:102C380006D003F16802944202D0D0339C4205D1F9
:102C480004F15800BDE8104000F046BA10BD00BFBE
:102C5800412E0008632E00089B2E0008BF2E000896
:102C680038010020024A0349034800F069B800BF50
:102C78000C000020E13300081C00002041680C4BC8
:102C8800994210B5044601D000F0A6FBA168094B93
:102C9800994202D0204600F09FFBE168064B99421A
:102CA80004D02046BDE8104000F096BB10BD00BF20
:102CB80038010020A00100200802002010B50B4BAD
:102CC8000B4C0C4A1A60204600220421FFF794FF9F
:102CD80004F1680001220921FFF78EFF04F1D000FA
:102CE8000222BDE810401221FFF786BF70020020C3
:102CF800380100206D2C0008014800F0EEB900BF33
:102D080079020020014800F0E9B900BF79020020EB
:102D180010B50446FFF7F0FF236A1BB1BDE8104069
:102D2800FFF7F0BF044B2362044B1B68002BF5D15F
:102D3800FFF7C4FFF2E700BF852C000870020020EF
:102D48002DE9F8430746884614460026D4E901953C
:102D5800B9F1010905D52468002CF7D13046BDE842
:102D6800F883AB89012B07D9B5F90E30013303D0AD
:102D780029463846C04706436835E9E7036A70B50F
:102D8800846805460E460BB9FFF7C2FF636EDB0782
:102D980005D4A389980502D4A06D00F09EF9A389F3
:102DA800190702D52369002B35D12146284600F0A2
:102DB800C5F880B34FF0FF35636EDA0705D4A389F1
:102DC8009B0502D4A06D00F089F9284670BD002B40
:102DD80004DAA2699A4217DC0A2915D023685A1C1A
:102DE80022601970A36816F8011F013BA36000292F
:102DF800EDD1002B11DA22460A21284600F05FF8AF
:102E08000130D7D00A25D7E72246284600F057F8E0
:102E18000130E7D1CEE7013EE4E723685A1C22607F
:102E28000A221A70EEE70000024B01461868FFF705
:102E3800A5BF00BF1800002010B50C46B1F90E1050
:102E480000F0FCF80028ABBF636DA3891B1823F4BE
:102E58008053ACBF6365A38110BD2DE9F0411F46C7
:102E68008B89DB0505460C46164605D5B1F90E10CB
:102E78000223002200F0D0F8A389B4F90E1023F43D
:102E88008053A38132463B462846BDE8F04100F016
:102E9800E7B810B50C46B1F90E1000F0BDF8431CA8
:102EA800A38915BF606523F4805343F48053A3813D
:102EB80018BFA38110BDB1F90E1000F09DB8F8B588
:102EC8000E461446054618B1036A0BB9FFF720FFF2
:102ED800A369A360A3891A0701D5236943B92146C9
:102EE800284600F02BF818B14FF0FF373846F8BDE8
:102EF80023682269981A6369F6B28342374605DC6B
:102F08002146284600F068FA0028EDD1A368013B65
:102F1800A36023685A1C22601E706269431C9A428F
:102F280004D0A389DB07E1D50A2EDFD12146284644
:102F380000F052FA0028D9D0D6E7000038B5294B5E
:102F4800054618680C4618B1036A0BB9FFF7E0FE8E
:102F5800B4F90C30190722D4DA0607D409222A60FA
:102F680043F04003A3814FF0FF3033E0580712D5F8
:102F7800616B41B104F14403994202D0284600F044
:102F8800AFF800236363A38923F02403A3810023FC
:102F9800636023692360A38943F00803A38123693D
:102FA8004BB9A38903F42073B3F5007F03D02146FE
:102FB800284600F05FFAB4F90C3013F001020AD089
:102FC8000022A26062695242A261226942B913F0EA
:102FD8008000C5D138BD990758BF6269A260F4E77F
:102FE8000020F7E71800002002440346934200D16E
:102FF800704703F8011BF9E738B5064D002304466E
:1030080008462B60FDF709FD431C02D12B6803B16C
:10301800236038BD7402002038B5074D04460846C1
:10302800114600222A601A46FDF71EFD431C02D1F4
:103038002B6803B1236038BD7402002038B5074DF2
:1030480004460846114600222A601A46FDF7C8FCC5
:10305800431C02D12B6803B1236038BD74020020E1
:1030680038B5074D04460846114600222A601A461C
:10307800FDF7A8FB431C02D12B6803B1236038BDC0
:1030880074020020014B1868704700BF1800002028
:1030980070B50D4D0D4C641BA4100026A64209D135
:1030A8000B4D0C4C00F054FA641BA4100026A642E9
:1030B80005D170BD55F8043B98470136EEE755F841
:1030C800043B98470136F2E7043600080436000846
:1030D800043600080836000870477047704700003B
:1030E80038B50546002941D051F8043C0C1F002B87
:1030F800B8BFE41800F0E0F81D4A136833B96360FC
:1031080014602846BDE8384000F0DCB8A34208D96E
:10311800206821188B4201BF19685B680918216073
:10312800EDE71A465B680BB1A342FAD9116850184B
:10313800A0420BD120680144501883421160E0D1AD
:1031480018685B68536008441060DAE702D90C23FA
:103158002B60D6E7206821188B4204BF19685B688A
:10316800636004BF091821605460CAE738BD00BF16
:103178008002002070B50F4E0C463168054611B923
:1031880000F0D6F930602146284600F0D1F9431CFA
:1031980003D14FF0FF34204670BDC41C24F0030453
:1031A800A042F8D0211A284600F0C2F90130F2D125
:1031B800EFE700BF7C0200202DE9F843CD1C25F085
:1031C800030508350C2D38BF0C25002D064601DBFC
:1031D800A94204D90C2333600020BDE8F883DFF846
:1031E800D48000F069F8D8F800301C4644BB294662
:1031F8003046FFF7BFFF431C044658D1D8F80040BB
:103208002746002F43D1002C4BD02368394630463F
:1032180004EB030900F08CF9814542D121686D1A4D
:1032280029463046FFF7A6FF01303AD023682B44E1
:103238002360D8F800305A6862BBC8F800700FE005
:103248002268521B20D40B2A17D96119A342256082
:1032580018BF5960636808BFC8F8001062514B6016
:10326800304600F02FF804F10B00231D20F0070072
:10327800C21A1CBF1B1AA350AFE76268A3420CBF57
:10328800C8F800205A60EBE723466468AEE73C467E
:103298007F68B6E71A465B68A342FBD100235360F8
:1032A800DEE70C233360304600F00CF894E7056045
:1032B800D6E700BF800200200148FFF70EBF00BF1D
:1032C800780200200148FFF709BF00BF78020020FC
:1032D800B1F90C202DE9F041160705460C4654D4E7
:1032E8004B68002B02DC0B6C002B48DDE66A002ED5
:1032F80045D0002312F480522F68216A2B6030D009
:10330800626DA389590705D56368D21A636B0BB13F
:10331800236CD21A0023E66A216A2846B047431C68
:10332800A38906D129681D292BD82A4ACA40D6075D
:1033380027D500226260D9042269226004D5421C84
:1033480001D12B6803B96065616B2F60B9B104F1D5
:103358004403994202D02846FFF7C2FE0023636364
:103368000DE001232846B0470246501CC9D12B68FE
:10337800002BC6D01D2B01D0162B1ED12F6000208C
:1033880022E043F040031BB21BE00F69002FF6D088
:1033980093070E6808BF4B690F6018BF0023A6EBA0
:1033A80007088B60B8F1000FE9DD216AA66A434679
:1033B8003A462846B047002808DCB4F90C3043F0F8
:1033C8004003A3814FF0FF30BDE8F0810744A8EB2C
:1033D8000008E7E70100402038B50B6905460C46B0
:1033E80013B90025284638BD18B1036A0BB9FFF791
:1033F8008FFCB4F90C30002BF3D0626ED00704D4E4
:10340800990502D4A06DFFF768FE28462146FFF70C
:103418005FFF636EDA070546E4D4A3899B05E1D410
:10342800A06DFFF75BFEDDE770B50C46B1F90E1035
:10343800002996B015461E460DDAA38913F0800FB1
:103448004FF0000114BF40234FF480630020316027
:103458002B6016B070BD6A4600F048F80028ECDB17
:10346800019901F47041A1F50053594259414FF4B3
:103478008063EBE78B89F7B59D0706460C4607D5B1
:1034880004F14703236023610123636103B0F0BDA6
:1034980001AB6A46FFF7C8FF009F0546394630462C
:1034A800FFF78AFE48B9B4F90C309A05EED423F038
:1034B800030343F00203A381E2E7A389206043F0FA
:1034C8008003A381019BC4E904075BB1B4F90E1022
:1034D800304600F01DF828B1A38923F0030343F018
:1034E8000103A381A3891D43A581CFE738B5074D03
:1034F80000230446084611462B60FDF79AFA431C40
:1035080002D12B6803B1236038BD00BF74020020CC
:1035180038B5064D0023044608462B60FDF799FA96
:10352800431C02D12B6803B1236038BD740200200C
:1035380038B5064D0023044608462B60FDF7A2FA6D
:10354800431C02D12B6803B1236038BD74020020EC
:10355800F8B500BFF8BC08BC9E467047F8B500BF78
:08356800F8BC08BC9E46704748
:103570004D6F746F7220312073686F756C642062B8
:1035800065206D6F76656420436C6F636B7769733C
:10359000652000004D6F746F7220312053686F7585
:1035A0006C64206265204D6F76656420416E74699D
:1035B000636C6F636B776973652000004D6F746F88
:1035C00072206973204D6F76696E6720746F776122
:1035D00072647320616E2045787472656D65204554
:1035E0006E642000000000000000000001020304DF
:0C35F00006070809000610160006101659
:0835FC00FCCBFF7F0100000081
:04360400AD0100080C
:04360800890100082C
:10360C000024F40010000000010000000000000085
:10361C0003000000380100201C0000200000000006
:10362C0038010020A001002008020020000000004A
:10363C00000000000000000000000000000000007E
:10364C00000000000000000000000000000000006E
:10365C00000000000000000000000000000000005E
:08366C00000000000000000056
:0400000508000B1DC7
:00000001FF
