:020000040800F2
:1000000000000220150A0008850800088D08000875
:10001000950800089D080008A508000800000000D9
:10002000000000000000000000000000AD08000813
:10003000BB08000800000000C9080008D708000835
:10004000650A0008650A0008650A0008650A0008D4
:10005000650A0008650A0008650A0008650A0008C4
:10006000650A0008650A0008650A0008650A0008B4
:10007000650A0008650A0008650A0008650A0008A4
:10008000650A0008650A0008650A0008650A000894
:10009000650A0008650A0008650A0008650A000884
:1000A000650A0008650A0008650A0008650A000874
:1000B000650A0008650A0008650A0008650A000864
:1000C000650A0008650A0008650A0008650A000854
:1000D000650A0008650A0008650A0008650A000844
:1000E000650A0008650A0008650A0008650A000834
:1000F000650A0008650A0008650A0008650A000824
:10010000650A0008650A0008650A0008650A000813
:10011000650A0008650A0008650A0008650A000803
:10012000650A0008650A0008650A0008650A0008F3
:10013000650A0008650A0008650A0008650A0008E3
:10014000650A0008650A0008650A0008650A0008D3
:10015000650A0008650A0008650A0008650A0008C3
:10016000650A0008650A0008650A0008650A0008B3
:10017000650A0008650A0008650A0008000000001A
:08018000650A0008650A000889
:1001880010B5054C237833B9044B13B10448AFF3C9
:1001980000800123237010BD7800002000000000BB
:1001A800B02E000808B5034B1BB103490348AFF351
:1001B800008008BD000000007C000020B02E000870
:1001C80053B94AB9002908BF00281CBF4FF0FF31B6
:1001D8004FF0FF3000F088B9ADF1080C6DE904CE9E
:1001E80000F006F8DDF804E0DDE9022304B070470A
:1001F8002DE9F047089D8E4604468846002B4AD1D3
:100208008A42174662D9B2FA82F64EB1C6F1200385
:1002180001FA06F820FA03F3B74043EA0808B440A5
:100228004FEA174E1FFA87FCB8FBFEF1230C0EFBB2
:10023800118843EA084301FB0CF29A4209D9FB18DA
:1002480001F1FF3080F0EA809A4240F2E7800239FB
:100258003B449A1AA3B2B2FBFEF00EFB102243EA0B
:10026800024300FB0CFC9C4509D9FB1800F1FF3246
:1002780080F0D6809C4540F2D3803B44023840EA67
:100288000140A3EB0C0300211DB1F3400022C5E996
:100298000032BDE8F0878B4205D90DB1C5E90001F0
:1002A80000210846F5E7B3FA83F1002946D17345E2
:1002B80002D3824200F20581841A6EEB0302012008
:1002C8009046002DE5D0C5E90048E2E7002A00F095
:1002D8009080B2FA82F6002E40F0A4808A1A030CAD
:1002E8004FEA174E80B2BCB20121B2FBFEFC0EFBF6
:1002F8001C2243EA024304FB0CF29A4207D9FB187A
:100308000CF1FF3802D29A4200F2E080C4469B1AF0
:10031800B3FBFEF20EFB123340EA034302FB04F484
:100328009C4207D9FB1802F1FF3002D29C4200F22E
:10033800CA8002461B1B42EA0C40A5E7C1F1200611
:100348008B4022FA06F71F430EFA01F420FA06F34F
:100358002EFA06FE4FEA1749234300FA01F81FFA5E
:1003680087FCBEFBF9F01C0C09FB10EE44EA0E44B6
:1003780000FB0CFEA64502FA01F209D93C1900F16E
:10038800FF3A80F09C80A64540F2998002383C44B0
:10039800A4EB0E041FFA83FEB4FBF9F309FB134424
:1003A8004EEA044403FB0CFCA44508D93C1903F1AC
:1003B800FF3E80F08280A4457FD9023B3C4443EA5B
:1003C8000040A4EB0C04A0FB02EC64457346E14634
:1003D80062D35FD05DB1B8EB030264EB090404FAA1
:1003E80006F622FA01F31E43CC40C5E90064002159
:1003F8004FE7B1FBF2FC010C41EA0E4180B240EA42
:1004080001423B4638463C46B846BE462026B1FB2C
:10041800F7F1A2EB080241EA0C4166E7014618E74A
:1004280010462CE7C6F120022EFA02F3B740B1407D
:1004380020FA02F24FEA174E0A43B3FBFEF8BCB2A9
:100448000EFB1833110C41EA034108FB04F9B040D4
:1004580089454FEA104380B23ED9791808F1FF3C2C
:1004680001D289451FD8A1EB0901B1FBFEF909FBAF
:1004780004F80EFB191192B242EA0142424529D210
:10048800BA1809F1FF31C4D24245C2D2A9F102011A
:100498003A44BEE7F0459DD2BEEB02036CEB070C75
:1004A8000138E14696E7A7EB09094944A8F1020C8F
:1004B800B1FBFEF909FB04F8DBE773467FE750461A
:1004C80066E70846FDE63B44023A33E7ACF1020C26
:1004D8003B441CE749469CE7A1EB0901C446B1FB34
:1004E800FEF909FB04F8C4E7704700BF80B483B085
:1004F80000AF78604FF06043D3F8803E03F001030B
:10050800002B13D04FF06043D3F8003E03F00103F3
:10051800002B0BD000E000BF4FF060431B68002B9E
:10052800F9D04FF060437A68D2B21A707B681846E7
:100538000C37BD465DF8047B7047000080B586B077
:1005480004AF00F08DFA00F055F800F0EBF800F079
:10055800BBF81C4B19881C4B1A681C4B1B681C48A1
:1005680000F0D4FF0346FB71FB79002B03D1194837
:1005780002F006F902E0184802F002F9114B198856
:10058800164B1A88164B1B88642002900220019093
:10059800144800900E4800F0BFFE0346FB71FB793B
:1005A800002B03D1104802F0EBF802E00F4802F0EC
:1005B800E7F80F4802F0E4F84FF47A7000F0C2FA56
:1005C80000BFF6E70000002004000020080000201B
:1005D80098000020C82E0008E02E00080C0000201B
:1005E8000E00002094000020082F0008202F00088B
:1005F8004C2F000880B594B000AF07F120033022DB
:100608000021184602F09CF907F10C0300221A6039
:100618005A609A60DA601A610023BB60284B1B6C31
:10062800274A43F080531364254B1B6C03F0805317
:10063800BB60BB6800237B60224B1B68214A43F4E4
:10064800804313601F4B1B6803F480437B607B6807
:1006580002233B620123FB6210233B630223BB633B
:100668000023FB6308233B6450237B640223BB64A1
:100678000723FB6407F12003184601F0E5FA034657
:10068800002B01D000F084F80F23FB6002233B61AC
:1006980000237B614FF48053BB614FF4A053FB618F
:1006A80007F10C030221184601F046FD0346002B12
:1006B80001D000F06DF800BF5037BD4680BD00BFC7
:1006C800003802400070004080B500AF124B134A5A
:1006D8001A60114B124A5A600F4B00229A600E4B57
:1006E8000022DA600C4B4FF480421A610A4B002258
:1006F8005A61094B00229A61074B0022DA61064BC6
:1007080000221A62044800F0C3FC0346002B01D003
:1007180000F03EF800BF80BD980000200054004063
:10072800A086010080B483B000AF00237B60094B32
:100738001B6B084A43F002031363064B1B6B03F061
:1007480002037B607B6800BF0C37BD465DF8047B05
:10075800704700BF0038024080B586B000AFF8602F
:10076800B9607A6000237B6109E0BB685A1CBA60F3
:100778001B781846FFF7BAFE7B6901337B617A69FB
:100788007B689A42F1DB7B6818461837BD4680BD06
:1007980080B400AF72B600BF00BFFDE780B582B07D
:1007A80000AF00237B60104B5B6C0F4A43F480431F
:1007B80053640D4B5B6C03F480437B607B680023C0
:1007C8003B60094B1B6C084A43F080531364064B8B
:1007D8001B6C03F080533B603B68072000F088FAED
:1007E80000BF0837BD4680BD0038024080B58AB0DA
:1007F80000AF786007F1140300221A605A609A600B
:10080800DA601A617B681B68194A93422BD100236E
:100818003B61184B1B6B174A43F002031363154BDC
:100828001B6B03F002033B613B69C0237B6112230E
:10083800BB610023FB6103233B6204237B6207F156
:10084800140319460C4800F087FA0023FB60094B93
:100858001B6C084A43F400131364064B1B6C03F427
:100868000013FB60FB6800BF2837BD4680BD00BF92
:1008780000540040003802400004024080B400AF39
:1008880000BFFDE780B400AF00BFFDE780B400AF54
:1008980000BFFDE780B400AF00BFFDE780B400AF44
:1008A80000BFFDE780B400AF00BFBD465DF8047B24
:1008B800704780B400AF00BFBD465DF8047B704749
:1008C80080B400AF00BFBD465DF8047B704780B5BB
:1008D80000AF00F017F900BF80BD80B586B000AF4B
:1008E800F860B9607A6000237B610AE0AFF30080AA
:1008F8000146BB685A1CBA60CAB21A707B690133D8
:100908007B617A697B689A42F0DB7B681846183706
:10091800BD4680BD80B483B000AF78604FF0FF3330
:1009280018460C37BD465DF8047B704780B483B029
:1009380000AF786039603B684FF400525A6000237A
:1009480018460C37BD465DF8047B704780B483B009
:1009580000AF7860012318460C37BD465DF8047B6C
:10096800704780B485B000AFF860B9607A60002342
:1009780018461437BD465DF8047B704780B586B0CD
:1009880000AF7860144A154BD31A7B617B693B61D1
:10099800134B1B68002B02D1114B124A1A60104BE3
:1009A8001A687B6813443A699A4207D202F016F82B
:1009B80003460C221A604FF0FF3309E0084B1B680E
:1009C800FB60074B1A687B681344054A1360FB6891
:1009D80018461837BD4680BD0000022000040000FC
:1009E800EC0000204002002080B400AF064BD3F892
:1009F8008830054A43F47003C2F8883000BFBD460A
:100A08005DF8047B704700BF00ED00E0DFF834D0EC
:100A1800FFF7EAFF0C480D490D4A002302E0D458BD
:100A2800C4500433C4188C42F9D30A4A0A4C002330
:100A380001E013600432A242FBD301F0D5FFFFF7B7
:100A48007DFD704700000220000000207800002093
:100A5800842F00087800002040020020FEE70000F4
:100A680080B500AF0E4B1B680D4A43F4007313604A
:100A78000B4B1B680A4A43F480631360084B1B68DE
:100A8800074A43F480731360032000F031F9002013
:100A980000F008F8FFF782FE0023184680BD00BF6B
:100AA800003C024080B582B000AF7860124B1A68F3
:100AB800124B1B7819464FF47A73B3FBF1F3B2FB70
:100AC800F3F3184600F03BF90346002B01D001234D
:100AD8000EE07B680F2B0AD8002279684FF0FF30B0
:100AE80000F011F9064A7B681360002300E0012337
:100AF80018460837BD4680BD1000002018000020A9
:100B08001400002080B400AF064B1B781A46064B31
:100B18001B681344044A136000BFBD465DF8047B9C
:100B2800704700BF18000020F000002080B400AF1C
:100B3800034B1B681846BD465DF8047B704700BF31
:100B4800F000002080B584B000AF7860FFF7EEFFBA
:100B5800B8607B68FB60FB68B3F1FF3F05D00A4BC8
:100B68001B781A46FB681344FB6000BFFFF7DEFFE3
:100B78000246BB68D31AFA689A42F7D800BF00BF8A
:100B88001037BD4680BD00BF1800002080B485B076
:100B980000AF78607B6803F00703FB600C4BDB68F1
:100BA800BB60BA684FF6FF031340BB60FB681A02CC
:100BB800BB68134343F0BF6343F40033BB60044A8C
:100BC800BB68D36000BF1437BD465DF8047B70472F
:100BD80000ED00E080B400AF044BDB681B0A03F0B3
:100BE80007031846BD465DF8047B704700ED00E03A
:100BF80080B483B000AF03463960FB7197F90730C2
:100C0800002B0ADB3B68DAB20C4997F9073012016E
:100C1800D2B20B4483F800230AE03B68DAB20849F1
:100C2800FB7903F00F03043B1201D2B20B441A768E
:100C380000BF0C37BD465DF8047B704700E100E05B
:100C480000ED00E080B489B000AFF860B9607A6068
:100C5800FB6803F00703FB61FB69C3F10703042B7F
:100C680028BF0423BB61FB690433062B02D9FB6947
:100C7800033B00E000237B614FF0FF32BB6902FABF
:100C880003F3DA43BB681A407B699A404FF0FF319F
:100C98007B6901FA03F3D9437B680B401343184679
:100CA8002437BD465DF8047B7047000080B582B0EC
:100CB80000AF78607B68013BB3F1807F01D30123EB
:100CC8000FE00A4A7B68013B53600F214FF0FF3069
:100CD800FFF78EFF054B00229A60044B07221A602B
:100CE800002318460837BD4680BD00BF10E000E06D
:100CF80080B582B000AF78607868FFF747FF00BF23
:100D08000837BD4680BD80B586B000AF0346B960E0
:100D18007A60FB7300237B61FFF75CFF78617A6878
:100D2800B9687869FFF78EFF024697F90F301146C8
:100D38001846FFF75DFF00BF1837BD4680BD80B578
:100D480082B000AF78607868FFF7B0FF03461846B6
:100D58000837BD4680BD000080B489B000AF786018
:100D6800396000237B6100233B610023BB610023C2
:100D7800FB616BE10122FB6902FA03F37B613B68CB
:100D88001B687A6913403B613A697B699A4240F073
:100D98005A813B685B6803F00303012B05D03B686D
:100DA8005B6803F00303022B30D17B689B68BB614F
:100DB800FB695B00032202FA03F3DB43BA691340C1
:100DC800BB613B68DA68FB695B0002FA03F3BA6946
:100DD8001343BB617B68BA699A607B685B68BB61D7
:100DE8000122FB6902FA03F3DB43BA691340BB61D2
:100DF8003B685B681B0903F00102FB6902FA03F315
:100E0800BA691343BB617B68BA695A603B685B681F
:100E180003F00303032B17D07B68DB68BB61FB6916
:100E28005B00032202FA03F3DB43BA691340BB6198
:100E38003B689A68FB695B0002FA03F3BA691343DB
:100E4800BB617B68BA69DA603B685B6803F00303DF
:100E5800022B23D1FB69DA087B68083253F8223069
:100E6800BB61FB6903F007039B000F2202FA03F33F
:100E7800DB43BA691340BB613B681A69FB6903F03D
:100E880007039B0002FA03F3BA691343BB61FB69CA
:100E9800DA087B680832B96943F822107B681B6856
:100EA800BB61FB695B00032202FA03F3DB43BA6907
:100EB8001340BB613B685B6803F00302FB695B009E
:100EC80002FA03F3BA691343BB617B68BA691A6013
:100ED8003B685B6803F44033002B00F0B4800023C8
:100EE800FB60604B5B6C5F4A43F4804353645D4B2B
:100EF8005B6C03F48043FB60FB685B4AFB699B08FF
:100F0800023352F82330BB61FB6903F003039B00F3
:100F18000F2202FA03F3DB43BA691340BB617B6813
:100F2800524A93422BD07B68514A934225D07B6822
:100F3800504A93421FD07B684F4A934219D07B682E
:100F48004E4A934213D07B684D4A93420DD07B683A
:100F58004C4A934207D07B684B4A934201D10723FE
:100F68000EE008230CE006230AE0052308E004232A
:100F780006E0032304E0022302E0012300E000234B
:100F8800FA6902F0030292009340BA691343BB6105
:100F98003549FB699B080233BA6941F823203B4B6A
:100FA8009B68BB613B69DB43BA691340BB613B6823
:100FB8005B6803F48013002B03D0BA693B691343C1
:100FC800BB61324ABB699360304BDB68BB613B69EC
:100FD800DB43BA691340BB613B685B6803F40013E9
:100FE800002B03D0BA693B691343BB61274ABB692D
:100FF800D360264B5B68BB613B69DB43BA6913402E
:10100800BB613B685B6803F40033002B03D0BA690B
:101018003B691343BB611D4ABB6953601B4B1B688B
:10102800BB613B69DB43BA691340BB613B685B68E2
:1010380003F48033002B03D0BA693B691343BB61C7
:10104800124ABB691360FB690133FB61FB690F2B13
:101058007FF690AE00BF00BF2437BD465DF8047B25
:10106800704700BF003802400038014000000240CD
:101078000004024000080240000C02400010024038
:101088000014024000180240001C0240003C0140CD
:1010980080B584B000AF78607B68002B01D1012354
:1010A8002BE17B6893F83D30DBB2002B06D17B68DF
:1010B800002283F83C207868FFF798FB7B6824229D
:1010C80083F83D207B681B681A687B681B6822F0E0
:1010D80001021A607B681B681A687B681B6842F407
:1010E80000421A607B681B681A687B681B6822F4D8
:1010F80000421A6001F018FAF8607B685B68814A60
:10110800934207D8FB68804A934294BF0123002387
:10111800DBB206E0FB687D4A934294BF01230023BB
:10112800DBB2002B01D00123E7E0FB68784AA2FB81
:1011380003239B0CBB607B681B685B6823F03F0143
:101148007B681B68BA680A435A607B681B681B6A1D
:1011580023F03F017B685B686A4A934202D8BB6808
:10116800013309E0BB684FF4967202FB03F3694A46
:10117800A2FB03239B0901337A6812680B431362AD
:101188007B681B68DB6923F44F4222F0FF027B680F
:101198005B685C498B4219D8FB68591E7B685B68A1
:1011A8005B00B1FBF3F3591C40F6FC730B40002BBA
:1011B8000AD0FB68591E7B685B685B00B1FBF3F3E0
:1011C8000133C3F30B0351E004234FE07B689B68B2
:1011D800002B11D1FB68581E7B6859680B465B00D1
:1011E8000B44B0FBF3F30133C3F30B03002B0CBF29
:1011F80001230023DBB212E0FB68581E7B685968A4
:101208000B469B000B4499000B44B0FBF3F30133EE
:10121800C3F30B03002B0CBF01230023DBB2002B0D
:1012280001D0012322E07B689B68002B0ED1FB686C
:10123800581E7B6859680B465B000B44B0FBF3F300
:101248000133C3F30B0343F400430FE0FB68581E5C
:101258007B6859680B469B000B4499000B44B0FB14
:10126800F3F30133C3F30B0343F44043796809688C
:101278001343CB617B681B681B6823F0C0017B6844
:10128800DA697B681B6A1A437B681B680A431A6021
:101298007B681B689B6823F4034323F0FF037A6889
:1012A80011697A68D26811437A6812680B439360AF
:1012B8007B681B68DB6823F0FF017B685A697B68E1
:1012C8009B691A437B681B680A43DA607B681B6862
:1012D8001A687B681B6842F001021A607B6800226A
:1012E8001A647B68202283F83D207B6800221A63F9
:1012F8007B68002283F83E20002318461037BD463D
:1013080080BD00BFA08601007F841E00FF083D004D
:1013180083DE1B43D34D621080B588B002AFF860FE
:10132800084611461A4603467B810B463B81134605
:10133800FB80FFF7FBFB7861FB6893F83D30DBB27D
:10134800202B40F0D9807B690093192301226D4935
:10135800F86800F09FFA0346002B01D00223CCE086
:10136800FB6893F83C30012B01D10223C5E0FB68F0
:10137800012283F83C20FB681B681B6803F001030B
:10138800012B07D0FB681B681A68FB681B6842F0D2
:1013980001021A60FB681B681A68FB681B6822F464
:1013A80000621A60FB68212283F83D20FB68402216
:1013B80083F83E20FB6800221A64FB683A6A5A6286
:1013C800FB68BA8C5A85FB685B8D9AB2FB681A85F4
:1013D800FB684D4ADA62F8883A8979897B69019312
:1013E800BB6A00930346F86800F0BEF90346002B79
:1013F80052D0012381E07A69B96AF86800F064FB89
:101408000346002B0DD0FB681B6C042B07D1FB682F
:101418001B681A68FB681B6842F400721A60012393
:101428006BE0FB685B6A1A78FB681B681A61FB68EB
:101438005B6A5A1CFB685A62FB681B8D013B9AB2B7
:10144800FB681A85FB685B8D9BB2013B9AB2FB680F
:101458005A85FB681B685B6903F00403042B1BD1E6
:10146800FB681B8D002B17D0FB685B6A1A78FB683A
:101478001B681A61FB685B6A5A1CFB685A62FB6846
:101488001B8D013B9AB2FB681A85FB685B8D9BB28A
:10149800013B9AB2FB685A85FB681B8D002BAAD1C9
:1014A8007A69B96AF86800F057FB0346002B0DD03B
:1014B800FB681B6C042B07D1FB681B681A68FB6868
:1014C8001B6842F400721A60012316E0FB681B686F
:1014D8001A68FB681B6842F400721A60FB682022D5
:1014E80083F83D20FB68002283F83E20FB68002239
:1014F80083F83C20002300E0022318461837BD4635
:1015080080BD00BF020010000000FFFF80B58AB058
:1015180002AFF8607A603B600B467B81FFF706FB01
:10152800F8610023BB61FB6893F83D30DBB2202BE8
:1015380040F01181FB690093192301228849F8685A
:1015480000F0A8F90346002B01D0022304E1FB6850
:1015580093F83C30012B01D10223FDE0FB68012206
:1015680083F83C20FB681B681B6803F00103012B10
:1015780007D0FB681B681A68FB681B6842F0010209
:101588001A60FB681B681A68FB681B6822F4006213
:101598001A60FB68242283F83D20FB6800221A6445
:1015A800FB68704ADA62FB681B681A68FB681B688C
:1015B80042F480721A60FB6900933B6800224FF086
:1015C8000111F86800F066F90346002B0DD0FB689E
:1015D8001B681B6803F48073B3F5807F03D1FB6835
:1015E8004FF400721A640323B6E07B89DBB21A4613
:1015F800FB681B6802F0FE021A61FFF797FAF861B0
:10160800FB681B685B6903F00203022B0CBF012314
:101618000023DBB2FB75FB681B685B6903F480631E
:10162800B3F5806F0CBF01230023DBB2BB7525E047
:10163800FFF77CFA0246FB69D31A3A689A4202D34A
:101648003B68002B03D1FB68A02283F83D20FB6890
:101658001B685B6903F00203022B0CBF0123002304
:10166800DBB2FB75FB681B685B6903F48063B3F549
:10167800806F0CBF01230023DBB2BB75FB6893F8B6
:101688003D30DBB2A02B05D0FB7D002B02D1BB7D0A
:10169800002BCDD0FB68202283F83D20FB681B6817
:1016A8005B6903F00203022B29D1FB681B681A68E7
:1016B800FB681B6842F400721A6000233B61FB68F8
:1016C8001B685B693B61FB681B689B693B613B6905
:1016D800FB690093192301222149F86800F0DAF820
:1016E8000346002B01D0012336E0FB68202283F853
:1016F8003D20FB68002283F83C2000232CE0FB6897
:101708001B681A68FB681B6842F400721A60FB6861
:101718001B686FF480625A61FB69009319230122E8
:101728000F49F86800F0B6F80346002B01D00123F2
:1017380012E0BB690133BB61BA697B689A42FFF466
:1017480032AFFB68202283F83D20FB68002283F833
:101758003C20012300E0022318462037BD4680BD07
:10176800020010000000FFFF80B588B002AFF860EB
:10177800084611461A4603467B810B463B811346B1
:10178800FB80FB681B681A68FB681B6842F4807260
:101798001A607B6A00933B6A00224FF00111F868D7
:1017A80000F078F80346002B0DD0FB681B681B6817
:1017B80003F48073B3F5807F03D1FB684FF40072A4
:1017C8001A6403235FE07B89DBB21A46FB681B6857
:1017D80002F0FE021A617B6A3A6A2D49F86800F045
:1017E800D3F80346002B01D001234CE000237B6192
:1017F800FB681B685B697B61FB681B689B697B6195
:101808007B697A6A396AF86800F05EF90346002B4A
:101818000DD0FB681B6C042B07D1FB681B681A688A
:10182800FB681B6842F400721A6001232BE0FB88F6
:10183800012B05D13B89DAB2FB681B681A6121E0EC
:101848003B891B0A9BB2DAB2FB681B681A617A6A89
:10185800396AF86800F038F90346002B0DD0FB68A8
:101868001B6C042B07D1FB681B681A68FB681B6894
:1018780042F400721A60012305E03B89DAB2FB6882
:101888001B681A61002318461837BD4680BD00BF83
:101898000200010080B584B000AFF860B9603B6019
:1018A8001346FB7148E03B68B3F1FF3F44D0FFF7B4
:1018B8003DF90246BB69D31A3A689A4202D33B689B
:1018C800002B39D1BB681B0CDBB2012B0DD1FB6897
:1018D8001B685B69DA43BB6813409BB2002B0CBFE3
:1018E80001230023DBB21A460CE0FB681B689B69E6
:1018F800DA43BB6813409BB2002B0CBF01230023C3
:10190800DBB21A46FB799A4216D1FB6800221A63A9
:10191800FB68202283F83D20FB68002283F83E20E4
:10192800FB681B6C43F02002FB681A64FB6800220A
:1019380083F83C20012323E0BB681B0CDBB2012B9E
:101948000DD1FB681B685B69DA43BB6813409BB227
:10195800002B0CBF01230023DBB21A460CE0FB6806
:101968001B689B69DA43BB6813409BB2002B0CBF12
:1019780001230023DBB21A46FB799A4293D0002355
:1019880018461037BD4680BD80B584B000AFF860FA
:10199800B9607A603B6071E0FB681B685B6903F4BF
:1019A8008063B3F5806F23D1FB681B681A68FB68F6
:1019B8001B6842F400721A60FB681B686FF480624F
:1019C8005A61FB6800221A63FB68202283F83D20D5
:1019D800FB68002283F83E20FB681B6C43F004027E
:1019E800FB681A64FB68002283F83C20012367E047
:1019F8007B68B3F1FF3F41D0FFF798F802463B6898
:101A0800D31A7A689A4202D37B68002B36D1BB6816
:101A18001B0CDBB2012B0CD1FB681B685B69DA433A
:101A2800BB6813409BB2002B14BF01230023DBB219
:101A38000BE0FB681B689B69DA43BB6813409BB2E9
:101A4800002B14BF01230023DBB2002B16D0FB6848
:101A580000221A63FB68202283F83D20FB680022DD
:101A680083F83E20FB681B6C43F02002FB681A6475
:101A7800FB68002283F83C20012321E0BB681B0C93
:101A8800DBB2012B0CD1FB681B685B69DA43BB68CE
:101A980013409BB2002B14BF01230023DBB20BE0E1
:101AA800FB681B689B69DA43BB6813409BB2002B39
:101AB80014BF01230023DBB2002B7FF46DAF00239A
:101AC80018461037BD4680BD80B584B000AFF860B9
:101AD800B9607A6034E0F86800F086F80346002BB5
:101AE80001D0012334E0BB68B3F1FF3F28D0FFF7F2
:101AF8001DF802467B68D31ABA689A4202D3BB68BB
:101B0800002B1DD1FB681B685B6903F08003802BE9
:101B180016D0FB6800221A63FB68202283F83D2058
:101B2800FB68002283F83E20FB681B6C43F0200210
:101B3800FB681A64FB68002283F83C20012307E055
:101B4800FB681B685B6903F08003802BC3D100230B
:101B580018461037BD4680BD80B584B000AFF86028
:101B6800B9607A6034E0F86800F03EF80346002B6C
:101B780001D0012334E0BB68B3F1FF3F28D0FEF762
:101B8800D5FF02467B68D31ABA689A4202D3BB686B
:101B9800002B1DD1FB681B685B6903F00403042B51
:101BA80016D0FB6800221A63FB68202283F83D20C8
:101BB800FB68002283F83E20FB681B6C43F0200280
:101BC800FB681A64FB68002283F83C20012307E0C5
:101BD800FB681B685B6903F00403042BC3D1002373
:101BE80018461037BD4680BD80B483B000AF78601A
:101BF8007B681B685B6903F48063B3F5806F1BD156
:101C08007B681B686FF480625A617B6800221A63E4
:101C18007B68202283F83D207B68002283F83E20E1
:101C28007B681B6C43F004027B681A647B680022A3
:101C380083F83C20012300E0002318460C37BD46FA
:101C48005DF8047B7047000080B586B000AF78600F
:101C58007B68002B01D1012367E27B681B6803F0D6
:101C68000103002B75D0884B9B6803F00C03042BF1
:101C78000CD0854B9B6803F00C03082B12D1824BC8
:101C88005B6803F48003B3F5800F0BD17E4B1B68B0
:101C980003F40033002B5BD07B685B68002B57D1C3
:101CA800012342E27B685B68B3F5803F06D1764B3F
:101CB8001B68754A43F4803313601DE07B685B68DA
:101CC800B3F5A02F0CD1704B1B686F4A43F48023E7
:101CD80013606D4B1B686C4A43F4803313600BE050
:101CE800694B1B68684A23F480331360664B1B6892
:101CF800654A23F4802313607B685B68002B13D04C
:101D0800FEF714FF386108E0FEF710FF02463B6952
:101D1800D31A642B01D9032307E25B4B1B6803F436
:101D28000033002BF0D014E0FEF700FF386108E024
:101D3800FEF7FCFE02463B69D31A642B01D9032344
:101D4800F3E1514B1B6803F40033002BF0D100E0A2
:101D580000BF7B681B6803F00203002B63D04A4B6B
:101D68009B6803F00C03002B0BD0474B9B6803F0D8
:101D78000C03082B1CD1444B5B6803F48003002B35
:101D880016D1414B1B6803F00203002B05D07B687A
:101D9800DB68012B01D00123C7E13B4B1B6823F013
:101DA800F8027B681B69DB00374913430B603AE094
:101DB8007B68DB68002B20D0344B01221A60FEF7C9
:101DC800B5FE386108E0FEF7B1FE02463B69D31A5A
:101DD800022B01D90323A8E12B4B1B6803F0020354
:101DE800002BF0D0284B1B6823F0F8027B681B6996
:101DF800DB00254913430B6015E0244B00221A60D1
:101E0800FEF794FE386108E0FEF790FE02463B6953
:101E1800D31A022B01D9032387E11B4B1B6803F05C
:101E28000203002BF0D17B681B6803F00803002B2A
:101E380036D07B685B69002B16D0154B01221A60DF
:101E4800FEF774FE386108E0FEF770FE02463B6953
:101E5800D31A022B01D9032367E10B4B5B6F03F005
:101E68000203002BF0D01BE0094B00221A60FEF79A
:101E78005DFE38610EE0FEF759FE02463B69D31A53
:101E8800022B07D9032350E10038024000004742E3
:101E9800800E4742884B5B6F03F00203002BEAD1A8
:101EA8007B681B6803F00403002B00F09780002375
:101EB800FB75814B1B6C03F08053002B0FD1002363
:101EC800BB607D4B1B6C7C4A43F0805313647A4B98
:101ED8001B6C03F08053BB60BB680123FB75774B19
:101EE8001B6803F48073002B18D1744B1B68734A6A
:101EF80043F480731360FEF719FE386108E0FEF7BB
:101F080015FE02463B69D31A022B01D903230CE1C3
:101F18006A4B1B6803F48073002BF0D07B689B68C6
:101F2800012B06D1644B1B6F634A43F0010313670F
:101F38001CE07B689B68052B0CD15F4B1B6F5E4ACE
:101F480043F0040313675C4B1B6F5B4A43F00103C8
:101F580013670BE0584B1B6F574A23F001031367B5
:101F6800554B1B6F544A23F0040313677B689B6827
:101F7800002B15D0FEF7DAFD38610AE0FEF7D6FD32
:101F880002463B69D31A41F28832934201D90323AE
:101F9800CBE0494B1B6F03F00203002BEED014E09B
:101FA800FEF7C4FD38610AE0FEF7C0FD02463B6952
:101FB800D31A41F28832934201D90323B5E03E4B4C
:101FC8001B6F03F00203002BEED1FB7D012B05D123
:101FD800394B1B6C384A23F0805313647B689B6928
:101FE800002B00F0A180344B9B6803F00C03082BF6
:101FF8005CD07B689B69022B41D1314B00221A606F
:10200800FEF794FD386108E0FEF790FD02463B6953
:10201800D31A022B01D9032387E0274B1B6803F04F
:102028000073002BF0D17B68DA697B681B6A1A435E
:102038007B685B6A9B011A437B689B6A5B08013B70
:102048001B041A437B68DB6A1B061B4913434B605E
:102058001B4B01221A60FEF769FD386108E0FEF7A4
:1020680065FD02463B69D31A022B01D903235CE0C4
:10207800114B1B6803F00073002BF0D054E0104B99
:1020880000221A60FEF752FD386108E0FEF74EFDA7
:1020980002463B69D31A022B01D9032345E0064BBC
:1020A8001B6803F00073002BF0D13DE07B689B694F
:1020B800012B07D1012338E00038024000700040AE
:1020C800600047421B4B5B68FB607B689B69012B88
:1020D80028D0FB6803F480027B68DB699A4221D12F
:1020E800FB6803F03F027B681B6A9A421AD1FA68C0
:1020F80047F6C07313407A68526A9201934211D12D
:10210800FB6803F440327B689B6A5B08013B1B0455
:102118009A4207D1FB6803F070627B68DB6A1B0692
:102128009A4201D0012300E0002318461837BD4623
:1021380080BD00BF0038024080B584B000AF786031
:1021480039607B68002B01D10123CCE0684B1B6808
:1021580003F007033A689A420CD9654B3A68D2B241
:102168001A70634B1B6803F007033A689A4201D060
:102178000123B8E07B681B6803F00203002B20D022
:102188007B681B6803F00403002B05D0594B9B6840
:10219800584A43F4E05393607B681B6803F00803D4
:1021A800002B05D0534B9B68524A43F4604393601D
:1021B800504B9B6823F0F0027B689B684D491343A2
:1021C8008B607B681B6803F00103002B44D07B689D
:1021D8005B68012B07D1474B1B6803F40033002BC6
:1021E80019D101237FE07B685B68022B03D07B68F1
:1021F8005B68032B07D13F4B1B6803F00073002B70
:1022080009D101236FE03B4B1B6803F00203002B4D
:1022180001D1012367E0374B9B6823F003027B68F9
:102228005B68344913438B60FEF780FCF8600AE072
:10223800FEF77CFC0246FB68D31A41F288329342CF
:1022480001D903234FE02B4B9B6803F00C027B68FA
:102258005B689B009A42EBD1254B1B6803F0070390
:102268003A689A420CD2224B3A68D2B21A70204B82
:102278001B6803F007033A689A4201D0012332E051
:102288007B681B6803F00403002B08D0194B9B687C
:1022980023F4E0527B68DB68164913438B607B6844
:1022A8001B6803F00803002B09D0124B9B6823F42A
:1022B80060427B681B69DB000E4913438B6000F0AA
:1022C80021F802460B4B9B681B0903F00F030A49D0
:1022D800CB5C22FA03F3094A1360094B1B681846C2
:1022E800FEF7E0FB002318461037BD4680BD00BF4F
:1022F800003C0240003802405C2F0008100000201B
:10230800140000202DE9B04F94B000AF00237B6487
:102318000023FB6400233B640023BB64794B9B6868
:1023280003F00C03082B0DD0082B00F2E180002BE2
:1023380002D0042B03D0DBE0734BBB64DBE0734BB0
:10234800BB64D8E06F4B5B6803F03F037B646D4B65
:102358005B6803F48003002B63D06A4B5B689B09BE
:102368000022BB63FA63BB6BC3F308033B63002320
:102378007B63D7E90C4522462B464FF000004FF00F
:102388000001590141EAD261500102460B4621463B
:10239800511A3961294663EB01037B614FF0000252
:1023A8004FF00003D7E904AB59468B01514643EA85
:1023B800916351468A015146B2EB0108594663EBD5
:1023C80001094FF000024FF000034FEAC90343EA46
:1023D80058734FEAC80290469946234618EB030300
:1023E800BB602B4649EB0303FB604FF000024FF044
:1023F8000003D7E9024529464B02214643EAD15357
:1024080021464A02104619467B6C0022BB62FA62DA
:10241800D7E90A23FDF7D4FE02460B461346FB64B0
:1024280058E0384B5B689B09002218461146C0F3F8
:1024380008033B6200237B62D7E9088942464B4682
:102448004FF000004FF00001590141EAD2615001FC
:1024580002460B464146B2EB010A494663EB010BC3
:102468004FF000024FF000034FEA8B1343EA9A63E0
:102478004FEA8A12B2EB0A0463EB0B054FF0000235
:102488004FF00003EB0043EA5473E20014461D4684
:102498004346E3183B604B4645EB03037B604FF034
:1024A80000024FF00003D7E9004529468B02214678
:1024B80043EA915321468A02104619467B6C002252
:1024C800BB61FA61D7E90623FDF77AFE02460B469F
:1024D8001346FB640B4B5B681B0C03F003030133CF
:1024E8005B003B64FA6C3B6CB2FBF3F3BB6402E049
:1024F800054BBB6400BFBB6C18465037BD46BDE8F2
:10250800B08F00BF003802400024F40000127A00A7
:1025180080B400AF034B1B681846BD465DF8047BCA
:10252800704700BF1000002080B500AFFFF7F0FF34
:102538000246054B9B689B0A03F007030349CB5CE3
:1025480022FA03F3184680BD003802406C2F0008B9
:10255800002310B50446C0E90033C0E904338360A2
:1025680081814366C2818361194608225C3000F08C
:10257800E7F90D4B63620D4BA3620D4BE3620D4B04
:1025880023630D4B24629C4206D003F168029442F7
:1025980002D0D0339C4205D104F15800BDE8104068
:1025A80000F046BA10BD00BF99270008BB270008F5
:1025B800F327000817280008F4000020024A0349FE
:1025C800034800F069B800BF1C000020392D00083E
:1025D8002C00002041680C4B994210B5044601D0EC
:1025E80000F0A6FBA168094B994202D0204600F0F2
:1025F8009FFBE168064B994204D02046BDE8104095
:1026080000F096BB10BD00BFF40000205C01002064
:10261800C401002010B50B4B0B4C0C4A1A60204625
:1026280000220421FFF794FF04F168000122092128
:10263800FFF78EFF04F1D0000222BDE810401221FE
:10264800FFF786BF2C020020F4000020C5250008F3
:10265800014800F0EEB900BF35020020014800F043
:10266800E9B900BF3502002010B50446FFF7F0FFB6
:10267800236A1BB1BDE81040FFF7F0BF044B23628B
:10268800044B1B68002BF5D1FFF7C4FFF2E700BF2E
:10269800DD2500082C0200202DE9F843074688466E
:1026A80014460026D4E90195B9F1010905D5246835
:1026B800002CF7D13046BDE8F883AB89012B07D948
:1026C800B5F90E30013303D029463846C0470643D2
:1026D8006835E9E7036A70B5846805460E460BB9A4
:1026E800FFF7C2FF636EDB0705D4A389980502D400
:1026F800A06D00F09EF9A389190702D52369002B64
:1027080035D12146284600F0C5F880B34FF0FF3593
:10271800636EDA0705D4A3899B0502D4A06D00F087
:1027280089F9284670BD002B04DAA2699A4217DCA1
:102738000A2915D023685A1C22601970A36816F854
:10274800011F013BA3600029EDD1002B11DA2246BD
:102758000A21284600F05FF80130D7D00A25D7E7CC
:102768002246284600F057F80130E7D1CEE7013E6F
:10277800E4E723685A1C22600A221A70EEE7000078
:10278800024B01461868FFF7A5BF00BF28000020CC
:1027980010B50C46B1F90E1000F0FCF80028ABBFDC
:1027A800636DA3891B1823F48053ACBF6365A381B1
:1027B80010BD2DE9F0411F468B89DB0505460C4607
:1027C800164605D5B1F90E100223002200F0D0F804
:1027D800A389B4F90E1023F48053A38132463B46F3
:1027E8002846BDE8F04100F0E7B810B50C46B1F94D
:1027F8000E1000F0BDF8431CA38915BF606523F4D3
:10280800805343F48053A38118BFA38110BDB1F94D
:102818000E1000F09DB8F8B50E461446054618B1DE
:10282800036A0BB9FFF720FFA369A360A3891A07FE
:1028380001D5236943B92146284600F02BF818B181
:102848004FF0FF373846F8BD23682269981A636944
:10285800F6B28342374605DC2146284600F068FA7E
:102868000028EDD1A368013BA36023685A1C2260AD
:102878001E706269431C9A4204D0A389DB07E1D524
:102888000A2EDFD12146284600F052FA0028D9D076
:10289800D6E7000038B5294B054618680C4618B12C
:1028A800036A0BB9FFF7E0FEB4F90C30190722D41C
:1028B800DA0607D409222A6043F04003A3814FF0C7
:1028C800FF3033E0580712D5616B41B104F144037E
:1028D800994202D0284600F0AFF800236363A38929
:1028E80023F02403A3810023636023692360A38961
:1028F80043F00803A38123694BB9A38903F4207328
:10290800B3F5007F03D02146284600F05FFAB4F9FA
:102918000C3013F001020AD00022A2606269524210
:10292800A261226942B913F08000C5D138BD990768
:1029380058BF6269A260F4E70020F7E7280000208A
:1029480002440346934200D1704703F8011BF9E79C
:1029580038B5064D0023044608462B60FDF7DAFF1C
:10296800431C02D12B6803B1236038BD300200201C
:1029780038B5074D04460846114600222A601A4613
:10298800FDF7EFFF431C02D12B6803B1236038BD6C
:102998003002002038B5074D04460846114600228B
:1029A8002A601A46FDF799FF431C02D12B6803B130
:1029B800236038BD3002002038B5074D044608466C
:1029C800114600222A601A46FDF7C6FE431C02D1B2
:1029D8002B6803B1236038BD30020020014B186812
:1029E800704700BF2800002070B50D4D0D4C641BCA
:1029F800A4100026A64209D10B4D0C4C00F054FA45
:102A0800641BA4100026A64205D170BD55F8043BEE
:102A180098470136EEE755F8043B98470136F2E748
:102A28007C2F00087C2F00087C2F0008802F0008CE
:102A3800704770477047000038B50546002941D0F7
:102A480051F8043C0C1F002BB8BFE41800F0E0F864
:102A58001D4A136833B9636014602846BDE83840DE
:102A680000F0DCB8A34208D9206821188B4201BFC6
:102A780019685B6809182160EDE71A465B680BB1B5
:102A8800A342FAD911685018A0420BD1206801441A
:102A9800501883421160E0D118685B68536008449D
:102AA8001060DAE702D90C232B60D6E720682118DA
:102AB8008B4204BF19685B68636004BF0918216012
:102AC8005460CAE738BD00BF3C02002070B50F4E05
:102AD8000C463168054611B900F0D6F93060214638
:102AE800284600F0D1F9431C03D14FF0FF342046AB
:102AF80070BDC41C24F00304A042F8D0211A284653
:102B080000F0C2F90130F2D1EFE700BF380200202F
:102B18002DE9F843CD1C25F0030508350C2D38BFE9
:102B28000C25002D064601DBA94204D90C2333608D
:102B38000020BDE8F883DFF8D48000F069F8D8F801
:102B480000301C4644BB29463046FFF7BFFF431CF4
:102B5800044658D1D8F800402746002F43D1002C0E
:102B68004BD023683946304604EB030900F08CF952
:102B7800814542D121686D1A29463046FFF7A6FFE4
:102B880001303AD023682B442360D8F800305A68C3
:102B980062BBC8F800700FE02268521B20D40B2AD1
:102BA80017D96119A342256018BF5960636808BF27
:102BB800C8F8001062514B60304600F02FF804F15D
:102BC8000B00231D20F00700C21A1CBF1B1AA350BC
:102BD800AFE76268A3420CBFC8F800205A60EBE771
:102BE80023466468AEE73C467F68B6E71A465B68EA
:102BF800A342FBD100235360DEE70C233360304649
:102C080000F00CF894E70560D6E700BF3C0200200E
:102C18000148FFF70EBF00BF340200200148FFF74C
:102C280009BF00BF34020020B1F90C202DE9F041A2
:102C3800160705460C4654D44B68002B02DC0B6C77
:102C4800002B48DDE66A002E45D0002312F480529E
:102C58002F68216A2B6030D0626DA389590705D58A
:102C68006368D21A636B0BB1236CD21A0023E66A2D
:102C7800216A2846B047431CA38906D129681D2923
:102C88002BD82A4ACA40D60727D500226260D90421
:102C98002269226004D5421C01D12B6803B9606502
:102CA800616B2F60B9B104F14403994202D0284600
:102CB800FFF7C2FE002363630DE001232846B047F7
:102CC8000246501CC9D12B68002BC6D01D2B01D041
:102CD800162B1ED12F60002022E043F040031BB2C8
:102CE8001BE00F69002FF6D093070E6808BF4B69E9
:102CF8000F6018BF0023A6EB07088B60B8F1000F20
:102D0800E9DD216AA66A43463A462846B0470028C4
:102D180008DCB4F90C3043F04003A3814FF0FF30D6
:102D2800BDE8F0810744A8EB0008E7E70100402070
:102D380038B50B6905460C4613B90025284638BD39
:102D480018B1036A0BB9FFF78FFCB4F90C30002BEC
:102D5800F3D0626ED00704D4990502D4A06DFFF7B2
:102D680068FE28462146FFF75FFF636EDA070546CF
:102D7800E4D4A3899B05E1D4A06DFFF75BFEDDE7F2
:102D880070B50C46B1F90E10002996B015461E46CE
:102D98000DDAA38913F0800F4FF0000114BF402310
:102DA8004FF48063002031602B6016B070BD6A4616
:102DB80000F048F80028ECDB019901F47041A1F516
:102DC8000053594259414FF48063EBE78B89F7B5BB
:102DD8009D0706460C4607D504F147032360236187
:102DE8000123636103B0F0BD01AB6A46FFF7C8FF7A
:102DF800009F054639463046FFF78AFE48B9B4F9C0
:102E08000C309A05EED423F0030343F00203A381A8
:102E1800E2E7A389206043F08003A381019BC4E912
:102E280004075BB1B4F90E10304600F01DF828B164
:102E3800A38923F0030343F00103A381A3891D435E
:102E4800A581CFE738B5074D00230446084611464B
:102E58002B60FDF76BFD431C02D12B6803B1236087
:102E680038BD00BF3002002038B5064D00230446A7
:102E780008462B60FDF76AFD431C02D12B6803B19D
:102E8800236038BD3002002038B5064D00230446C3
:102E980008462B60FDF772FD431C02D12B6803B175
:102EA800236038BD30020020F8B500BFF8BC08BC6C
:102EB8009E467047F8B500BFF8BC08BC9E467047F0
:102EC8005468652044657669636520697320526596
:102ED80061647920000000005468652044657669C3
:102EE8006365206973206E6F742072656164792E42
:102EF80020436865636B204361626C657320000042
:102F080057524954494E4720544F20524547495338
:102F1800544552203237200057726974696E672011
:102F2800746F205265676973746572204E6F7420E0
:102F380067657474696E6720526573706F6E736528
:102F48002000000048656C6C6F20576F726C64201D
:102F5800000000000000000000000000010203045F
:0C2F680006070809000000000102030435
:082F740084D2FF7F0100000080
:042F7C00AD0100089B
:042F800089010008BB
:102F8400D000000001000000640000001B000200EB
:102F94000024F40010000000010000000000000004
:102FA40003000000F40000202C00002000000000BA
:102FB400F40000205C010020C40100200000000097
:102FC40000000000000000000000000000000000FD
:102FD40000000000000000000000000000000000ED
:102FE40000000000000000000000000000000000DD
:082FF4000000000000000000D5
:0400000508000A15D0
:00000001FF
