:020000040800F2
:1000000000000220CD300008091300081113000879
:10001000191300082113000829130008000000002C
:100020000000000000000000000000003113000884
:100030003F130008000000004D1300085B13000888
:100040001D3100081D3100081D3100081D31000858
:100050001D3100081D3100081D3100081D31000848
:100060001D3100081D3100081D3100081D31000838
:100070001D3100081D3100081D3100081D31000828
:100080001D3100081D3100081D3100081D31000818
:100090001D3100081D3100081D3100081D31000808
:1000A0001D3100081D3100081D3100081D310008F8
:1000B0001D3100081D3100081D3100081D310008E8
:1000C0001D3100081D3100081D3100081D310008D8
:1000D0001D3100081D310008691300081D3100089A
:1000E0001D3100081D3100081D3100081D310008B8
:1000F0001D3100081D3100081D3100081D310008A8
:100100001D3100081D3100081D3100081D31000897
:100110001D3100081D3100081D3100081D31000887
:100120001D3100081D3100081D3100081D31000877
:100130001D3100081D3100081D3100081D31000867
:100140001D3100081D3100081D3100081D31000857
:100150001D3100081D3100081D3100081D31000847
:100160001D3100081D3100081D3100081D31000837
:100170001D3100081D3100081D310008000000007D
:080180001D3100081D310008CB
:1001900010B5054C237833B9044B13B10448AFF3C1
:1001A00000800123237010BD6800002000000000C3
:1001B000A06F000808B5034B1BB103490348AFF318
:1001C000008008BD000000006C000020A06F000847
:1001D00010F8012B11F8013B012A28BF9A42F7D0F1
:1001E000D01A70470000000000000000000000006E
:1001F00001F0FF01102A2BDB10F0070F08D010F8D8
:10020000013B013A8B422DD010F0070F42B3F6D1DB
:10021000F0B441EA012141EA014122F007047FF0F4
:1002200000070023F0E80256083C85EA010586EA4B
:10023000010685FA47F5A3FA87F586FA47F6A5FA87
:1002400087F68EB9EED1F0BC01F0FF0102F0070293
:1002500032B110F8013B013A83EA010313B1F8D13E
:100260000020704701387047002D06BF354603381F
:10027000073815F0010F07D1013015F4807F02BF58
:10028000013015F4C03F0130F0BC0138704700BFA9
:1002900081F0004102E000BF83F0004330B54FEA37
:1002A00041044FEA430594EA050F08BF90EA020FA4
:1002B0001FBF54EA000C55EA020C7FEA645C7FEA37
:1002C000655C00F0E2804FEA5454D4EB5555B8BF5A
:1002D0006D420CDD2C4480EA020281EA030382EACB
:1002E000000083EA010180EA020281EA0303362D5D
:1002F00088BF30BD11F0004F4FEA01314FF4801C30
:100300004CEA113102D0404261EB410113F0004F41
:100310004FEA03334CEA133302D0524263EB4303F8
:1003200094EA050F00F0A780A4F10104D5F1200E96
:100330000DDB02FA0EFC22FA05F2801841F10001F1
:1003400003FA0EF2801843FA05F359410EE0A5F1C5
:1003500020050EF1200E012A03FA0EFC28BF4CF0F6
:10036000020C43FA05F3C01851EBE37101F00045AC
:1003700007D54FF0000EDCF1000C7EEB00006EEBB9
:100380000101B1F5801F1BD3B1F5001F0CD3490843
:100390005FEA30004FEA3C0C04F101044FEA44529A
:1003A00012F5800F80F09A80BCF1004F08BF5FEA21
:1003B000500C50F1000041EB045141EA050130BD01
:1003C0005FEA4C0C404141EB0101013C28BFB1F513
:1003D000801FE9D291F0000F04BF01460020B1FA5E
:1003E00081F308BF2033A3F10B03B3F120020CDA31
:1003F0000C3208DD02F1140CC2F10C0201FA0CF00F
:1004000021FA02F10CE002F11402D8BFC2F1200C73
:1004100001FA02F120FA0CFCDCBF41EA0C01904029
:10042000E41AA2BF01EB0451294330BD6FEA040472
:100430001F3C1CDA0C340EDC04F11404C4F120025D
:1004400020FA04F001FA02F340EA030021FA04F36F
:1004500045EA030130BDC4F10C04C4F1200220FAC6
:1004600002F001FA04F340EA0300294630BD21FA04
:1004700004F0294630BD94F0000F83F4801306BFCA
:1004800081F480110134013D4EE77FEA645C18BFBE
:100490007FEA655C29D094EA050F08BF90EA020F55
:1004A00005D054EA000C04BF1946104630BD91EA4D
:1004B000030F1EBF0021002030BD5FEA545C05D150
:1004C0004000494128BF41F0004130BD14F580048F
:1004D0003CBF01F5801130BD01F0004545F0FE4103
:1004E00041F470014FF0000030BD7FEA645C1ABF38
:1004F000194610467FEA655C1CBF0B46024650EA6F
:10050000013406BF52EA033591EA030F41F400219A
:1005100030BD00BF90F0000F04BF0021704730B520
:100520004FF4806404F132044FF000054FF00001F5
:1005300050E700BF90F0000F04BF0021704730B5B6
:100540004FF4806404F1320410F0004548BF40428B
:100550004FF000013EE700BF42004FEAE2014FEAE0
:1005600031014FEA02701FBF12F07F4393F07F4FBB
:1005700081F06051704732F07F4208BF704793F0BE
:100580007F4F04BF41F40021704730B54FF46074D1
:1005900001F0004521F000411CE700BF50EA0102D4
:1005A00008BF704730B54FF000050AE050EA01027D
:1005B00008BF704730B511F0004502D5404261EBED
:1005C00041014FF4806404F132045FEA915C3FF42E
:1005D000D8AE4FF003025FEADC0C18BF03325FEACB
:1005E000DC0C18BF033202EBDC02C2F1200300FA7C
:1005F00003FC20FA02F001FA03FE40EA0E0021FAA1
:1006000002F11444BDE600BF4FEA4102B2F1E043FB
:1006100024BFB3F5001CDCF1FE5C0DD901F0004CE9
:100620004FEAC0024CEA5070B2F1004F40EB830039
:1006300008BF20F00100704711F0804F21D113F165
:100640003872BCBF01F00040704741F480114FEA9E
:100650005252C2F11802C2F1200C10FA0CF320FA27
:1006600002F018BF40F001004FEAC1234FEAD32344
:1006700003FA0CFC40EA0C0023FA02F34FEA4303AE
:10068000CCE77FEA625307D150EA01331EBF4FF037
:10069000FE4040F44000704701F0004040F0FE4052
:1006A00040F40000704700BF53B94AB9002908BFA1
:1006B00000281CBF4FF0FF314FF0FF3000F088B929
:1006C000ADF1080C6DE904CE00F006F8DDF804E0A9
:1006D000DDE9022304B070472DE9F047089D8E46FE
:1006E00004468846002B4AD18A42174662D9B2FA9C
:1006F00082F64EB1C6F1200301FA06F820FA03F3A0
:10070000B74043EA0808B4404FEA174E1FFA87FC87
:10071000B8FBFEF1230C0EFB118843EA084301FBF2
:100720000CF29A4209D9FB1801F1FF3080F0EA80FF
:100730009A4240F2E78002393B449A1AA3B2B2FBD4
:10074000FEF00EFB102243EA024300FB0CFC9C452A
:1007500009D9FB1800F1FF3280F0D6809C4540F2A9
:10076000D3803B44023840EA0140A3EB0C03002154
:100770001DB1F3400022C5E90032BDE8F0878B428D
:1007800005D90DB1C5E9000100210846F5E7B3FA26
:1007900083F1002946D1734502D3824200F20581DC
:1007A000841A6EEB030201209046002DE5D0C5E9C6
:1007B0000048E2E7002A00F09080B2FA82F6002EAC
:1007C00040F0A4808A1A030C4FEA174E80B2BCB2E4
:1007D0000121B2FBFEFC0EFB1C2243EA024304FB98
:1007E0000CF29A4207D9FB180CF1FF3802D29A4258
:1007F00000F2E080C4469B1AB3FBFEF20EFB1233FC
:1008000040EA034302FB04F49C4207D9FB1802F1BF
:10081000FF3002D29C4200F2CA8002461B1B42EA11
:100820000C40A5E7C1F120068B4022FA06F71F43D2
:100830000EFA01F420FA06F32EFA06FE4FEA1749E3
:10084000234300FA01F81FFA87FCBEFBF9F01C0CE9
:1008500009FB10EE44EA0E4400FB0CFEA64502FA2A
:1008600001F209D93C1900F1FF3A80F09C80A645BD
:1008700040F2998002383C44A4EB0E041FFA83FE38
:10088000B4FBF9F309FB13444EEA044403FB0CFCEC
:10089000A44508D93C1903F1FF3E80F08280A445AD
:1008A0007FD9023B3C4443EA0040A4EB0C04A0FB8C
:1008B00002EC64457346E14662D35FD05DB1B8EBAC
:1008C000030264EB090404FA06F622FA01F31E435C
:1008D000CC40C5E9006400214FE7B1FBF2FC010CFC
:1008E00041EA0E4180B240EA01423B4638463C466E
:1008F000B846BE462026B1FBF7F1A2EB080241EA5A
:100900000C4166E7014618E710462CE7C6F12002C5
:100910002EFA02F3B740B14020FA02F24FEA174E26
:100920000A43B3FBFEF8BCB20EFB1833110C41EACC
:10093000034108FB04F9B04089454FEA104380B2F7
:100940003ED9791808F1FF3C01D289451FD8A1EBA7
:100950000901B1FBFEF909FB04F80EFB191192B273
:1009600042EA0142424529D2BA1809F1FF31C4D204
:100970004245C2D2A9F102013A44BEE7F0459DD2F8
:10098000BEEB02036CEB070C0138E14696E7A7EBE0
:1009900009094944A8F1020CB1FBFEF909FB04F86E
:1009A000DBE773467FE7504666E70846FDE63B44D3
:1009B000023A33E7ACF1020C3B441CE749469CE7A2
:1009C000A1EB0901C446B1FBFEF909FB04F8C4E739
:1009D000704700BF0000000080B52DED028B8EB087
:1009E00002AF02F09DFB00F077FA00F037FB00F059
:1009F000DDFA00F009FB0122B949BA4804F077F9A1
:100A0000B94BBA4ABA49BB4800F000FEB94802F0F7
:100A1000BFFA0021B74802F0CAFAB74B1B78DBB225
:100A2000002B31D0B54805F0E5FAB54B1B689B6843
:100A3000184605F099F9B349B348FFF7C9FB0346D7
:100A4000002B0CD1B14805F0D5FAAD4B1B689B6863
:100A5000184605F089F9AE4B01221A7009E0AA493F
:100A6000AC4805F057FAA64B1B689B68184605F082
:100A70007BF9A14B00221A70A74B00221A7040226A
:100A80000021A14805F0CCFBA14B1B78DBB2002B69
:100A900000F0E78102F0AAFB0246A04BA3FB021381
:100AA0005B09642101FB03F3D31A07EE903AF8EED9
:100AB000677A9FED9B7AC7EE876A16EE900AFFF77A
:100AC0004BFD7BA3D3E90023FFF7E8FB02460B466F
:100AD00010461946FFF798FD0346924A136002F04C
:100AE00085FB02468D4BA3FB02135B09642101FBCE
:100AF00003F3D31A07EE903AF8EE677A9FED887AFF
:100B0000C7EE876A16EE900AFFF726FD6AA3D3E9BF
:100B10000023FFF7C3FB02460B4610461946FFF7BA
:100B200073FD03467F4A536002F060FB02467B4B35
:100B3000A3FB02135B09642101FB03F3D31A07EE45
:100B4000903AF8EE677A9FED767AC7EE876A16EEEE
:100B5000900AFFF701FD5AA3D3E90023FFF79EFB9C
:100B600002460B4610461946FFF74EFD03466D4AF6
:100B7000936002F03BFB0246684BA3FB02135B0948
:100B8000642101FB03F3D31A07EE903AF8EE677A7B
:100B90009FED637AC7EE876A16EE900AFFF7DCFCDA
:100BA00049A3D3E90023FFF779FB02460B46104621
:100BB0001946FFF729FD03465A4AD36002F016FB97
:100BC0000246564BA3FB02135B09642101FB03F3AE
:100BD000D31A07EE903AF8EE677A9FED537AC7EE94
:100BE000876A16EE900AFFF7B7FC39A3D3E9002312
:100BF000FFF754FB02460B4610461946FFF704FD6B
:100C00000346484A136102F0F1FA0246434BA3FB44
:100C100002135B09642101FB03F3D31A07EE903A38
:100C2000F8EE677A9FED407AC7EE876A16EE900A73
:100C3000FFF792FC28A3D3E90023FFF72FFB02461E
:100C40000B4610461946FFF7DFFC0346354A536151
:100C50000623FB6223E0FB6A07EE903AB8EEE78AD0
:100C600002F0C4FA0246314BA3FB02139B094FF476
:100C70007A7101FB03F3D31A07EE903AB8EE677A64
:100C8000DFED276AC7EE267A78EE277A254AFB6AD7
:100C90009B001344C3ED007AFB6A0133FB62FB6ADD
:100CA000172BD8DD224805F035F90023BB625BE045
:100CB0009A99999999990940CDCCCCCCCCCC084043
:100CC0006666666666660A403333333333330B40F9
:100CD000A4703D0AD7A3C03F9A9999999999B93FB1
:100CE00020010020D8000020352900085D280008D8
:100CF000747C0008C801002065010020887100088C
:100D000018000020A471000824010020B871000818
:100D100066010020D4710008640100201F85EB519A
:100D200000007A44680100200000FA44D34D6210AC
:100D3000047200085A4ABB6A9B001344D3ED007A40
:100D40009FED587A67EE877AFDEEE77A17EE901AF4
:100D5000554805F0DFF8BB6A162B02DC2C2005F0A5
:100D6000EBF8BB6A0133BB62BB6A172BE2DD0A20DA
:100D700005F0E2F84D4B1B689B68184604F0F4FF41
:100D80004B4800F0B1FB4B49494801F0EFF94A4BA1
:100D900012220021464801F047F94849444801F031
:100DA000E5F93F4BD3ED007AFDEEE77A17EE903A86
:100DB0007B623B4BD3ED007A9FED417A67EE877AF9
:100DC000F0EEE77AFDEEE77A17EE903A3D4A82FBC5
:100DD00003125111DA178A1A642101FB02F29B1ADD
:100DE0003B6238463B6A00937B6A374A202105F014
:100DF00009F93B46282200212D4801F015F9284B1E
:100E0000D3ED047AFDEEE77A17EE903A7B62244B3D
:100E1000D3ED047A9FED2A7A67EE877AF0EEE77ACF
:100E2000FDEEE77A17EE903A264A82FB0312511143
:100E3000DA178A1A642101FB02F29B1A3B623846D8
:100E40003B6A00937B6A214A202105F0DBF83B4690
:100E500037220021164801F0E7F8154800F0B7FBEB
:100E600019E0134800F040FB1249114801F07EF9E7
:100E7000174B232200210E4801F0D6F80F490C48E9
:100E800001F074F9134B37220021094801F0CCF826
:100E9000074800F09CFB4FF4FA7002F0B3F9BCE590
:100EA0006801002000007A440C720008180000203D
:100EB000C80100205C7600081072000888720008E3
:100EC0000000C8421F85EB512072000838720008EC
:100ED000507200085C72000880B594B000AF07F152
:100EE000200330220021184605F09AF907F10C037F
:100EF00000221A605A609A60DA601A610023BB60AF
:100F0000284B1B6C274A43F080531364254B1B6C02
:100F100003F08053BB60BB6800237B60224B1B68DF
:100F2000214A43F4804313601F4B1B6803F4804342
:100F30007B607B6802233B620123FB6210233B63DF
:100F40000223BB630023FB6308233B6454237B64BD
:100F50000223BB640723FB6407F12003184603F058
:100F600053F90346002B01D000F008F90F23FB6072
:100F700002233B6100237B614FF48053BB614FF43C
:100F80008053FB6107F10C030221184603F0B4FB08
:100F90000346002B01D000F0F1F800BF5037BD46EA
:100FA00080BD00BF003802400070004080B500AF37
:100FB000124B134A1A60114B124A5A600F4B00220F
:100FC0009A600E4B0022DA600C4B4FF480421A619B
:100FD0000A4B00225A61094B00229A61074B0022FA
:100FE000DA61064B00221A62044802F06FFC0346E5
:100FF000002B01D000F0C2F800BF80BD84000020AB
:1010000000540040801A060080B500AF114B124A10
:101010001A60104B4FF4E1325A600E4B00229A6076
:101020000C4B0022DA600B4B00221A61094B0C2298
:101030005A61084B00229A61064B0022DA6105488A
:1010400003F07AFD0346002B01D000F097F800BFB3
:1010500080BD00BFD80000200044004080B485B0AF
:1010600000AF0023FB60174B1B6B164A43F0800355
:101070001363144B1B6B03F08003FB60FB680023BE
:10108000BB60104B1B6B0F4A43F0010313630D4B06
:101090001B6B03F00103BB60BB6800237B60094B43
:1010A0001B6B084A43F002031363064B1B6B03F0F0
:1010B00002037B607B6800BF1437BD465DF8047B8C
:1010C000704700BF0038024080B582B000AF786042
:1010D0007B681B681B4A934230D11B4B1B78DBB2E9
:1010E0000A2B04D0184B1B78DBB20D2B0FD1174BFA
:1010F0001B78DBB2002B1CD0144B1B78DBB21A46DA
:10110000134B00219954134B01221A7011E00F4B1D
:101110001B78DBB23E2B0CD80C4B1B78DBB25A1C75
:10112000D1B20A4A11701A46074B1B78D9B2084B44
:10113000995401220449786803F0D9FD00BF0837AB
:10114000BD4680BD00440040200100206401002015
:10115000240100206501002080B582B000AF7860D6
:10116000391D4FF0FF330122034803F035FD7B6842
:1011700018460837BD4680BDD800002080B400AFB7
:1011800072B600BF00BFFDE780B582B000AF00239C
:101190007B60104B5B6C0F4A43F4804353640D4BF0
:1011A0005B6C03F480437B607B6800233B60094BEE
:1011B0001B6C084A43F080531364064B1B6C03F00E
:1011C00080533B603B68072002F010F900BF0837EE
:1011D000BD4680BD0038024080B58AB000AF78605F
:1011E00007F1140300221A605A609A60DA601A61EB
:1011F0007B681B68194A93422CD100233B61184B32
:101200001B6B174A43F002031363154B1B6B03F070
:1012100002033B613B694FF440737B611223BB6166
:101220000023FB6103233B6204237B6207F1140369
:1012300019460C4802F0AEF90023FB60084B1B6C0A
:10124000074A43F400131364054B1B6C03F40013AB
:10125000FB60FB6800BF2837BD4680BD00540040DE
:10126000003802400004024080B58AB000AF7860C8
:1012700007F1140300221A605A609A60DA601A615A
:101280007B681B681D4A934233D100233B611C4B92
:101290001B6C1B4A43F400331364194B1B6C03F49F
:1012A00000333B613B690023FB60154B1B6B144A09
:1012B00043F001031363124B1B6B03F00103FB604C
:1012C000FB680C237B610223BB610023FB610323CA
:1012D0003B6207237B6207F114031946094802F0B9
:1012E00059F900220021262002F08BF8262002F076
:1012F000A4F800BF2837BD4680BD00BF00440040B1
:10130000003802400000024080B400AF00BFFDE79B
:1013100080B400AF00BFFDE780B400AF00BFFDE7C1
:1013200080B400AF00BFFDE780B400AF00BFFDE7B1
:1013300080B400AF00BFBD465DF8047B704780B449
:1013400000AF00BFBD465DF8047B704780B400AFBE
:1013500000BFBD465DF8047B704780B500AF01F06B
:1013600031FF00BF80BD000080B500AF024803F030
:10137000E3FC00BF80BD00BFD800002080B586B070
:1013800000AFF860B9607A6000237B610AE0AFF3D8
:1013900000800146BB685A1CBA60CAB21A707B69E9
:1013A00001337B617A697B689A42F0DB7B6818467F
:1013B0001837BD4680BD80B586B000AFF860B96013
:1013C0007A6000237B6109E0BB685A1CBA601B7815
:1013D0001846FFF7C1FE7B6901337B617A697B6840
:1013E0009A42F1DB7B6818461837BD4680BD80B451
:1013F00083B000AF78604FF0FF3318460C37BD461E
:101400005DF8047B704780B483B000AF78603960CA
:101410003B684FF400525A60002318460C37BD4613
:101420005DF8047B704780B483B000AF786001231F
:1014300018460C37BD465DF8047B704780B485B014
:1014400000AFF860B9607A60002318461437BD46D3
:101450005DF8047B7047000080B586B000AF78600F
:10146000144A154BD31A7B617B693B61134B1B6894
:10147000002B02D1114B124A1A60104B1A687B687C
:1014800013443A699A4207D204F018FF03460C222B
:101490001A604FF0FF3309E0084B1B68FB60074BF5
:1014A0001A687B681344054A1360FB6818461837AE
:1014B000BD4680BD00000220000400005C02002048
:1014C000D807002080B400AF064BD3F88830054A17
:1014D00043F47003C2F8883000BFBD465DF8047B5A
:1014E000704700BF00ED00E080B584B000AF7860C9
:1014F0007B681B681B7CFB607B6893F838301A465E
:10150000FB6802FB03F3FB60FB68DB00FB607B68AE
:101510005B6BFA680021184604F082FE00BF1037AA
:10152000BD4680BD80B586B002AF78600B46FB70CB
:101530001346BB707B681B681B7CFB73FB78BB810D
:101540007B685B6BBB60FB7B9BB2BA8912FB03F3CE
:10155000BB81BB89DB00BB81BB89BA681344BB601C
:10156000F97BBA78BB6800930B460021786801F0DC
:10157000DEFC00BF1037BD4680BD80B584B000AF33
:1015800078600023FB737B6893F838307B737B684B
:1015900093F83930BB737B681B685B7C3B73BA7B09
:1015A000FB7B19467868FFF7BDFFFB7B0133FB73BC
:1015B000BB7B0133BB73FA7B7B7B9A4203D2BA7B42
:1015C0003B7B9A42EBD300BF1037BD4680BD80B550
:1015D00082B000AF78607868FFF7CFFF786801F0DD
:1015E000F7FC00BF0837BD4680BD000080B483B063
:1015F00000AF78607B6808221A70034B18460C37DE
:10160000BD465DF8047B70476002002080B588B05D
:1016100002AFF860B9607A603B603B6800937B681A
:101620000B4A0C49F86801F033FD07F11303184623
:10163000FFF7DCFF7861FA7CBB680093064B7969A1
:10164000F86800F0C4FF00BF1837BD4680BD00BF7A
:10165000CD2B0008292E00085124000880B483B047
:1016600000AF78600B46FB70FB787A6813447B60B0
:101670007B681B7818460C37BD465DF8047B7047C5
:1016800080B485B000AF78600B46FB70FB787A6859
:1016900013447B607B681B78FB817B6801337B6034
:1016A000FB891B02FB817B681B781A46FB8913446C
:1016B000FB81FB8918461437BD465DF8047B7047F3
:1016C00080B582B000AF7860396000213868FFF7DC
:1016D000C5FF03461A467B681A7001213868FFF778
:1016E000BDFF03461A467B685A7002213868FFF72F
:1016F000B5FF03461A467B689A7003213868FFF7E6
:10170000ADFF03461A467B68DA7004213868FFF79C
:10171000A5FF03461A467B681A7105213868FFF752
:101720009DFF03461A467B685A7106213868FFF709
:1017300095FF03461A467B689A7107213868FFF7C0
:101740008DFF03461A467B68DA7108213868FFF777
:1017500085FF03461A467B681A7209213868FFF72D
:101760007DFF03465AB27B685A720A213868FFF738
:1017700075FF03465AB27B689A720B213868FFF7EF
:101780006DFF03465AB27B68DA720C213868FFF7A6
:1017900065FF03465AB27B681A730D213868FFF75C
:1017A0005DFF03465AB27B685A730E213868FFF713
:1017B00055FF03465AB27B689A730F213868FFF7CA
:1017C0004DFF03465AB27B68DA7310213868FFF781
:1017D00045FF03465AB27B681A7411213868FFF737
:1017E0004FFF03461A467B685A8213213868FFF779
:1017F00047FF03461A467B689A8215213868FFF72F
:101800003FFF03461A467B68DA8200BF0837BD46B1
:1018100080BD80B485B000AF78600B46FB707B68FC
:101820001B7B7B737B681B681B78FB73FA7B7B7B62
:1018300042FA03F3FB737B7BBB73BA7BFB781344E5
:10184000BB73BB7B072B1AD908233B733A7B7B7B8B
:10185000D31A3B737B681B685A1C7B681A607B68D1
:101860001B681B781A463B7B02FA03F35AB297F9BE
:101870000F3013435BB2FB73BB7B083BBB73FB783E
:101880004FF0FF3202FA03F3DBB2DB43DAB2FB7B49
:101890001340FB737B68BA7B1A73FB7B18461437C3
:1018A000BD465DF8047B704780B584B000AF7860BA
:1018B0000B46FB70FB7819467868FFF7AAFF0346D2
:1018C000FB730123BB73FB78013BFB7097F90E2080
:1018D000FB7802FA03F3BB73FA7BBB7BD31ADBB250
:1018E000FB7397F90F3018461037BD4680BD90B492
:1018F00082B000AF0446084611461A462346FB80D4
:1019000003467B710B463B711346FB70FB78022B41
:1019100014D0022B19DC002B02D0012B07D014E0CD
:1019200097F904309AB2FB881344FB8014E097F9CE
:1019300005309AB2FB881344FB800DE097F9043020
:101940009BB2FA88D31AFB8006E097F905309BB268
:10195000FA88D31AFB8000BFFB8818460837BD46BB
:1019600090BC704790B482B000AF04460846114660
:101970001A462346FB8003467B710B463B71134698
:10198000FB70FB78022B14D0022B19DC002B02D049
:10199000012B07D014E097F905309AB2FB88134465
:1019A000FB8014E097F904309BB2FA88D31AFB80CD
:1019B0000DE097F905309BB2FA88D31AFB8006E058
:1019C00097F904309AB2FB881344FB8000BFFB8870
:1019D00018460837BD4690BC704780B588B002AF46
:1019E00078600B46FB701346BB707B6860333B61CD
:1019F000FB78FB753B6993F908307B753B6993F97C
:101A000009303B753B6993F90A30FB73FA7B7B7DA8
:101A1000D31AFB73FB7BBB75FA7DFB7B9A4201D229
:101A2000FB7DBB753B699B88BB813B69DB887B8108
:101A300097F9151097F914203B691B7CB889FFF7BB
:101A400091FF0346BB8197F9151097F914203B6964
:101A50001B7C7889FFF74BFF03467B81BB78002B0B
:101A600010D03B699A7B7B6883F89220BB7D98B24B
:101A70003B691B7C7A89B98900930346786800F03A
:101A8000FEFB13E03B695B7B002B0FD13B69DA7BEC
:101A90007B6883F89220BB7D98B23B691B7C7A8976
:101AA000B98900930346786800F0E9FBFA7DFB7B77
:101AB0009A4209D3FA7DFB7BD31AFB7500237B7511
:101AC0003B7D01333B759DE700BF7A7DFB7D134471
:101AD0007B7597F915203B691A7297F914203B69B9
:101AE0005A7200BF1837BD4680BD80B584B000AFC4
:101AF000786039607B686033FB60FB683A681A6025
:101B0000FB6800221A737B6893F878301946F868EE
:101B1000FFF77FFE03465AB2FB689A727B6893F820
:101B200079301946F868FFF774FE03465AB2FB682D
:101B3000DA727B6893F89220FB689A73FB689B7B50
:101B4000002B0CBF01230023DBB21A46FB68DA73BB
:101B500000BF1037BD4680BD80B58AB002AF786047
:101B600039607B6860337B6139687868FFF7BDFF57
:101B70007B6893F86B30FB747B6893F87A30194676
:101B80007869FFF791FE0346BB747B6893F87B305E
:101B900019467869FFF788FE03467B747B6893F8E3
:101BA0007C3019467869FFF77FFE03463B747B69FA
:101BB00093F90A30002B40F3D7807B699888FA7C30
:101BC0007B7C1344DBB25B42DBB25AB27B691B7C89
:101BD00097F91210FFF7C6FE03461A467B699A80F2
:101BE0007B69D888FA7C7B7C1344DBB25B42DBB236
:101BF0005AB27B691B7C97F91210FFF778FE0346F7
:101C00001A467B69DA807B699B88FB837B69DB886A
:101C10007B83FB8BBB837B8B3B837B691B7C032B95
:101C20005AD801A252F823F0391C0008551C0008AC
:101C30007D1C0008B11C00087B6993F90A309AB238
:101C4000BB8B1344BB8397F913309AB23B8B13447D
:101C50003B8341E097F913309BB2FA8BD31AFB8395
:101C6000FB8B0133FB83BB8B0133BB837B6993F914
:101C70000A309AB23B8B13443B832DE07B6993F986
:101C80000A309BB2FA8BD31AFB83FB8B0133FB83A5
:101C9000BB8B0133BB8397F913309BB27A8BD31A7A
:101CA0007B837B8B01337B833B8B01333B8313E053
:101CB00097F913309AB2BB8B1344BB837B6993F9BA
:101CC0000A309BB27A8BD31A7B837B8B01337B8365
:101CD0003B8B01333B8300BFB88B7A8BF98B3B8BFB
:101CE00000930346786800F088FB0346002B02D17E
:101CF00097F910303AE07B6900221A727B69002262
:101D00005A727B6893F8763019467869FFF781FD3F
:101D10000346FB737B6893F8773019467869FFF7C1
:101D200078FD0346BB73FB7B002219467868FFF7FA
:101D300054FEBB7B012219467868FFF74EFE012155
:101D40007869FFF766FD0346002BECD17B6993F9B8
:101D5000093097F913209A4200DDD2E700BF7B6972
:101D60009A7B7B6883F8922097F9103018462037C9
:101D7000BD4680BD80B586B000AF78600B467B80E5
:101D80007B689B6D7B617B6917337B617B88FF2B55
:101D90002AD87B88602B07D97B68B3F888301A462D
:101DA0007B6913447B6109E07B88402B06D97B6803
:101DB000B3F886301A467B6913447B617B69013333
:101DC0001B78002B4ED07B691B781A467B88934288
:101DD00002D17B69023349E07B6901331B781A46E3
:101DE0007B6913447B61E9E77B68B3F88A301A4664
:101DF0007B6913447B617B693B6100213869FFF794
:101E00003FFC03461A467B6913447B610221386913
:101E1000FFF736FC0346FB813B6904333B61FA89DB
:101E20007B889A42E9D37B691B78FB81FB891B0283
:101E3000FB817B6901331B781A46FB891343FB81C5
:101E4000FB89002B10D0FA897B889A4202D17B69EA
:101E500003330BE07B6902331B781A467B6913441A
:101E60007B61E0E700BF00E000BF002318461837A1
:101E7000BD4680BD80B586B000AFF860084611460B
:101E80001A4603467B810B463B811346FB800023A9
:101E9000FB82FB687A89A3F86420FB683A89A3F87F
:101EA0006620FB881946F868FFF764FF38613B69D4
:101EB000002B05D03969F868FFF74EFE0346FB8218
:101EC000FB8A18461837BD4680BD000080B584B037
:101ED00000AFF860084611461A4603467B810B4660
:101EE0003B811346FB80FB6893F87030032B33D89B
:101EF00001A252F823F000BF091F00081D1F0008AF
:101F0000311F0008451F0008FB68DB6DF868984723
:101F100003461A463B8913443B811DE0FB68DB6D99
:101F2000F868984703461A467B899B1A7B8113E021
:101F3000FB68DB6DF868984703461A463B899B1A95
:101F40003B8109E0FB68DB6DF868984703461A4659
:101F50007B8913447B8100BFFB883A897989F868C3
:101F6000FFF788FF034618461037BD4680BD00BF07
:101F700080B586B000AFF8607B600B467B8113466E
:101F80003B81F86800F0F4FC0023FB82FB685B688F
:101F90007A6812781146F86898470346BB82BB8A74
:101FA0004FF6FF72934238D07B6801337B60BB8A67
:101FB0004FF6FE729342E9D0BB8A3A897989F86874
:101FC000FFF784FF03467B82FB6893F87030032B96
:101FD0001ED801A252F823F0E91F0008F31F0008E1
:101FE000FD1F0008072000087A897B8A13447B8143
:101FF0000EE03A897B8A13443B8109E07A897B8A27
:10200000D31A7B8104E03A897B8AD31A3B8100BFD3
:10201000FA8A7B8A1344FB82B8E700BFFB8A184622
:102020001837BD4680BD00BF80B584B000AFF860F2
:102030007B600B467B8113463B81FB68064A5A60F6
:102040003A8979897B68F868FFF792FF034618465A
:102050001037BD4680BD00BF8D29000880B483B015
:1020600000AF78607B689B6D002B5DD07B6893F937
:1020700081207B6883F88E207B6893F982207B68BF
:1020800083F88F207B6893F88D30002B4DD07B68D0
:1020900093F88D30012B1CD17B6893F98E207B68DF
:1020A00093F983309A4205DA7B6893F983207B6841
:1020B00083F88E207B6893F98F207B6893F98430B6
:1020C0009A4232DD7B6893F984207B6883F88F2005
:1020D0002BE07B6893F98E301A467B6893F97E304B
:1020E00019467B6893F980300B449A420DDA7B687D
:1020F00093F97E30DAB27B6893F98030DBB2134417
:10210000DBB25AB27B6883F88E207B6893F98F200C
:102110007B6893F980309A4207DD7B6893F98020D1
:102120007B6883F88F2000E000BF0C37BD465DF868
:10213000047B704780B483B000AF786000231846FA
:102140000C37BD465DF8047B7047000080B483B057
:1021500000AF78607B68044ADA6500BF0C37BD4683
:102160005DF8047B704700BF3521000880B582B060
:1021700000AF786039607B689B6D3A689A420BD0FB
:102180007B683A689A657B68743339681846FFF74C
:1021900097FA7868FFF762FF00BF0837BD4680BD39
:1021A00080B487B000AFF860B96011461A460B469C
:1021B000FB801346BB80FB681B88FB82FB8ABB82CB
:1021C000BB681A88BB8A1344BB82FA8ABB8A9A42CC
:1021D0000BD9FA8ABB889A4205D2BB88BB82BB8ADC
:1021E000013BBB8201E0FB88FB82FA8ABB889A42F2
:1021F00001D300231CE0BA8AFB889A4201D800234D
:1022000016E0FA8AFB889A4201D2FB88FB82BA8ADE
:10221000BB889A4201D9BB88BB82FB68FA8A1A80C4
:10222000BA8AFB8AD31ABB82BB68BA8A1A80012396
:1022300018461C37BD465DF8047B704790B587B0E3
:1022400002AFF860084611461A4603467B810B46EA
:102250003B811346FB80FB68DB8F3A89D31A3B81B5
:10226000FB68DC6AF8883A89798997F8203000930E
:102270000346F868A04700BF1437BD4690BD90B52F
:1022800087B002AFF860084611461A4603467B81C4
:102290000B463B811346FB80FB6893F88C30002B88
:1022A00075D0FB88002B72D0FB88012B1AD997F8C8
:1022B0002030022B09D17A89FB88D31A9BB27B810B
:1022C0007B8901339BB27B810CE097F82030032B94
:1022D00008D13A89FB88D31A9BB23B813B890133F1
:1022E0009BB23B8197F8203003F0010387F8203040
:1022F00097F82030002B1AD1FB68B3F84C203B89AB
:102300009A423BD8FB68B3F84E203B899A4237D9B2
:10231000FB68B3F84820FB68B3F84A30B91D07F1F1
:102320000A00FFF73DFF0346002B1AD12FE0FB68A0
:10233000B3F848207B899A4224D8FB68B3F84A2036
:102340007B899A4220D9FB68B3F84C20FB68B3F82C
:102350004E30B91D07F10800FFF722FF0346002B9E
:1023600014D0FB681B6B9C6879893A89F88897F8C8
:10237000203000930346F868A04708E000BF06E05D
:1023800000BF04E000BF02E000BF00E000BF143760
:10239000BD4690BD90B482B000AF044608461146D9
:1023A0001A462346FB800346BB800B467B801346C0
:1023B0003B807A88BB889A420DD23A88FB889A4241
:1023C00001D9012314E07A883B889A4201D901237C
:1023D0000EE000230CE03A88FB889A4207D97A88FD
:1023E0003B889A4201D9012302E0002300E0002348
:1023F00018460837BD4690BC704780B584B000AF22
:10240000F860084611461A4603467B810B463B811D
:102410001346FB80FB68B3F84C00FB68B3F84E1022
:102420003B8B3A89FFF7B6FF0346002B01D100230F
:102430000AE0FB68B3F84800FB68B3F84A10FB8871
:102440007A89FFF7A7FF034618461037BD4680BDBF
:1024500080B489B000AFF860084611461A460346BA
:102460007B810B463B811346FB803B89FB76FB7EE1
:1024700003F00703FB7601233B763A7EFB7E02FAEC
:1024800003F33B760023BB7600237B76FB6893F84F
:102490009230012B01D83B7EBB76FB6893F89230DB
:1024A000012B01D03B7E7B763B89FB82FB8A23F0AC
:1024B0000703FB82FB681B681B7C1A46FB8A13FB25
:1024C00002F3FB82FB685B6BFB61FB8AFA691344D6
:1024D000FB617B89FA691344FB6197F82830002B74
:1024E00017D1FB691A78BB7E1343DAB2FB691A7005
:1024F000FB691A787B7E5340DAB2FB691A70FB697C
:102500000133FB61FB88013BFB80FB88002BE8D19A
:1025100038E0FB691A78BB7E1343DAB2FB691A70A4
:10252000FB691A787B7E5340DAB2FB691A70FB7E36
:102530000133FB76FB7E03F00703FB76FB88013B50
:10254000FB80FB7E002B14D1FB685B8F1A46FB6976
:102550001344FB61FB6893F89230012B01D80123EF
:10256000BB76FB6893F89230012B08D001237B7671
:1025700005E0BB7E5B00BB767B7E5B007B76FB88E9
:10258000002BC6D100BF2437BD465DF8047B7047E1
:1025900080B582B000AF78607B680022A3F850203D
:1025A0007B680022A3F854207B684FF6FF72A3F8E3
:1025B00052207B684FF6FF72A3F856207B681B6B96
:1025C0005B687868984700BF0837BD4680BD80B516
:1025D00084B000AFF860B9603B601346FB71FB68E4
:1025E00000229A65FB683A68DA62FB68BA685A6347
:1025F000FB68FA7983F83820FB68002283F83920D9
:10260000FB68002283F86D20FB68002283F891208C
:10261000FB68002283F88D20FB68012283F892205A
:10262000FB68012283F89320FB68BA691A63FB6890
:102630001B6B1B68F8689847F868FFF7A9FFF868F4
:10264000FFF784FDFB68002283F8702000BF10377D
:10265000BD4680BD80B485B000AF78607B681B68E4
:10266000BB607B6893F83830FB81FB89DB00FB8122
:102670007B68FA899A87BB681B7CFB81FB89DB003E
:10268000FB817B68FA895A877B6893F83930FB8134
:10269000FB89DB00FB817B68FA89DA877B6893F82A
:1026A0003830FB81FB897A6892F839201344BA6884
:1026B000527C934207DDBB685B7C1A467B6893F8CB
:1026C0003930D31AFB81FB89DB00FB817B68DA8F11
:1026D0007B68A3F840207B68B3F840207B68A3F8B0
:1026E00042207B68B3F84220FB8913449AB27B688E
:1026F000A3F84220BB689A8A7B68A3F84420BB6891
:10270000DA8A7B68A3F8462000BF1437BD465DF81F
:10271000047B704780B584B002AF78607B68B3F803
:1027200050107B68B3F854207B68B3F852007B6884
:10273000B3F85630009303467868FFF75EFE034611
:10274000002B04D17B68002283F88C203BE07B685F
:10275000012283F88C207B68B3F848207B68B3F8AB
:1027600050309A4205D27B68B3F850207B68A3F8BA
:1027700048207B68B3F84A207B68B3F852309A420D
:1027800005D97B68B3F852207B68A3F84A207B68A0
:10279000B3F84C207B68B3F854309A4205D27B687A
:1027A000B3F854207B68A3F84C207B68B3F84E2024
:1027B0007B68B3F856309A4205D97B68B3F8562047
:1027C0007B68A3F84E2000BF0837BD4680BD80B5AA
:1027D00082B000AF78607868FFF73CFF00BF083731
:1027E000BD4680BD80B582B000AF78607B680022B6
:1027F000A3F848207B68B3F844207B68A3F84A20FC
:102800007B68B3F840207B68A3F84C207B68B3F862
:1028100042207B68A3F84E207868FFF77BFF00BF5B
:102820000837BD4680BD80B586B002AFF860084667
:1028300011461A4603467B810B463B811346FB80BB
:10284000F8883A8979893B7E00930346F868FFF758
:10285000F5FC00BF1037BD4680BD000080B588B0D4
:1028600002AFF8607B600B46FB721346BB72FB7ACB
:10287000143B0C2B4DD801A252F823F0B1280008CC
:102880001329000813290008B9280008E9280008BE
:10289000F12800081329000813290008132900084B
:1028A0001329000813290008132900081729000814
:1028B0001D4B00221A7031E07B687B6110E01A4BDF
:1028C0001B785A1CD1B2184A11701A467B691978C4
:1028D000164B99547B6901337B61BB7A013BBB7218
:1028E000BB7A002BEBD119E00F4B00221A7015E0D8
:1028F0000D4B1B781A464FF0FF33009313460B4ADB
:1029000078210B4801F026F90346002B05D000235F
:1029100005E0002303E000BF00E000BF01231846EC
:102920001837BD4680BD00BF600600206406002049
:102930008400002080B584B000AFF8607B600B4657
:10294000FB721346BB72FB7A282B0BD0292B04D1C8
:10295000BB7A184600F056FC05E0FB68012283F8BC
:10296000272000E000BF012318461037BD4680BD78
:1029700080B483B000AF78607B68002283F82620A3
:1029800000BF0C37BD465DF8047B704780B483B050
:1029900000AF78600B46FB70FB78002B02D0FB7811
:1029A0000A2B02D14FF6FF7301E0FB789BB2184669
:1029B0000C37BD465DF8047B704790B585B000AF1D
:1029C000F8600B467A60FB72FB681C69FA7A7B68D8
:1029D0001721F868A047034618461437BD4690BD36
:1029E00080B582B000AF78600B46FB70FB1C1A46C6
:1029F00001217868FFF7E1FF034618460837BD4616
:102A000080BD90B583B000AF78607B681C690023FF
:102A1000002218217868A047034618460C37BD46A7
:102A200090BD90B583B000AF78607B681C690023CF
:102A3000002219217868A047034618460C37BD4686
:102A400090BD90B583B000AF78600B46FB707B689B
:102A5000DC68FA78002315217868A04703461846F9
:102A60000C37BD4690BD90B583B000AF78600B4683
:102A7000FB707B68DC68FA78002316217868A04731
:102A8000034618460C37BD4690BD90B585B000AFE3
:102A9000F8600B467A60FB72FB68DC68FA7A7B6848
:102AA0001721F868A047034618461437BD4690BD65
:102AB00090B583B000AF78607B68DC6800230022AB
:102AC00018217868A047034618460C37BD4690BDCC
:102AD00090B583B000AF78607B68DC68002300228B
:102AE00019217868A047034618460C37BD4690BDAB
:102AF00090B585B000AF786039603B681B78FB7398
:102B00003B6801333B60FB7BFE2B31D0FE2B3DDC71
:102B1000192B3BDC182B23DA162B02DC152B03DADE
:102B200034E0172B0ED031E03B681B78BB737B6819
:102B3000DC68BA7BF97B00237868A0473B680133E7
:102B40003B6022E03B681B78BB7307F10E031A461B
:102B500001217868FFF799FF3B6801333B6014E07F
:102B60007B68DC68F97B002300227868A0470CE0D2
:102B70003B681B78BB73BB7B1A462921786800F041
:102B800036FA3B6801333B6000BFB6E700BF14373D
:102B9000BD4690BD90B585B000AFF8600B467A6039
:102BA000FB72F868FFF72DFF4021F868FFF718FF68
:102BB000FB681C69FA7A7B681721F868A047F868F7
:102BC000FFF72FFF00BF1437BD4690BD90B587B00B
:102BD00000AFF8607B600B46FB721346BB72FB7A5A
:102BE000143B052B6ED801A252F823F0832C000869
:102BF000052C0008332C00083F2C0008A72C0008E7
:102C0000AF2C0008334B1B78002B02D0F868FFF77D
:102C100008FFF868FFF7F5FE0021F868FFF7E0FE0F
:102C2000BB7A1946F868FFF7DBFE2A4B01221A70BF
:102C30004AE0BB7A1946F868FFF7D2FE44E0254B1C
:102C40001B78002B02D0F868FFF7EBFE7B687B61F6
:102C50000AE07A691821F868FFF79CFFBB7A183BF5
:102C6000BB727B6918337B61BB7A182BF1D8BB7AB6
:102C70007A691946F868FFF78DFF164B00221A7023
:102C800022E0FB6893F82430FF2B03D1FB68782205
:102C900083F82420FB681C69BA7AF97A7B68F868A3
:102CA000A047034611E00B4B00221A700CE0094BC1
:102CB0001B78002B02D0F868FFF7B3FE054B00220B
:102CC0001A7001E0002300E0012318461C37BD46BE
:102CD00090BD00BF8406002080B586B000AFF860CC
:102CE0007B600B46FB721346BB72FB7A0B3B042BDB
:102CF00000F28A8001A252F823F000BF112D0008D3
:102D0000092E00082B2D00085D2D00087D2D0008E0
:102D1000BB7A002B04D14049F868FFF7E9FE75E063
:102D20003E49F868FFF7E4FE70E0BB7A002B0AD159
:102D30003B49F868FFF7DCFEFB681B689A7CFB6880
:102D400083F8222062E03749F868FFF7D1FEFB687C
:102D50001B68DA7CFB6883F8222057E0F868FFF7ED
:102D6000A7FE8121F868FFF76CFEBB7A1946F86868
:102D7000FFF779FEF868FFF7ABFE47E0F868FFF76A
:102D800097FE7B685B79FB75FB7DDB00FB75FB6861
:102D900093F82220FB7D1344FB754021F868FFF770
:102DA00050FEFB7D1B09DBB243F01003DBB219467A
:102DB000F868FFF746FEFB7D03F00F03DBB2194610
:102DC000F868FFF750FE7B689B7963F04F03DBB236
:102DD0001946F868FFF747FE7B681B79BB757B686F
:102DE0001B683B61BB7DDB00DBB23A691946F868C2
:102DF000FFF74BFEBB7A013BBB72BB7A002BEBD1DA
:102E0000F868FFF765FE01E0002300E001231846A3
:102E10001837BD4680BD00BFB87C0008C07C0008E4
:102E2000C87C0008D07C000880B584B000AFF86092
:102E30007B600B46FB721346BB72BA7AF97A7B68E9
:102E4000F868FFF749FF0346002B01D0012314E087
:102E5000FB7A092B09D00A2B0CD1F86800F02AF86C
:102E60000849F868FFF744FE06E00749F86800F0F3
:102E70000DF801E0002300E0012318461037BD469D
:102E800080BD00BF807C0008D87C000880B483B07F
:102E900000AF786039607B683A681A607B681B68AD
:102EA0009A7C7B6883F8222000BF0C37BD465DF812
:102EB000047B704790B583B000AF78607B685C6935
:102EC0000023002228217868A0477B68DC68002363
:102ED000002214217868A04701224B21786800F075
:102EE00086F87B681B681B791A462921786800F0F0
:102EF0007EF800224B21786800F079F87B681B6827
:102F00001B791A462921786800F071F801224B21BB
:102F1000786800F06CF87B681B685B791A46292199
:102F2000786800F064F800BF0C37BD4690BD90B5DE
:102F300085B000AF7860084611461A460346FB701C
:102F40000B46BB7013467B70FB787B73BB78BB73FF
:102F50007B783B733B6ABB607B689C6807F1080326
:102F600001220F217868A047034618461437BD4652
:102F700090BD90B583B000AF78607B689C680023FB
:102F8000002209217868A04700BF0C37BD4690BDDC
:102F900090B583B000AF78607B689C680023002206
:102FA0000A217868A04700BF0C37BD4690BD90B598
:102FB00083B000AF78600B46FB707B689C68FA7842
:102FC00000230B217868A04700BF0C37BD4690BD99
:102FD00090B583B000AF78607B689C6800230022C6
:102FE00010217868A04700BF0C37BD4690BD90B552
:102FF00083B000AF78600B46FB701346BB707B68F4
:103000005C69BA78F97800237868A04700BF0C376C
:10301000BD4690BD80B485B000AFF8607B600B46C4
:10302000FB721346BB72002318461437BD465DF889
:10303000047B704780B483B000AF78607B68002267
:103040001A607B68114A9A607B68104ADA607B6874
:103050000E4A1A617B680D4A5A617B68002283F828
:1030600023207B68002283F826207B6800229A6157
:103070007B68FF2283F824207B68FF2283F82820C6
:1030800000BF0C37BD465DF8047B70471530000863
:1030900080B584B000AFF860B9607A603B60F868D2
:1030A000FFF7C8FFFB68BA689A60FB687A68DA6065
:1030B000FB683A681A61FB68BA695A61F868FFF7F9
:1030C00058FF00BF1037BD4680BD0000DFF834D088
:1030D000FEF7F8F90C480D490D4A002302E0D458D8
:1030E000C4500433C4188C42F9D30A4A0A4C002352
:1030F00001E013600432A242FBD303F0E5F8FDF7D0
:103100006BFC7047000002200000002068000020D7
:10311000347D000868000020D8070020FEE700008A
:1031200080B500AF0E4B1B680D4A43F4007313606B
:103130000B4B1B680A4A43F480631360084B1B68FF
:10314000074A43F480731360032000F04FF9002016
:1031500000F008F8FEF718F80023184680BD00BFFD
:10316000003C024080B582B000AF7860124B1A6814
:10317000124B1B7819464FF47A73B3FBF1F3B2FB91
:10318000F3F3184600F067F90346002B01D0012342
:103190000EE07B680F2B0AD8002279684FF0FF30D1
:1031A00000F02FF9064A7B681360002300E001233A
:1031B00018460837BD4680BD0000002008000020EA
:1031C0000400002080B400AF064B1B781A46064B63
:1031D0001B681344044A136000BFBD465DF8047BBE
:1031E000704700BF080000208806002080B400AFB0
:1031F000034B1B681846BD465DF8047B704700BF53
:103200008806002080B584B000AF7860FFF7EEFF3D
:10321000B8607B68FB60FB68B3F1FF3F05D00A4BE9
:103220001B781A46FB681344FB6000BFFFF7DEFF04
:103230000246BB68D31AFA689A42F7D800BF00BFAB
:103240001037BD4680BD00BF0800002080B485B0A7
:1032500000AF78607B6803F00703FB600C4BDB6812
:10326000BB60BA684FF6FF031340BB60FB681A02ED
:10327000BB68134343F0BF6343F40033BB60044AAD
:10328000BB68D36000BF1437BD465DF8047B704750
:1032900000ED00E080B400AF044BDB681B0A03F0D4
:1032A00007031846BD465DF8047B704700ED00E05B
:1032B00080B483B000AF0346FB7197F90730002B51
:1032C0000BDBFB7903F01F02074997F907305B0915
:1032D000012000FA02F241F8232000BF0C37BD465E
:1032E0005DF8047B704700BF00E100E080B483B06C
:1032F00000AF03463960FB7197F90730002B0ADBFA
:103300003B68DAB20C4997F907301201D2B20B448C
:1033100083F800230AE03B68DAB20849FB7903F03E
:103320000F03043B1201D2B20B441A7600BF0C37D4
:10333000BD465DF8047B704700E100E000ED00E071
:1033400080B489B000AFF860B9607A60FB6803F0C0
:103350000703FB61FB69C3F10703042B28BF0423A8
:10336000BB61FB690433062B02D9FB69033B00E018
:1033700000237B614FF0FF32BB6902FA03F3DA43AB
:10338000BB681A407B699A404FF0FF317B6901FAB4
:1033900003F3D9437B680B40134318462437BD46DB
:1033A0005DF8047B7047000080B582B000AF7860A4
:1033B0007B68013BB3F1807F01D301230FE00A4A10
:1033C0007B68013B53600F214FF0FF30FFF78EFF0A
:1033D000054B00229A60044B07221A60002318460E
:1033E0000837BD4680BD00BF10E000E080B582B068
:1033F00000AF78607868FFF729FF00BF0837BD4647
:1034000080BD80B586B000AF0346B9607A60FB73BB
:1034100000237B61FFF73EFF78617A68B9687869BD
:10342000FFF78EFF024697F90F3011461846FFF757
:103430005DFF00BF1837BD4680BD80B582B000AFCC
:103440000346FB7197F907301846FFF731FF00BFBD
:103450000837BD4680BD80B582B000AF786078681F
:10346000FFF7A2FF034618460837BD4680BD80B56A
:1034700084B000AF78607B689B6DFB60FFF7B6FEA1
:10348000B8607B6893F83530DBB2022B08D07B68DC
:1034900080225A657B68002283F83420012352E0A1
:1034A0007B681B681A687B681B6822F016021A602A
:1034B0007B681B685A697B681B6822F080025A612E
:1034C0007B681B6C002B03D17B689B6C002B07D0A7
:1034D0007B681B681A687B681B6822F008021A6008
:1034E0007B681B681A687B681B6822F001021A60FF
:1034F00013E0FFF77BFE0246BB68D31A052B0CD9FD
:103500007B6820225A657B68032283F835207B681C
:10351000002283F83420032315E07B681B681B68B6
:1035200003F00103002BE4D17B68DB6D3F229A405E
:10353000FB689A607B68012283F835207B68002253
:1035400083F83420002318461037BD4680BD80B470
:1035500083B000AF78607B6893F83530DBB2022B24
:1035600004D07B6880225A6501230CE07B68052229
:1035700083F835207B681B681A687B681B6822F01B
:1035800001021A60002318460C37BD465DF8047B23
:103590007047000080B489B000AF786039600023C4
:1035A0007B6100233B610023BB610023FB616BE176
:1035B0000122FB6902FA03F37B613B681B687A69AD
:1035C00013403B613A697B699A4240F05A813B68FB
:1035D0005B6803F00303012B05D03B685B6803F0D5
:1035E0000303022B30D17B689B68BB61FB695B00E6
:1035F000032202FA03F3DB43BA691340BB613B6861
:10360000DA68FB695B0002FA03F3BA691343BB6132
:103610007B68BA699A607B685B68BB610122FB6961
:1036200002FA03F3DB43BA691340BB613B685B6892
:103630001B0903F00102FB6902FA03F3BA691343A1
:10364000BB617B68BA695A603B685B6803F003033F
:10365000032B17D07B68DB68BB61FB695B0003222F
:1036600002FA03F3DB43BA691340BB613B689A6813
:10367000FB695B0002FA03F3BA691343BB617B6821
:10368000BA69DA603B685B6803F00303022B23D15D
:10369000FB69DA087B68083253F82230BB61FB69AA
:1036A00003F007039B000F2202FA03F3DB43BA691E
:1036B0001340BB613B681A69FB6903F007039B0079
:1036C00002FA03F3BA691343BB61FB69DA087B684A
:1036D0000832B96943F822107B681B68BB61FB693B
:1036E0005B00032202FA03F3DB43BA691340BB61B8
:1036F0003B685B6803F00302FB695B0002FA03F3BB
:10370000BA691343BB617B68BA691A603B685B683E
:1037100003F44033002B00F0B4800023FB60604BC7
:103720005B6C5F4A43F4804353645D4B5B6C03F412
:103730008043FB60FB685B4AFB699B08023352F8DD
:103740002330BB61FB6903F003039B000F2202FAE5
:1037500003F3DB43BA691340BB617B68524A93426F
:103760002BD07B68514A934225D07B68504A9342C4
:103770001FD07B684F4A934219D07B684E4A9342D0
:1037800013D07B684D4A93420DD07B684C4A9342DC
:1037900007D07B684B4A934201D107230EE00823F0
:1037A0000CE006230AE0052308E0042306E00323D7
:1037B00004E0022302E0012300E00023FA6902F0A2
:1037C000030292009340BA691343BB613549FB6918
:1037D0009B080233BA6941F823203B4B9B68BB61CD
:1037E0003B69DB43BA691340BB613B685B6803F428
:1037F0008013002B03D0BA693B691343BB61324A83
:10380000BB699360304BDB68BB613B69DB43BA69E2
:103810001340BB613B685B6803F40013002B03D0CB
:10382000BA693B691343BB61274ABB69D360264B26
:103830005B68BB613B69DB43BA691340BB613B68B2
:103840005B6803F40033002B03D0BA693B69134370
:10385000BB611D4ABB6953601B4B1B68BB613B6965
:10386000DB43BA691340BB613B685B6803F4803398
:10387000002B03D0BA693B691343BB61124ABB6991
:103880001360FB690133FB61FB690F2B7FF690AE80
:1038900000BF00BF2437BD465DF8047B704700BF02
:1038A000003802400038014000000240000402409D
:1038B00000080240000C02400010024000140240C8
:1038C00000180240001C0240003C014080B584B05A
:1038D00000AF78607B68002B01D101232BE17B686E
:1038E00093F83D30DBB2002B06D17B68002283F8D1
:1038F0003C207868FDF770FC7B68242283F83D202B
:103900007B681B681A687B681B6822F001021A60DA
:103910007B681B681A687B681B6842F400421A6067
:103920007B681B681A687B681B6822F400421A6077
:1039300001F0DAF8F8607B685B68814A934207D847
:10394000FB68804A934294BF01230023DBB206E068
:10395000FB687D4A934294BF01230023DBB2002B16
:1039600001D00123E7E0FB68784AA2FB03239B0C0C
:10397000BB607B681B685B6823F03F017B681B684A
:10398000BA680A435A607B681B681B6A23F03F01D0
:103990007B685B686A4A934202D8BB68013309E0DE
:1039A000BB684FF4967202FB03F3694AA2FB032340
:1039B0009B0901337A6812680B4313627B681B68AA
:1039C000DB6923F44F4222F0FF027B685B685C49AD
:1039D0008B4219D8FB68591E7B685B685B00B1FBA2
:1039E000F3F3591C40F6FC730B40002B0AD0FB6824
:1039F000591E7B685B685B00B1FBF3F30133C3F3D3
:103A00000B0351E004234FE07B689B68002B11D12E
:103A1000FB68581E7B6859680B465B000B44B0FB83
:103A2000F3F30133C3F30B03002B0CBF012300237B
:103A3000DBB212E0FB68581E7B6859680B469B009E
:103A40000B4499000B44B0FBF3F30133C3F30B03B6
:103A5000002B0CBF01230023DBB2002B01D001237C
:103A600022E07B689B68002B0ED1FB68581E7B68A8
:103A700059680B465B000B44B0FBF3F30133C3F30F
:103A80000B0343F400430FE0FB68581E7B68596842
:103A90000B469B000B4499000B44B0FBF3F301333E
:103AA000C3F30B0343F44043796809681343CB61C4
:103AB0007B681B681B6823F0C0017B68DA697B6840
:103AC0001B6A1A437B681B680A431A607B681B6881
:103AD0009B6823F4034323F0FF037A6811697A6833
:103AE000D26811437A6812680B4393607B681B6845
:103AF000DB6823F0FF017B685A697B689B691A4386
:103B00007B681B680A43DA607B681B681A687B68FD
:103B10001B6842F001021A607B6800221A647B680D
:103B2000202283F83D207B6800221A637B680022F4
:103B300083F83E20002318461037BD4680BD00BFE5
:103B4000A08601007F841E00FF083D0083DE1B432A
:103B5000D34D621080B588B002AFF8607A601A4623
:103B60000B467B8113463B81FFF740FB7861FB6886
:103B700093F83D30DBB2202B40F0E0807B6900936E
:103B8000192301227049F86800F064F90346002BFC
:103B900001D00223D3E0FB6893F83C30012B01D124
:103BA0000223CCE0FB68012283F83C20FB681B6801
:103BB0001B6803F00103012B07D0FB681B681A6820
:103BC000FB681B6842F001021A60FB681B681A68F8
:103BD000FB681B6822F400621A60FB68212283F8EC
:103BE0003D20FB68102283F83E20FB6800221A6407
:103BF000FB687A685A62FB683A895A85FB685B8D74
:103C00009AB2FB681A85FB68504ADA6279897B6947
:103C10003A6AF86800F09CF80346002B01D00123B3
:103C20008DE000233B61FB681B685B693B61FB68BF
:103C30001B689B693B613B6966E07A69396AF86891
:103C400000F022FA0346002B0DD0FB681B6C042BFE
:103C500007D1FB681B681A68FB681B6842F4007296
:103C60001A6001236BE0FB685B6A1A78FB681B68CB
:103C70001A61FB685B6A5A1CFB685A62FB685B8DC1
:103C80009BB2013B9AB2FB685A85FB681B8D013BD6
:103C90009AB2FB681A85FB681B685B6903F0040332
:103CA000042B1BD1FB681B8D002B17D0FB685B6AB4
:103CB0001A78FB681B681A61FB685B6A5A1CFB6810
:103CC0005A62FB685B8D9BB2013B9AB2FB685A85D6
:103CD000FB681B8D013B9AB2FB681A857A69396AC9
:103CE000F86800F019FA0346002B0DD0FB681B6C36
:103CF000042B07D1FB681B681A68FB681B6842F439
:103D000000721A6001231AE0FB681B8D002B94D10E
:103D1000FB681B681A68FB681B6842F400721A6033
:103D2000FB68202283F83D20FB68002283F83E20B8
:103D3000FB68002283F83C20002300E002231846A1
:103D40001837BD4680BD00BF020010000000FFFF15
:103D500080B588B002AFF8607A603B600B467B812B
:103D6000FB68DB6A7B617B69082B06D07B69012BD2
:103D700003D07B6913F5803F08D1FB681B681A6884
:103D8000FB681B6842F480721A600BE0FB681B6BD7
:103D9000122B07D1FB681B681A68FB681B6842F48A
:103DA00080721A603B6800937B6800224FF001111B
:103DB000F86800F04FF80346002B0DD0FB681B6835
:103DC0001B6803F48073B3F5807F03D1FB684FF465
:103DD00000721A64032335E0FB681B69B3F5804F5A
:103DE00008D17B89DBB21A46FB681B6802F0FE0231
:103DF0001A611BE07B89DB11DBB203F00603DBB247
:103E000063F00F03DAB2FB681B681A613B687A68DB
:103E10000E49F86800F098F80346002B01D0012302
:103E200010E07B89DAB2FB681B681A613B687A682C
:103E30000749F86800F088F80346002B01D00123F9
:103E400000E0002318461837BD4680BD0800010079
:103E50000200010080B584B000AFF860B9603B603B
:103E60001346FB7148E03B68B3F1FF3F44D0FFF7D6
:103E7000BDF90246BB69D31A3A689A4202D33B683D
:103E8000002B39D1BB681B0CDBB2012B0DD1FB68B9
:103E90001B685B69DA43BB6813409BB2002B0CBF05
:103EA00001230023DBB21A460CE0FB681B689B6908
:103EB000DA43BB6813409BB2002B0CBF01230023E5
:103EC000DBB21A46FB799A4216D1FB6800221A63CC
:103ED000FB68202283F83D20FB68002283F83E2007
:103EE000FB681B6C43F02002FB681A64FB6800222D
:103EF00083F83C20012323E0BB681B0CDBB2012BC1
:103F00000DD1FB681B685B69DA43BB6813409BB249
:103F1000002B0CBF01230023DBB21A460CE0FB6828
:103F20001B689B69DA43BB6813409BB2002B0CBF34
:103F300001230023DBB21A46FB799A4293D0002377
:103F400018461037BD4680BD80B584B000AFF8601C
:103F5000B9607A603B6071E0FB681B685B6903F4E1
:103F60008063B3F5806F23D1FB681B681A68FB6818
:103F70001B6842F400721A60FB681B686FF4806271
:103F80005A61FB6800221A63FB68202283F83D20F7
:103F9000FB68002283F83E20FB681B6C43F00402A0
:103FA000FB681A64FB68002283F83C20012367E069
:103FB0007B68B3F1FF3F41D0FFF718F902463B6839
:103FC000D31A7A689A4202D37B68002B36D1BB6839
:103FD0001B0CDBB2012B0CD1FB681B685B69DA435D
:103FE000BB6813409BB2002B14BF01230023DBB23C
:103FF0000BE0FB681B689B69DA43BB6813409BB20C
:10400000002B14BF01230023DBB2002B16D0FB686A
:1040100000221A63FB68202283F83D20FB680022FF
:1040200083F83E20FB681B6C43F02002FB681A6497
:10403000FB68002283F83C20012321E0BB681B0CB5
:10404000DBB2012B0CD1FB681B685B69DA43BB68F0
:1040500013409BB2002B14BF01230023DBB20BE003
:10406000FB681B689B69DA43BB6813409BB2002B5B
:1040700014BF01230023DBB2002B7FF46DAF0023BC
:1040800018461037BD4680BD80B584B000AFF860DB
:10409000B9607A6034E0F86800F086F80346002BD7
:1040A00001D0012334E0BB68B3F1FF3F28D0FFF714
:1040B0009DF802467B68D31ABA689A4202D3BB685D
:1040C000002B1DD1FB681B685B6903F08003802B0C
:1040D00016D0FB6800221A63FB68202283F83D207B
:1040E000FB68002283F83E20FB681B6C43F0200233
:1040F000FB681A64FB68002283F83C20012307E078
:10410000FB681B685B6903F08003802BC3D100232D
:1041100018461037BD4680BD80B584B000AFF8604A
:10412000B9607A6034E0F86800F03EF80346002B8E
:1041300001D0012334E0BB68B3F1FF3F28D0FFF783
:1041400055F802467B68D31ABA689A4202D3BB6814
:10415000002B1DD1FB681B685B6903F00403042B73
:1041600016D0FB6800221A63FB68202283F83D20EA
:10417000FB68002283F83E20FB681B6C43F02002A2
:10418000FB681A64FB68002283F83C20012307E0E7
:10419000FB681B685B6903F00403042BC3D1002395
:1041A00018461037BD4680BD80B483B000AF78603C
:1041B0007B681B685B6903F48063B3F5806F1BD178
:1041C0007B681B686FF480625A617B6800221A6307
:1041D0007B68202283F83D207B68002283F83E2004
:1041E0007B681B6C43F004027B681A647B680022C6
:1041F00083F83C20012300E0002318460C37BD461D
:104200005DF8047B7047000080B586B000AF786031
:104210007B68002B01D1012367E27B681B6803F0F8
:104220000103002B75D0884B9B6803F00C03042B13
:104230000CD0854B9B6803F00C03082B12D1824BEA
:104240005B6803F48003B3F5800F0BD17E4B1B68D2
:1042500003F40033002B5BD07B685B68002B57D1E5
:10426000012342E27B685B68B3F5803F06D1764B61
:104270001B68754A43F4803313601DE07B685B68FC
:10428000B3F5A02F0CD1704B1B686F4A43F4802309
:1042900013606D4B1B686C4A43F4803313600BE072
:1042A000694B1B68684A23F480331360664B1B68B4
:1042B000654A23F4802313607B685B68002B13D06E
:1042C000FEF794FF386108E0FEF790FF02463B6975
:1042D000D31A642B01D9032307E25B4B1B6803F459
:1042E0000033002BF0D014E0FEF780FF386108E0C7
:1042F000FEF77CFF02463B69D31A642B01D90323E6
:10430000F3E1514B1B6803F40033002BF0D100E0C4
:1043100000BF7B681B6803F00203002B63D04A4B8D
:104320009B6803F00C03002B0BD0474B9B6803F0FA
:104330000C03082B1CD1444B5B6803F48003002B57
:1043400016D1414B1B6803F00203002B05D07B689C
:10435000DB68012B01D00123C7E13B4B1B6823F035
:10436000F8027B681B69DB00374913430B603AE0B6
:104370007B68DB68002B20D0344B01221A60FEF7EB
:1043800035FF386108E0FEF731FF02463B69D31A7A
:10439000022B01D90323A8E12B4B1B6803F0020376
:1043A000002BF0D0284B1B6823F0F8027B681B69B8
:1043B000DB00254913430B6015E0244B00221A60F3
:1043C000FEF714FF386108E0FEF710FF02463B6974
:1043D000D31A022B01D9032387E11B4B1B6803F07F
:1043E0000203002BF0D17B681B6803F00803002B4D
:1043F00036D07B685B69002B16D0154B01221A6002
:10440000FEF7F4FE386108E0FEF7F0FE02463B6975
:10441000D31A022B01D9032367E10B4B5B6F03F027
:104420000203002BF0D01BE0094B00221A60FEF7BC
:10443000DDFE38610EE0FEF7D9FE02463B69D31A75
:10444000022B07D9032350E1003802400000474205
:10445000800E4742884B5B6F03F00203002BEAD1CA
:104460007B681B6803F00403002B00F09780002397
:10447000FB75814B1B6C03F08053002B0FD1002385
:10448000BB607D4B1B6C7C4A43F0805313647A4BBA
:104490001B6C03F08053BB60BB680123FB75774B3B
:1044A0001B6803F48073002B18D1744B1B68734A8C
:1044B00043F480731360FEF799FE386108E0FEF75D
:1044C00095FE02463B69D31A022B01D903230CE166
:1044D0006A4B1B6803F48073002BF0D07B689B68E9
:1044E000012B06D1644B1B6F634A43F00103136732
:1044F0001CE07B689B68052B0CD15F4B1B6F5E4AF1
:1045000043F0040313675C4B1B6F5B4A43F00103EA
:1045100013670BE0584B1B6F574A23F001031367D7
:10452000554B1B6F544A23F0040313677B689B6849
:10453000002B15D0FEF75AFE38610AE0FEF756FE52
:1045400002463B69D31A41F28832934201D90323D0
:10455000CBE0494B1B6F03F00203002BEED014E0BD
:10456000FEF744FE38610AE0FEF740FE02463B6972
:10457000D31A41F28832934201D90323B5E03E4B6E
:104580001B6F03F00203002BEED1FB7D012B05D145
:10459000394B1B6C384A23F0805313647B689B694A
:1045A000002B00F0A180344B9B6803F00C03082B18
:1045B0005CD07B689B69022B41D1314B00221A6091
:1045C000FEF714FE386108E0FEF710FE02463B6974
:1045D000D31A022B01D9032387E0274B1B6803F072
:1045E0000073002BF0D17B68DA697B681B6A1A4381
:1045F0007B685B6A9B011A437B689B6A5B08013B93
:104600001B041A437B68DB6A1B061B4913434B6080
:104610001B4B01221A60FEF7E9FD386108E0FEF746
:10462000E5FD02463B69D31A022B01D903235CE066
:10463000114B1B6803F00073002BF0D054E0104BBB
:1046400000221A60FEF7D2FD386108E0FEF7CEFDC9
:1046500002463B69D31A022B01D9032345E0064BDE
:104660001B6803F00073002BF0D13DE07B689B6971
:10467000012B07D1012338E00038024000700040D0
:10468000600047421B4B5B68FB607B689B69012BAA
:1046900028D0FB6803F480027B68DB699A4221D151
:1046A000FB6803F03F027B681B6A9A421AD1FA68E2
:1046B00047F6C07313407A68526A9201934211D14F
:1046C000FB6803F440327B689B6A5B08013B1B0478
:1046D0009A4207D1FB6803F070627B68DB6A1B06B5
:1046E0009A4201D0012300E0002318461837BD4646
:1046F00080BD00BF0038024080B584B000AF786054
:1047000039607B68002B01D10123CCE0684B1B682A
:1047100003F007033A689A420CD9654B3A68D2B263
:104720001A70634B1B6803F007033A689A4201D082
:104730000123B8E07B681B6803F00203002B20D044
:104740007B681B6803F00403002B05D0594B9B6862
:10475000584A43F4E05393607B681B6803F00803F6
:10476000002B05D0534B9B68524A43F4604393603F
:10477000504B9B6823F0F0027B689B684D491343C4
:104780008B607B681B6803F00103002B44D07B68BF
:104790005B68012B07D1474B1B6803F40033002BE8
:1047A00019D101237FE07B685B68022B03D07B6813
:1047B0005B68032B07D13F4B1B6803F00073002B92
:1047C00009D101236FE03B4B1B6803F00203002B70
:1047D00001D1012367E0374B9B6823F003027B681C
:1047E0005B68344913438B60FEF700FDF8600AE014
:1047F000FEF7FCFC0246FB68D31A41F28832934272
:1048000001D903234FE02B4B9B6803F00C027B681C
:104810005B689B009A42EBD1254B1B6803F00703B2
:104820003A689A420CD2224B3A68D2B21A70204BA4
:104830001B6803F007033A689A4201D0012332E073
:104840007B681B6803F00403002B08D0194B9B689E
:1048500023F4E0527B68DB68164913438B607B6866
:104860001B6803F00803002B09D0124B9B6823F44C
:1048700060427B681B69DB000E4913438B6000F0CC
:1048800021F802460B4B9B681B0903F00F030A49F2
:10489000CB5C22FA03F3094A1360094B1B681846E4
:1048A000FEF760FC002318461037BD4680BD00BFF0
:1048B000003C0240003802407072000800000020F6
:1048C000040000202DE9B04F94B000AF00237B64BA
:1048D0000023FB6400233B640023BB64794B9B688B
:1048E00003F00C03082B0DD0082B00F2E180002B05
:1048F00002D0042B03D0DBE0734BBB64DBE0734BD3
:10490000BB64D8E06F4B5B6803F03F037B646D4B87
:104910005B6803F48003002B63D06A4B5B689B09E0
:104920000022BB63FA63BB6BC3F308033B63002342
:104930007B63D7E90C4522462B464FF000004FF031
:104940000001590141EAD261500102460B4621465D
:10495000511A3961294663EB01037B614FF0000274
:104960004FF00003D7E904AB59468B01514643EAA7
:10497000916351468A015146B2EB0108594663EBF7
:1049800001094FF000024FF000034FEAC90343EA68
:1049900058734FEAC80290469946234618EB030322
:1049A000BB602B4649EB0303FB604FF000024FF066
:1049B0000003D7E9024529464B02214643EAD15379
:1049C00021464A02104619467B6C0022BB62FA62FD
:1049D000D7E90A23FBF768FE02460B461346FB6441
:1049E00058E0384B5B689B09002218461146C0F31B
:1049F00008033B6200237B62D7E9088942464B46A5
:104A00004FF000004FF00001590141EAD26150011E
:104A100002460B464146B2EB010A494663EB010BE5
:104A20004FF000024FF000034FEA8B1343EA9A6302
:104A30004FEA8A12B2EB0A0463EB0B054FF0000257
:104A40004FF00003EB0043EA5473E20014461D46A6
:104A50004346E3183B604B4645EB03037B604FF056
:104A600000024FF00003D7E9004529468B0221469A
:104A700043EA915321468A02104619467B6C002274
:104A8000BB61FA61D7E90623FBF70EFE02460B462F
:104A90001346FB640B4B5B681B0C03F003030133F1
:104AA0005B003B64FA6C3B6CB2FBF3F3BB6402E06B
:104AB000054BBB6400BFBB6C18465037BD46BDE814
:104AC000B08F00BF003802400024F40000127A00CA
:104AD00080B400AF034B1B681846BD465DF8047BED
:104AE000704700BF0000002080B500AFFFF7F0FF67
:104AF0000246054B9B689B0A03F007030349CB5C06
:104B000022FA03F3184680BD003802408072000884
:104B100080B500AFFFF7DCFF0246054B9B685B0BDF
:104B200003F007030349CB5C22FA03F3184680BD68
:104B3000003802408072000880B582B000AF786013
:104B40007B68002B01D1012342E07B6893F8413060
:104B5000DBB2002B06D17B68002283F84020786806
:104B6000FCF782FB7B68242283F841207B681B686A
:104B7000DA687B681B6822F40052DA60786800F01B
:104B8000D3FD7B681B681A697B681B6822F490421E
:104B90001A617B681B685A697B681B6822F02A02CD
:104BA0005A617B681B68DA687B681B6842F40052B4
:104BB000DA607B6800225A647B68202283F84120F7
:104BC0007B68202283F842207B6800225A630023FE
:104BD00018460837BD4680BD80B58AB002AFF86080
:104BE000B9603B601346FB8000237B61FB6893F850
:104BF0004130DBB2202B75D1BB68002B02D0FB8883
:104C0000002B01D101236EE0FB6800225A64FB688F
:104C1000212283F84120FEF7E9FA7861FB68FA88DF
:104C20009A84FB68FA88DA84FB689B68B3F5805F36
:104C300008D1FB681B69002B04D10023FB61BB6812
:104C4000BB6103E0BB68FB610023BB612EE03B68F6
:104C500000937B6900228021F86800F037FB03464F
:104C6000002B05D0FB68202283F8412003233AE083
:104C7000FB69002B0BD1BB691B881A46FB681B68BC
:104C8000C2F308025A60BB690233BB6107E0FB69EB
:104C90001A78FB681B685A60FB690133FB61FB688B
:104CA000DB8C9BB2013B9AB2FB68DA84FB68DB8C3D
:104CB0009BB2002BCBD13B6800937B690022402143
:104CC000F86800F003FB0346002B05D0FB682022A8
:104CD00083F84120032306E0FB68202283F841206B
:104CE000002300E0022318462037BD4680BD80B572
:104CF00084B000AFF860B9601346FB80FB6893F89E
:104D00004230DBB2202B12D1BB68002B02D0FB88D3
:104D1000002B01D101230BE0FB6800221A63FB8802
:104D20001A46B968F86800F02AFB034600E002233F
:104D300018461037BD4680BD80B5BAB000AF786068
:104D40007B681B681B68C7F8E4307B681B68DB68FE
:104D5000C7F8E0307B681B685B69C7F8DC3000236C
:104D6000C7F8D8300023C7F8D430D7F8E43003F0C0
:104D70000F03C7F8D830D7F8D830002B0FD1D7F8A9
:104D8000E43003F02003002B09D0D7F8E03003F023
:104D90002003002B03D0786800F007FC73E2D7F8FB
:104DA000D830002B00F0DE80D7F8DC3003F00103B0
:104DB000002B06D1D7F8E03003F49073002B00F0FD
:104DC000D180D7F8E43003F00103002B0BD0D7F8E3
:104DD000E03003F48073002B05D07B685B6C43F0FC
:104DE00001027B685A64D7F8E43003F00403002B17
:104DF0000BD0D7F8DC3003F00103002B05D07B6823
:104E00005B6C43F002027B685A64D7F8E43003F02D
:104E10000203002B0BD0D7F8DC3003F00103002B8A
:104E200005D07B685B6C43F004027B685A64D7F85A
:104E3000E43003F00803002B11D0D7F8E03003F082
:104E40002003002B05D1D7F8DC3003F00103002B41
:104E500005D07B685B6C43F008027B685A647B6812
:104E60005B6C002B00F00A82D7F8E43003F02003DB
:104E7000002B08D0D7F8E03003F02003002B02D03D
:104E8000786800F092FB7B681B685B6903F0400365
:104E9000402B0CBF01230023DBB2C7F8D4307B6862
:104EA0005B6C03F00803002B03D1D7F8D430002B40
:104EB0004FD0786800F09DFA7B681B685B6903F04F
:104EC0004003402B41D17B681B681433C7F89C30EA
:104ED000D7F89C3053E8003FC7F89830D7F898309F
:104EE00023F04003C7F8D0307B681B681433D7F831
:104EF000D020C7F8A820C7F8A430D7F8A410D7F856
:104F0000A82041E80023C7F8A030D7F8A030002B34
:104F1000D9D17B68DB6B002B13D07B68DB6B8A4AB3
:104F20001A657B68DB6B1846FEF711FB0346002B06
:104F300016D07B68DB6B1B6D7A68D26B1046984786
:104F40000EE0786800F0ACF90AE0786800F0A8F9A3
:104F500006E0786800F0A4F97B6800225A648DE1CD
:104F600000BF8BE17B681B6B012B40F06781D7F89A
:104F7000E43003F01003002B00F06081D7F8E0303C
:104F800003F01003002B00F059810023BB607B6805
:104F90001B681B68BB607B681B685B68BB60BB6889
:104FA0007B681B685B6903F04003402B40F0CE80B8
:104FB0007B68DB6B1B685B68A7F8BE30B7F8BE3058
:104FC000002B00F0A9807B689B8DB7F8BE209A4229
:104FD00080F0A2807B68B7F8BE20DA857B68DB6B47
:104FE000DB69B3F5807F00F088807B681B680C3339
:104FF000C7F88830D7F8883053E8003FC7F88430C6
:10500000D7F8843023F48073C7F8B8307B681B6806
:105010000C33D7F8B820C7F89420C7F89030D7F8E9
:105020009010D7F8942041E80023C7F88C30D7F8C7
:105030008C30002BD9D17B681B6814337B677B6F66
:1050400053E8003F3B673B6F23F00103C7F8B430E0
:105050007B681B681433D7F8B420C7F88020FB673F
:10506000F96FD7F8802041E80023BB67BB6F002BA6
:10507000E1D17B681B6814333B663B6E53E8003F0D
:10508000FB65FB6D23F04003C7F8B0307B681B68FD
:105090001433D7F8B020FA66BB66B96EFA6E41E8F1
:1050A00000237B667B6E002BE3D17B68202283F894
:1050B00042207B6800221A637B681B680C33FB6408
:1050C000FB6C53E8003FBB64BB6C23F01003C7F8D4
:1050D000AC307B681B680C33D7F8AC20BA657B65B5
:1050E000796DBA6D41E800233B653B6D002BE3D140
:1050F0007B68DB6B1846FEF7BAF97B6802225A63BD
:105100007B689A8D7B68DB8D9BB2D31A9BB2194664
:10511000786800F0CFF8B3E07B689B8DB7F8BE20CD
:105120009A4240F0AD807B68DB6BDB69B3F5807F32
:1051300040F0A6807B6802225A637B689B8D1946EB
:10514000786800F0B7F89BE0B95400087B689A8D46
:105150007B68DB8D9BB2D31AA7F8CE307B68DB8DE2
:105160009BB2002B00F08E80B7F8CE30002B00F001
:1051700089807B681B680C33BB63BB6B53E8003FC3
:105180007B637B6B23F49073C7F8C8307B681B6824
:105190000C33D7F8C8207A643B64396C7A6C41E8E8
:1051A0000023FB63FB6B002BE3D17B681B6814338C
:1051B0007B627B6A53E8003F3B623B6A23F001035A
:1051C000C7F8C4307B681B681433D7F8C4203A632F
:1051D000FB62F96A3A6B41E80023BB62BB6A002BB1
:1051E000E3D17B68202283F842207B6800221A6387
:1051F0007B681B680C333B613B6953E8003FFB60F5
:10520000FB6823F01003C7F8C0307B681B680C33C1
:10521000D7F8C020FA61BB61B969FA6941E8002397
:105220007B617B69002BE3D17B6802225A63B7F86C
:10523000CE301946786800F03DF823E0D7F8E43026
:1052400003F08003002B09D0D7F8E03003F080038F
:10525000002B03D0786800F040F914E0D7F8E43070
:1052600003F04003002B0ED0D7F8E03003F04003EA
:10527000002B08D0786800F080F904E000BF02E05D
:1052800000BF00E000BFE837BD4680BD80B483B0FA
:1052900000AF786000BF0C37BD465DF8047B7047F7
:1052A00080B483B000AF786000BF0C37BD465DF8B6
:1052B000047B704780B483B000AF78600B467B807E
:1052C00000BF0C37BD465DF8047B704780B586B0E3
:1052D00000AFF860B9603B601346FB713BE03B6A8E
:1052E000B3F1FF3F37D0FDF781FF02463B68D31A89
:1052F0003A6A9A4202D33B6A002B01D103233AE077
:10530000FB681B68DB6803F00403002B23D0BB6839
:10531000802B20D0BB68402B1DD0FB681B681B680E
:1053200003F00803082B16D100237B61FB681B6880
:105330001B687B61FB681B685B687B617B69F86845
:1053400000F057F8FB6808225A64FB68002283F8D3
:10535000402001230FE0FB681B681A68BB681340FC
:10536000BA689A420CBF01230023DBB21A46FB79CC
:105370009A42B4D0002318461837BD4680BD80B489
:1053800085B000AFF860B9601346FB80FB68BA686F
:105390009A62FB68FA889A85FB68FA88DA85FB6866
:1053A00000225A64FB68222283F84220FB681B69B2
:1053B000002B07D0FB681B68DA68FB681B6842F4A7
:1053C0008072DA60FB681B685A69FB681B6842F0F0
:1053D00001025A61FB681B68DA68FB681B6842F0CF
:1053E0002002DA60002318461437BD465DF8047BBE
:1053F000704780B495B000AF78607B681B680C3351
:105400007B637B6B53E8003F3B633B6B23F4907300
:10541000FB647B681B680C33FA6C3A64FB63F96BC2
:105420003A6C41E80023BB63BB6B002BE5D17B6882
:105430001B6814333B623B6A53E8003FFB61FB6926
:1054400023F00103BB647B681B681433BA6CFA62F7
:10545000BB62B96AFA6A41E800237B627B6A002B6F
:10546000E5D17B681B6B012B19D17B681B680C3362
:10547000FB60FB6853E8003FBB60BB6823F0100390
:105480007B647B681B680C337A6CBA617B617969D9
:10549000BA6941E800233B613B69002BE5D17B6899
:1054A000202283F842207B6800221A6300BF543711
:1054B000BD465DF8047B704780B584B000AF78606E
:1054C0007B689B6BFB60FB680022DA85F868FFF75E
:1054D000E7FE00BF1037BD4680BD80B485B000AF89
:1054E00078607B6893F84130DBB2212B3ED17B683A
:1054F0009B68B3F5805F14D17B681B69002B10D1CA
:105500007B681B6AFB60FB681B881A467B681B680C
:10551000C2F308025A607B681B6A9A1C7B681A6295
:1055200008E07B681B6A591C7A6811621A787B68EC
:105530001B685A607B68DB8C9BB2013B9BB27A682C
:105540001946D184002B0FD17B681B68DA687B6811
:105550001B6822F08002DA607B681B68DA687B686F
:105560001B6842F04002DA60002300E00223184684
:105570001437BD465DF8047B704780B582B000AF3C
:1055800078607B681B68DA687B681B6822F04002E1
:10559000DA607B68202283F841207868FFF776FE86
:1055A000002318460837BD4680BD80B58CB000AFDB
:1055B00078600023FB620023BB627B6893F8423073
:1055C000DBB2222B40F0AA807B689B68B3F5805F3A
:1055D00015D17B681B69002B11D17B689B6ABB626C
:1055E0007B681B685B689BB2C3F308039AB2BB6A13
:1055F0001A807B689B6A9A1C7B689A6224E07B68AD
:105600009B6AFB627B689B68B3F5805F07D07B6811
:105610009B68002B0AD17B681B69002B06D17B6835
:105620001B685B68DAB2FB6A1A7008E07B681B686B
:105630005B68DBB203F07F03DAB2FB6A1A707B6847
:105640009B6A5A1C7B689A627B68DB8D9BB2013B2C
:105650009BB27A681946D185002B5DD17B681B68A7
:10566000DA687B681B6822F02002DA607B681B68BE
:10567000DA687B681B6822F48072DA607B681B68DA
:105680005A697B681B6822F001025A617B682022FC
:1056900083F842207B6800225A637B681B6B012BD6
:1056A00035D17B6800221A637B681B680C337B61F1
:1056B0007B6953E8003F3B613B6923F010037B6249
:1056C0007B681B680C337A6A3A62FB61F9693A6A53
:1056D00041E80023BB61BB69002BE5D17B681B68F7
:1056E0001B6803F01003102B0AD10023FB607B68BA
:1056F0001B681B68FB607B681B685B68FB60FB6862
:105700007B689B8D19467868FFF7D4FD02E07868C6
:10571000FBF7DAFC002302E0002300E00223184636
:105720003037BD4680BD00002DE9B04FC0B000AF9E
:10573000C7F8F400D7F8F4301B681B6923F4405015
:10574000D7F8F430D968D7F8F4301A6840EA010382
:105750001361D7F8F4309A68D7F8F4301B691A430C
:10576000D7F8F4305B691A43D7F8F430DB69134398
:10577000C7F8F830D7F8F4301B68DB6823F416411B
:1057800021F00C01D7F8F4301A68D7F8F8300B4341
:10579000D360D7F8F4301B685B6923F44070D7F806
:1057A000F4309969D7F8F4301A6840EA010353617C
:1057B000D7F8F4301A688F4B9A4205D0D7F8F430F6
:1057C0001A688D4B9A4204D1FFF7A2F9C7F8FC0082
:1057D00003E0FFF789F9C7F8FC00D7F8F430DB697C
:1057E000B3F5004F40F00C81D7F8FC300022C7F829
:1057F000E830C7F8EC20D7E93A4522462B46911805
:10580000B9655B41FB65D7E91623214612EB010818
:10581000294643EB01094FF000024FF000034FEA25
:10582000C90343EA58734FEAC80290469946234693
:1058300018EB0303C7F8E0302B4649EB0303C7F826
:10584000E430D7F8F4305B680022C7F8D830C7F8E6
:10585000DC20D7E936120B46DB183B65134642EBDA
:1058600003037B65D7E91423D7E93801FAF71CFF56
:1058700002460B46614BA3FB02235B091C01D7F8D0
:10588000FC300022C7F8D030C7F8D420D7E93489DB
:1058900042464B469118B9645B41FB64D7E9122339
:1058A000414612EB010A494643EB010B4FF000025F
:1058B0004FF000034FEACB0343EA5A734FEACA02A0
:1058C00092469B4643461AEB0303C7F8C8304B4643
:1058D0004BEB0303C7F8CC30D7F8F4305B680022F9
:1058E000C7F8C030C7F8C420D7E930120B46DB1820
:1058F0003B64134642EB03037B64D7E91023D7E9EB
:105900003201FAF7D1FE02460B4611463B4BA3FB90
:1059100001235B09642202FB03F3CB1ADB0003F1D2
:105920003202364BA3FB02235B095B0003F4F873DE
:105930001C44D7F8FC300022C7F8B830C7F8BC20A8
:10594000D7E92E8942464B469118B9635B41FB6308
:10595000D7E90E2341465118396349464B417B63D1
:105960004FF000024FF00003D7E90CAB5946CB00D3
:10597000514643EA51735146CA0010461946034640
:1059800042469B18C7F8B0304B460A4642EB030329
:10599000C7F8B430D7F8F4305B680022C7F8A830F5
:1059A000C7F8AC20D7E92A120B46DB18BB621346B6
:1059B00042EB0303FB62D7E90A23D7E92C01FAF78C
:1059C00073FE02460B460D4BA3FB02135B096421D9
:1059D00001FB03F3D31ADB003233084AA2FB032393
:1059E0005B0903F00702D7F8F4301B6822449A6081
:1059F00006E100BF00100140001401401F85EB517B
:105A0000D7F8FC300022C7F8A030C7F8A420D7E9A7
:105A1000288942464B46911839625B417B62D7E93F
:105A2000082341465418494643EB01054FF0000254
:105A30004FF00003EB0043EA5473E20014461D46A6
:105A40004346E318C7F898304B4645EB0303C7F8C5
:105A50009C30D7F8F4305B680022C7F89030C7F864
:105A600094204FF000024FF00003D7E92445294667
:105A70008B00214643EA917321468A00D7E926012B
:105A8000FAF712FE02460B46604BA3FB02235B09AA
:105A90001C01D7F8FC300022C7F88830C7F88C20EA
:105AA000D7E9228942464B469118B9615B41FB61B7
:105AB000D7E9062341465118396149464B417B617C
:105AC0004FF000024FF00003D7E904AB5946CB007A
:105AD000514643EA51735146CA00104619460346DF
